S00D0000696D6167652E7372656314
S3150000080000000420BD0C00006F5101006951010079
S31500000810490D0000490D0000490D000000000000D0
S31500000820000000000000000000000000111C010094
S31500000830490D000000000000E11C0100451D0100FB
S31500000840610D0000650D0000690D00006D0D0000D2
S31500000850710D0000750D0000790D00007D0D000082
S31500000860810D0000850D0000890D00008D0D000032
S31500000870910D0000950D0000990D00009D0D0000E2
S31500000880A10D0000490D0000490D0000490D0000B2
S31500000890CD6A0000DB6A0000E96A0000F76A000022
S315000008A0056B0000136B0000216B00002F6B00002E
S315000008B0C50D0000C90D0000CD0D0000D10D0000D2
S315000008C0D50D0000D90D0000DD0D0000E10D000082
S315000008D0E50D0000E90D0000ED0D0000F10D000032
S315000008E0F50D0000F90D0000FD0D0000010E0000E1
S315000008F0050E0000090E00000D0E0000110E00008E
S31500000900150E0000190E0000490D0000490D0000EB
S31500000910490D0000490D0000490D0000490D000079
S31500000920D5B40100490D0000490D0000490D000035
S31500000930490D0000E9600100490D0000490D000065
S31500000940490D0000490D0000490D0000490D000049
S31500000950490D0000490D0000490D0000490D000039
S31500000960490D0000490D0000490D00001D0E000054
S31500000970210E0000250E0000290E00002D0E00009D
S31500000980310E0000350E0000390E0000490D000042
S31500000990490D0000490D0000490D0000490D0000F9
S315000009A0490D0000490D0000490D0000490D0000E9
S315000009B0490D0000FD600100490D0000490D0000D1
S315000009C0490D00003D0E0000490D0000490D0000D4
S315000009D0490D0000490D0000A9600100BD6001003D
S315000009E0490D0000C1600100D5600100490D0000FD
S315000009F0490D0000490D0000410E0000450E0000A3
S31500000A00490D0000490D0000490D0000490D000088
S31500000A10490D0000490D00008D5101009D74010033
S31500000A20B1330000490D0000490D0000490D0000DA
S31500000A30490D0000490D0000490D0000490D000058
S31500000A40490D0000490D0000490E00004D0E000042
S31500000A50490D0000510E0000550E000075FC010006
S31500000A60ADA70100590E00005D0E0000610E0000EA
S31500000A70650E0000690E00006D0E0000490D0000B5
S31500000A80490D0000490D0000490D0000490D000008
S31500000A90490D0000490D0000490D0000490D0000F8
S31500000AA0490D0000490D0000490D0000490D0000E8
S31500000AB0490D0000490D0000490D0000490D0000D8
S31500000AC0490D0000490D0000490D0000490D0000C8
S31500000AD0490D0000490D0000490D0000490D0000B8
S31500000AE0490D0000490D0000490D0000490D0000A8
S31500000AF0490D0000490D0000490D0000490D000098
S31500000B00490D0000490D0000490D0000490D000087
S31500000B10490D0000490D0000490D0000490D000077
S31500000B20490D0000490D0000490D0000490D000067
S31500000B30490D0000490D0000490D0000490D000057
S31500000B40490D0000490D0000490D0000490D000047
S31500000B50490D0000490D0000490D0000490D000037
S31500000B60710E0000750E0000790E00007D0E00006B
S31500000B70490D0000490D0000490D0000490D000017
S31500000B80490D0000490D0000810E0000850E000091
S31500000B90890E00008D0E0000490D0000490D000071
S31500000BA0910E0000950E00005951010059510100A7
S31500000BB05951010059510100595101005951010083
S31500000BC05951010059510100595101005951010073
S31500000BD05951010059510100595101005951010063
S31500000BE05951010059510100595101005951010053
S31500000BF0595101005951010059510100FFFFFFFFF2
S31500000C0010B5054C237833B9044B13B10448AFF340
S31500000C1000800123237010BD40B0002000000000BA
S31500000C208848030008B5034B1BB103490348AFF3DB
S31500000C30008008BD0000000044B000208848030082
S31500000C40A3F5803A704700BF174B002B08BF134B24
S31500000C509D46FFF7F5FF00218B460F461348144AC1
S31500000C60121A24F0D7FB0E4B002B00D098470D4BE1
S31500000C70002B00D098470020002104000D000D48ED
S31500000C80002802D00C48AFF3008024F055FB20006A
S31500000C90290015F0A5FF24F0BDF800BF00000800EC
S31500000CA000000000000000000000042040AE00200C
S31500000CB03C840220000000000000000072B61648C6
S31500000CC0164901600A6882F3088815488047154965
S31500000CD0154A164B9A42BEBF51F8040B42F8040B54
S31500000CE0F8E7134A134B9A42BEBF51F8040B42F879
S31500000CF0040BF8E7104B00209A42BCBF42F8040BE5
S31500000D00FAE70E490E4A00209142BCBF41F8040B97
S31500000D10FAE762B60B48804708ED00E000080000DD
S31500000D204D350000D04903000080002028AE002089
S31500000D3000000020000000207840002040AE002087
S31500000D403C840220490C000014F006BA52480047C1
S31500000D505248004752480047524800475248004709
S31500000D6052480047524800475248004752480047F9
S31500000D7052480047524800475248004752480047E9
S31500000D8052480047524800475248004752480047D9
S31500000D9052480047524800475248004752480047C9
S31500000DA052480047524800475248004752480047B9
S31500000DB052480047524800475248004752480047A9
S31500000DC05248004752480047524800475248004799
S31500000DD05248004752480047524800475248004789
S31500000DE05248004752480047524800475248004779
S31500000DF05248004752480047524800475248004769
S31500000E005248004752480047524800475248004758
S31500000E105248004752480047524800475248004748
S31500000E205248004752480047524800475248004738
S31500000E305248004752480047524800475248004728
S31500000E405248004752480047524800475248004718
S31500000E505248004752480047524800475248004708
S31500000E6052480047524800475248004752480047F8
S31500000E7052480047524800475248004752480047E8
S31500000E8052480047524800475248004752480047D8
S31500000E9052480047524800476F510100695101000E
S31500000EA0111C0100E11C0100451D0100C187000065
S31500000EB0F98700003188000069880000A1880000D9
S31500000EC0D988000011890000498900008189000045
S31500000ED0B9890000F1890000298A0000618A0000B2
S31500000EE0998A0000D18A0000098B0000490D000094
S31500000EF0C9A30000E9A3000009A4000029A400007A
S31500000F0049A4000069A4000089A40000A9A4000067
S31500000F10C9A40000E9A4000009A5000029A5000055
S31500000F20B59E0000C19E0000CD9E0000D99E000027
S31500000F30E59E0000F19E00001D9F0000519F0000ED
S31500000F40859F0000B99F0000ED9F000021A00000D2
S31500000F50490D0000490D0000490D0000490D000033
S31500000F60490D0000490D0000490D0000490D000023
S31500000F70490D0000490D0000490D0000490D000013
S31500000F80490D0000490D0000490D0000490D000003
S31500000F90490D0000C9930000490D0000490D0000ED
S31500000FA0490D00009D8C0000B18C0000D98C00001A
S31500000FB0ED8C0000C58C0000018D0000490D00007D
S31500000FC0490D0000DDA50000490D0000490D000097
S31500000FD0490D0000490D0000490D0000490D0000B3
S31500000FE0490D000081F0004102E000BF83F000439C
S31500000FF030B54FEA41044FEA430594EA050F08BFAE
S3150000100090EA020F1FBF54EA000C55EA020C7FEA71
S31500001010645C7FEA655C00F0E2804FEA5454D4EBEE
S315000010205555B8BF6D420CDD2C4480EA020281EAB8
S31500001030030382EA000083EA010180EA020281EAF0
S315000010400303362D88BF30BD11F0004F4FEA013142
S315000010504FF4801C4CEA113102D0404261EB410151
S3150000106013F0004F4FEA03334CEA133302D05242D7
S3150000107063EB430394EA050F00F0A780A4F1010493
S31500001080D5F1200E0DDB02FA0EFC22FA05F28018CD
S3150000109041F1000103FA0EF2801843FA05F35941B3
S315000010A00EE0A5F120050EF1200E012A03FA0EFC32
S315000010B028BF4CF0020C43FA05F3C01851EBE3715C
S315000010C001F0004507D54FF0000EDCF1000C7EEB79
S315000010D000006EEB0101B1F5801F1BD3B1F5001FB7
S315000010E00CD349085FEA30004FEA3C0C04F10104D6
S315000010F04FEA445212F5800F80F09A80BCF1004FFF
S3150000110008BF5FEA500C50F1000041EB045141EA80
S31500001110050130BD5FEA4C0C404141EB0101013C49
S3150000112028BFB1F5801FE9D291F0000F04BF014638
S315000011300020B1FA81F308BF2033A3F10B03B3F10A
S3150000114020020CDA0C3208DD02F1140CC2F10C029A
S3150000115001FA0CF021FA02F10CE002F11402D8BFF8
S31500001160C2F1200C01FA02F120FA0CFCDCBF41EAC4
S315000011700C019040E41AA2BF01EB0451294330BD93
S315000011806FEA04041F3C1CDA0C340EDC04F1140470
S31500001190C4F1200220FA04F001FA02F340EA030047
S315000011A021FA04F345EA030130BDC4F10C04C4F18D
S315000011B0200220FA02F001FA04F340EA030029466D
S315000011C030BD21FA04F0294630BD94F0000F83F4B7
S315000011D0801306BF81F480110134013D4EE77FEA9A
S315000011E0645C18BF7FEA655C29D094EA050F08BFE6
S315000011F090EA020F05D054EA000C04BF19461046C7
S3150000120030BD91EA030F1EBF0021002030BD5FEA0A
S31500001210545C05D14000494128BF41F0004130BD32
S3150000122014F580043CBF01F5801130BD01F0004586
S3150000123045F0FE4141F470014FF0000030BD7FEAF9
S31500001240645C1ABF194610467FEA655C1CBF0B46F4
S31500001250024650EA013406BF52EA033591EA030F0B
S3150000126041F4002130BD00BF90F0000F04BF002103
S31500001270704730B54FF4806404F132044FF0000536
S315000012804FF0000150E700BF90F0000F04BF0021AF
S31500001290704730B54FF4806404F1320410F0004515
S315000012A048BF40424FF000013EE700BF42004FEA10
S315000012B0E2014FEA31014FEA02701FBF12F07F438D
S315000012C093F07F4F81F06051704732F07F4208BF44
S315000012D0704793F07F4F04BF41F40021704730B54B
S315000012E04FF4607401F0004521F000411CE700BF97
S315000012F050EA010208BF704730B54FF000050AE01A
S3150000130050EA010208BF704730B511F0004502D51A
S31500001310404261EB41014FF4806404F132045FEA1C
S31500001320915C3FF4D8AE4FF003025FEADC0C18BFC5
S3150000133003325FEADC0C18BF033202EBDC02C2F1B7
S31500001340200300FA03FC20FA02F001FA03FE40EA49
S315000013500E0021FA02F11444BDE600BF53B94AB9A2
S31500001360002908BF00281CBF4FF0FF314FF0FF30A7
S3150000137000F0BCB9ADF1080C6DE904CE00F054F8EC
S31500001380DDF804E0DDE9022304B07047430803F00A
S315000013905533C01A830803F0333300F03330184452
S315000013A000EB101000F00F3000EB002000EB0040C7
S315000013B0000E704708B502460B4643EC172BB5EEF8
S315000013C0C07BF1EE10FA03D4BDE8084000F00CB87B
S315000013D0B1EE477B51EC170B00F006F8404261EB8B
S315000013E0410108BD000000009FED0B6B41EC170B9F
S315000013F09FED0B5B27EE066BBCEEC66BB8EE464B5D
S31500001400A4EE457BFCEEC77B16EE101A17EE900A8B
S31500001410704700BFAFF30080000000000000F03D01
S31500001420000000000000F0412DE9F047089D044649
S315000014308C46002B40F083808A42174647D9B2FA81
S3150000144082F242B1C2F1200024FA00F091409740A6
S3150000145040EA010C94404FEA1748230CBCFBF8F60F
S315000014601FFA87FE08FB16C143EA014306FB0EF18D
S31500001470994209D9FB1806F1FF3080F0198199428B
S3150000148040F21681023E3B445B1AA4B2B3FBF8F06D
S3150000149008FB103344EA034400FB0EFEA64509D9B7
S315000014A03C1900F1FF3380F00581A64540F2028128
S315000014B002383C4440EA0640A4EB0E0400261DB167
S315000014C0D4400023C5E900433146BDE8F08702B9A0
S315000014D0FFDEB2FA82F2002A50D1CB1B4FEA174E3A
S315000014E01FFA87F80126B3FBFEFC210C0EFB1C330A
S315000014F041EA034108FB0CF38B4207D979180CF13A
S31500001500FF3002D28B4200F2E9808446C91AA3B2A8
S31500001510B1FBFEF00EFB101143EA014408FB00F894
S31500001520A04507D93C1900F1FF3302D2A04500F2CD
S31500001530D9801846A4EB080440EA0C40BFE78B426A
S3150000154009D9002D00F0B1800026C5E9000130461A
S315000015503146BDE8F087B3FA83F6002E4AD18B42B6
S3150000156002D3824200F2B880841A61EB03010120A3
S315000015708C46002DA8D0C5E9004CA5E7C2F1200392
S3150000158020FA03F6974001FA02F04FEA174ED940C7
S315000015903043030CB1FBFEF61FFA87F80EFB16115B
S315000015A043EA014306FB08F1994204FA02F409D919
S315000015B0FB1806F1FF3C80F08D80994240F28A804C
S315000015C0023E3B445B1A81B2B3FBFEF00EFB1033C6
S315000015D041EA034100FB08F38B4207D9791800F171
S315000015E0FF3C73D28B4271D902383944CB1A40EA98
S315000015F0064678E7C6F1200C03FA06F422FA0CF345
S315000016001C4320FA0CF701FA06F34FEA144E21FAAE
S315000016100CF11F433B0CB1FBFEF91FFA84F80EFBDD
S31500001620191143EA014109FB08FA8A4502FA06F252
S3150000163000FA06F308D9611809F1FF3048D28A4545
S3150000164046D9A9F102092144A1EB0A01BFB2B1FBB7
S31500001650FEF00EFB101147EA014700FB08F8B845FB
S3150000166007D9E71900F1FF312ED2B8452CD9023837
S31500001670274440EA0940A7EB0807A0FB02894F452B
S31500001680C64649461AD317D05DB1B3EB0E0267EBD7
S31500001690010707FA0CFCF2404CEA0202F740C5E9E2
S315000016A0002700263146BDE8F0872E4628460BE780
S315000016B00646E9E61846FDE64345E5D2B8EB020ED6
S315000016C069EB04010138DFE70846D2E760468DE79B
S315000016D08146B9E7664675E730464AE7ACF1020C43
S315000016E0394413E702383C4424E700BF704700BF83
S315000016F001F0FF01102A2BDB10F0070F08D010F8BD
S31500001700013B013A8B422DD010F0070F42B3F6D1C0
S31500001710F0B441EA012141EA014122F007047FF0D9
S3150000172000070023F0E80256083C85EA010586EA30
S31500001730010685FA47F5A3FA87F586FA47F6A5FA6C
S3150000174087F68EB9EED1F0BC01F0FF0102F0070278
S3150000175032B110F8013B013A83EA010313B1F8D123
S315000017600020704701387047002D06BF3546033804
S31500001770073815F0010F07D1013015F4807F02BF3D
S31500001780013015F4C03F0130F0BC0138704700BF8E
S3150000179010F8012B11F8013B012A28BF9A42F7D015
S315000017A0D01A7047034613F8012B002AFBD1181AEA
S315000017B0013870470022C0E900228260704700228B
S315000017C0C0E90022826070470022C0E900228260E0
S315000017D070470120704703681B6A184703685B6AF5
S315000017E0184710B504460B6811689847204610BD87
S315000017F0012A03D0022A03D0002070470160FBE7CC
S315000018000B680360F8E7022A06D0032A02D0012AF1
S3150000181000D10160002070470B680360FAE72029B9
S31500001820F0B510D0046F0023242500F118069C4261
S3150000183009D005FB03F2B7588F4202D10432104497
S31500001840F0BD0133F3E70020FAE770477047F8B5BB
S3150000185005460F46064600242B6FA34210D9B369EE
S31500001860202B02D001342436F6E73946F069FFF71B
S315000018708FFF0028F6D1242000FB04500430F8BD69
S315000018800020FCE710B504468C2122F084FB20469C
S3150000189010BDD0F88420032A38B50CD800F17404A2
S315000018A000239A420BD014F8015B8D4205D11E33FA
S315000018B050F8230038BD23F04BFA0133F1E700203E
S315000018C0F8E7006812F01EB92DE9F843571A0646E4
S315000018D088469146002F4FEA671502DA104822F033
S315000018E032FD1DB1384622F069FB0546EB194FF073
S315000018F0000E3560B36008EB0E04A1450BD005EB76
S315000019000E0C0EF1200E0FCCACE80F0094E80F0081
S315000019108CE80F00EFE73D447560BDE8F88300BF33
S31500001920C0A0020070B5541A06460D46002C02DA15
S31500001930094822F008FD204601D022F03FFB04446E
S31500001940013D3060B460844204D015F8013F00F8D0
S31500001950013BF8E7746070BDC0A00200836810B553
S31500001960044613B1032201469847204610BD10B520
S31500001970044600F59060FFF7F1FF204610BD000019
S31500001980F8B5304E3578BFF35B8F15F0010557D1AA
S31500001990304622F004FB002852D02B4B2B4C1A6801
S315000019A0A71D2560C4F806209A8853F8060F6281A1
S315000019B004F10C025968257184F8285003C298680E
S315000019C0012304F10C01106002222377304684F8CB
S315000019D0403084F84C3004F1380384F82C206365D9
S315000019E004F1500384F85020A3654FF481732576E3
S315000019F0A4F85C30164BC4E90C1540F20221A16331
S31500001A0004F11801E1630A21C4E91835616404F19F
S31500001A10580304F12801C4E90875A164A366C4F853
S31500001A208854C4F89C54C4F8E055C4F8E455C4F886
S31500001A30E85522F0C0FA074A2046074922F0A4FAE0
S31500001A400248F8BD04C0002024A0020008C00020FF
S31500001A503D260000008000206F190000042A2DE9B1
S31500001A60F0430546ADF5137D0E46144665D0DFF806
S31500001A70F480DFF8F49014F063F850AA294621F0B8
S31500001A804DFD002859DD9DF848312E2BF3D0002757
S31500001A90A74298F8003005DA13B1484624F01AFB3D
S31500001AA00137F5E71BB152A9264824F013FB9DF830
S31500001AB0402198F80030022A38D113B1224824F088
S31500001AC009FB52AB214AFF2110A80093334624F0AC
S31500001AD0C7FB14F035F810AA03A921F0A5FC0028CD
S31500001AE00BDAFFF74DFF1A4B1A4A1B49009340F2D7
S31500001AF0591313F033FC11F0BDFD621C10A903A8A5
S31500001B00FFF7ACFF14F01CF803A921F0EFFC002846
S31500001B10B1DAFFF735FF114B0E4A0F49009340F239
S31500001B205B1313F01BFC11F0A5FDA4E7002BA2D05C
S31500001B3051990B4824F0CEFA9DE70DF5137DBDE8CB
S31500001B40F08300BF41A60200F3A00200F7A0020046
S31500001B5029A10200FDA0020010A1020054A102006A
S31500001B6077A1020000C60020F1A0020070B50D4E5C
S31500001B703378BFF35B8F13F0010410D1304622F0A7
S31500001B800EFA60B1084D3046084B85F8544F2B606D
S31500001B9022F011FA064A2846064922F0F5F90248CB
S31500001BA070BD00BFA8B00020ACB00020100203003A
S31500001BB0008000204D18000000F1080373B50446AC
S31500001BC00D460360E1B10846FFF7ECFD0F2805EB73
S31500001BD00006019007D9002201A9204622F0C6FB83
S31500001BE0019B2060A36032462946206822F01FFC34
S31500001BF0019B2268002120466360D15402B070BD6B
S31500001C00014822F09DFB00BF7FA1020010B50446EB
S31500001C10006808B122F0BDF9204610BD70B50D1E52
S31500001C20044602DA0B4822F08EFB4FF00003C0E9AF
S31500001C3000338360284601D022F0C0F9461920609F
S31500001C40A6601DB12A46002123F0E4FB204666600B
S31500001C5070BD00BFC0A0020010B50446006808B100
S31500001C6022F097F9204610BD2DE9F04F95B00D46AC
S31500001C7000211E46DDF878901446804632F090FE2C
S31500001C8020220021074604A823F0C4FBD9F800B09F
S31500001C90FFF76CFF19F064FCFFF768FF0323089455
S31500001CA004ACCDF828B08246CDE9063501230CAD4B
S31500001CB08DF82C300FCC0FC594E80F0085E80F0087
S31500001CC0002314AA0CA901A80393CDE90133FFF759
S31500001CD0FBFD01A950461AF0B3F80546019808B174
S31500001CE022F057F925B90025284615B0BDE8F08F32
S31500001CF007B17F683846D9E90012521A23F062FB11
S31500001D00404632F039FE04460028ECD10CA80122E8
S31500001D109FED0A0A414632F007FE0C9B306833609D
S31500001D200D9B73600E9B0E94B360CDE90C4408B115
S31500001D3022F02FF90CA8FFF78FFFD5E79A99193FE4
S31500001D404C4B1A782DE9F04F0446A3B0984612B1D1
S31500001D50494824F0BFF9236800211CADD3F8089048
S31500001D60484632F01DFE83680020D3E9027619F05A
S31500001D70B7FB1FAA06FB07FA00FB0AF12846FFF786
S31500001D804DFF00233A463146219348460095CDE95A
S31500001D901F331FABFFF768FF0346002863D0DFF849
S31500001DA008B1DFF808A1DFF80891DDE91F32934298
S31500001DB043D093ED047A2046304AB7EEC77A1C9991
S31500001DC018922F4A8DED1A7B93ED027A1492B7EE94
S31500001DD0C77A2C4A8DED167B93ED057A1092B7EEF5
S31500001DE0C77A294A8DED127B93ED037A0C92B7EEF2
S31500001DF0C77A264A8DED0E7B93ED017A0892B7EEEF
S31500001E00C77A8DED0A7B1A68214B07920491214A05
S31500001E10CDE905B31D9B5B1A1F49CDE902A3CDE9A8
S31500001E200097334617F00CF91FA8FFF715FF284651
S31500001E30FFF7ECFE23B0BDE8F08F98F8003013B141
S31500001E40164824F047F91C9A20461D9B14499B1AF4
S31500001E50CDE9042BCDE902A30E4A3346CDE900971E
S31500001E6017F0EEF8E0E70F4A4FF0FF31204617F083
S31500001E70A9F8D9E700C60020A9A102001CA2020009
S31500001E8021A2020026A202002BA2020030A202001A
S31500001E9090F90200C7A10200CDA1020053A20200E0
S31500001EA063A2020086A2020036A2020040A202003D
S31500001EB04CA202000A6802604A6842608A68826030
S31500001EC00022C1E901220A6002220276704708B5A3
S31500001ED043680A2B08D90B3B00681844FFF758FCE7
S31500001EE0B0FA80F0400908BD0020FCE7F0B58BB0E1
S31500001EF0054601A832F030FD2B68062128461B6AEC
S31500001F009847074640B1D5F8880018B106221B4904
S31500001F1032F01EFD01202FE0D5F870C0BCF1020F93
S31500001F2009D9D5F888000028F4D0032306221449DD
S31500001F3032F00EFDEEE74FF0240E01AC0EFB0C5E08
S31500001F400FCC0EF104060FC60FCC0FC6236806226F
S31500001F50384633600CF10103CEF818202B67D5F80C
S31500001F608430E91881F8742003F11E020549013313
S31500001F7045F82210C5F884300BB0F0BDAAA20200C5
S31500001F80F9A2020099DD2420036F022B2DE9F0410E
S31500001F900546884614460BD9D0F8880010B90120AA
S31500001FA0BDE8F0810A460323114932F0D1FCF6E779
S31500001FB003685B6A9847064640B1D5F88800002852
S31500001FC0EDD042460B4932F0C3FCE8E72F6F2420E0
S31500001FD07B1C00FB07572B673D1D0FCC0FC50FCC95
S31500001FE00FC5236830462B602023C7E90638D7E79C
S31500001FF03CA302007EA3020070B505460C464CB118
S31500002000E1682846FFF7F8FFA668204621F0C1FFE1
S315000020103446F4E770BD10B50446806B30B1836872
S31500002020013B836013B90368DB68984704F1080035
S315000020302169FFF7E1FF204610BD00002DE9F74FAB
S31500002040D0E9009A0E461146AAEB0903354A8046A6
S31500002050DC10354B6343934202D1344822F073F9C6
S31500002060012B1C46A6EB090538BF0124E41857D2FC
S3150000207054B1944228BF144618200091604321F0C1
S315000020809DFF0099074600E027467819CB4622F0C7
S315000020905BFB38465E4500F118031DD1EB08244D65
S315000020A018266B4323F0604306FB039203FB066688
S315000020B007EB060B16465B46564519D031461846C1
S315000020C00192009322F0F4F93046183622F070F9A6
S315000020D0009B019A1833EFE75946009322F0E8F97E
S315000020E0584622F065F9009B0BF1180B1846D1E70C
S315000020F0B61AF6086E43182526F0604605FB06B6A6
S31500002100B9F1000F02D0484621F043FF182000FB2A
S315000021100474C8E90076C8F8084003B0BDE8F08F3B
S315000021201446A9E755555505ABAAAAAACAA30200A3
S31500002130ABAAAA0A2DE9F047A44CADF5207D0646C8
S315000021408846237813B1A24823F0C4FF0BAA414660
S315000021501EA8FFF731FD9F491EA8FFF7B8FE0546EA
S3150000216098B911AA41465EA8FFF726FD5F980E288A
S3150000217008D95E9B0F3898491844FFF709FBB0FA57
S3150000218080F56D095EA822F013F91EA822F010F959
S315000021909DB1237813B1914823F09CFF1EAA904964
S315000021A05EA8FFF709FD5EA9304622F081F90123FA
S315000021B033765EA822F0FCF803E11EAA41465EA82B
S315000021C0FFF7FAFC87495EA8FFF781FE07465EA87F
S315000021D022F0EEF8002F00F0238123780495CDE954
S315000021E0025513B1804823F075FF13F0A9FC7F4A0E
S315000021F01EA921F019F900282378C0F28B8013B1AB
S315000022007B4823F067FF7B4D13F09AFC5EAA1EA95C
S3150000221021F084F9002822DD9DF87831012BF3D1D5
S315000022200BAA60A911A8FFF7C7FC23781BB1119967
S31500002230284623F04FFFDDE90303984209D011A990
S3150000224022F082FA039B1833039311A822F0B0F808
S31500002250DAE7014611AA02A8FFF7F0FEF5E713F048
S315000022606FFC1EA921F042F923783BB1624823F0A6
S3150000227031FF237813B1614823F02CFF4FF000099A
S315000022805F4D604F11AADFF8948105A85E49FFF7FC
S3150000229093FCDDE902239B1ADB106B434B453DD9CA
S315000022A00DAB4FF0180A0BA80AFB092A0B93002363
S315000022B00C938DF83430DAF80410013122F03AF933
S315000022C0012239460BA822F0F1F951460BA822F05B
S315000022D0E3F939460BA822F0F9F9014611A822F0D4
S315000022E0E7F811A905A822F0DDF911A822F060F897
S315000022F00BA822F05DF8DDE902239B1ADB106B4385
S31500002300013B994503D2414605A822F0F5F909F1AA
S315000023100109BEE7002BB1D03C48A8E73C4905A817
S3150000232022F0EAF923781BB105993A4823F0D2FE48
S3150000233000270BA8DDE90512CDE90B770A440D97B6
S31500002340FFF7F0FA13ABDDE90B581193A8EB050381
S315000023500F2B019307D93A4601A911A822F006F8D6
S31500002360019B11901393119A2B46984504D013F8AC
S31500002370011B02F8011BF8E7019B0021119A129339
S31500002380D15423781BB11199234823F0A3FE0BA93E
S315000023903046FFF78FFD11A822F00AF80BA8FFF7C9
S315000023A035FC05A822F004F8DDE90245A54204D073
S315000023B02046183421F0FCFFF8E7029808B121F016
S315000023C0E8FD30460DF5207DBDE8F08700C600200B
S315000023D0E4A3020008A4020014A4020024A402003C
S315000023E031AF020044A4020050A4020071A402000E
S315000023F076A402009CA40200B3A40200EDA402008D
S31500002400ABAAAAAA72F802000BA50200CCA402008D
S3150000241030BD020010A5020024A502000DA5020091
S3150000242005226549404624F006F81EAA4146C8B969
S315000024305EA8FFF7C1FB1EA95E982095CDE91E5543
S3150000244013F076FC38B11EA93046FFF733FD1EA8FF
S31500002450FFF7DCFBADE61C222946304622F0DAFF08
S315000024603576F4E75EA8FFF7A7FB5F98112808D931
S315000024705E9B123851491844FFF78AF9B0FA80F783
S315000024807F095EA821F094FF2378002F00F0878053
S3150000249013B14B4823F01EFE5EAA4A4905A8FFF772
S315000024A08BFB5EAA48490BA8FFF786FB13F048FB97
S315000024B0464A11A920F0B8FF002823785BDB13B148
S315000024C0434823F007FE434F434D13F039FB5EAA02
S315000024D011A921F023F8002833DD9DF87831012B6E
S315000024E0F3D160AB3A464FF480711EA823F0B8FED4
S315000024F013F026FB1EA920F069FD237830B9002BC6
S31500002500E3D01EA9284623F0E5FDDEE71BB11EA990
S31500002510324823F0DFFD002302A8DDE90B12CDE9E6
S3150000252002330A440493FFF7FDF902A93046FFF788
S31500002530C1FC02A8FFF76AFB0BA821F039FF05A82A
S3150000254038E613F0FDFA11A920F0D0FF237813B175
S31500002550234823F0BFFD00231EA8DDE90512CDE9BF
S315000025601E330A442093FFF7DDF91EA93046FFF714
S31500002570A1FC1EA8DEE713B11A4823F0ABFD002329
S315000025805EA8DDE90B12CDE95E330A446093FFF7DE
S31500002590C9F95EA93046FFF78DFC5EA8CAE713B1FC
S315000025A0114823F097FD1C220021304622F032FF0D
S315000025B00023337605E700BF41A5020047A50200C8
S315000025C05AA502007EA50200CBA5020071A4020056
S315000025D015A602003CA6020044A6020057A6020069
S315000025E072A60200A3A60200C3A6020070B58B68FD
S315000025F0164604460D1D012253B118691D46326860
S31500002600904287BF98680122D86800220346F3E704
S3150000261092B1CA68AA4203D1C4E90035204670BD0A
S31500002620284621F048FD336802699A424FF00003BC
S31500002630F2D3C4E90003F1E72846F4E72DE9F04FA9
S3150000264092464B4A8146141D95689046A3462DED49
S31500002650028B08EE101A85B045B12A694A453ABF81
S31500002660EA682546AA682C461546F5E75C4502D079
S315000026702269914530D2182021F0A0FC00225C4549
S315000026800746426100F11002C0F810902FD1D8F829
S31500002690141021B1D8F810603169494509D334497D
S315000026A002A8FFF7A3FFDDE90246002E5BD0002C4F
S315000026B057D15E4555D03869336998422CBF002002
S315000026C001202C4B3246394621F0F7FCD8F814305D
S315000026D00133C8F814303C46524618EE101A6069A9
S315000026E005B0BDEC028BBDE8F04F16F05FBE216968
S315000026F00192894519D2D8F80C108C4209D020468F
S3150000270021F0D9FC0169019A494505D2C16851B940
S31500002710044626460C46C8E7154902A8FFF766FF99
S31500002720DDE90214F5E72146F3E71CD9D8F8106075
S31500002730B4420BD0204621F098FC01690546019A67
S31500002740494505D9E36853B926461D462C46ACE7EC
S31500002750074902A8FFF74AFFDDE90256F6E70646F3
S31500002760F4E70120ADE73846274621F012FCB2E730
S31500002770FC0C0120000D012013B50B4602466C46E9
S31500002780D0E9000184E8030093E8030082E803002F
S3150000279094E8030083E8030002B010BD2DE9F84376
S315000027A0074688461646154604464FF00009444536
S315000027B01AD029462046C5F808901035FFF7DCFFE9
S315000027C0A36855F8082C2046103444F8082C45F820
S315000027D0083C55F8042C54F8043C44F8042C45F8FD
S315000027E0043CFFF7BBF8E2E7E01B3044BDE8F883A2
S315000027F0474D2B782DE98048ADF5777D13B14548D7
S3150000280023F068FC0021084613F0D6FF00230FA929
S3150000281041481193CDE90F3313F08AFA40B92B786A
S315000028201BB13D493D4823F055FC002011F00CFB3F
S315000028303B4C2378BFF35B8FD9070ED4204621F09B
S31500002840AEFB50B1374819F0A3FF204621F0B3FB89
S31500002850354A3649334821F097FB022231490DA803
S315000028601AF0C2FF0D9B3BB92B7813B1304823F009
S3150000287031FC002011F0E8FA0CAE2E4B002464A8BF
S3150000288033602D4B80946493CDE98544FFF72EFB8E
S3150000289032F01EF82949024664A8FFF775FB1BF0C3
S315000028A05DFA2749024664A8FFF76EFB0F994FF4BD
S315000028B0000364AA086800930144224B87A8019686
S315000028C0CDE9024432F024F887A832F049F838B14D
S315000028D02B7813B11C4823F0FDFB002011F0B4FA4D
S315000028E0879B1A689A1A1188082940F2018312896F
S315000028F09918002A00F0FC829A588B188A585ABBFD
S31500002900124B40F20111124A124822F029FA00BF76
S3150000291000C60020DAA60200FAAE0200F6A6020001
S315000029205CB0002060B0002000800020172000006E
S3150000293011A702007C2A25202CAC020038A7020031
S31500002940E8AE02000000008155A7020077A702004A
S3150000295082A702007CA80200191D5B68CA18CB5822
S31500002960D31A1988062940F2C382DB88D118002BB6
S3150000297000F0BE82D358CB58012B07D02B7813B169
S31500002980B34823F0A7FB002011F05EFAFFF7EEF83C
S31500002990012119F0D1FCFFF7E9F8052119F0B4FC83
S315000029A02B7813B1AB4823F095FBAB4C87A90020DD
S315000029B016F0EAFBA94B22682C202360DA6021F08E
S315000029C0FDFAA74900220461016000F11801C26006
S315000029D00276C0E90122C0E90721C0E9091214F014
S315000029E059FE2B783BB19F4823F074FB2B7813B12B
S315000029F09D4823F06FFB9D4813F004F9B8B92B7876
S31500002A0013B19B4823F066FB13F09AF8974920F020
S31500002A1053FC10F1110F40F0D8802B783BB195484C
S31500002A2023F058FB2B7813B1934823F053FB24ABC8
S31500002A3022A82293002323938DF8903014F09AFD58
S31500002A4028B12B781BB122998C4823F043FB8C4B81
S31500002A5000241020DFF858A21E938A4B2194B493C9
S31500002A60894BB793894BCDE91F44B69321F0A6FA5B
S31500002A70064601468460B4A8FFF77EFEB268B69BA0
S31500002A802146B6922046F268B360B79BB7923246AB
S31500002A90F360FFF783FE214600F110022046FFF7A0
S31500002AA07DFECDE91F601036B4A82196FEF756FFCD
S31500002AB01EA814F0EFFD0121172013F0ABFA2146F2
S31500002AC0172013F05FFA21461D2013F0A3FA11F028
S31500002AD039FC6F4BB4AA0321B7936E4BB4901D20FB
S31500002AE0B69313F0D5FBB4A8FEF738FF002011F01B
S31500002AF0ABF92B7813B1684823F0ECFA002187A8CC
S31500002B0031F04EFF83680DF148090020D3E90276C3
S31500002B1018F0E6FCB4AA06FB07F800FB08F14846E5
S31500002B20FFF77CF815AB3A46314687A8CDF80090FA
S31500002B301794CDE91544FFF797F8002800F0D081E7
S31500002B40B4AA564928A84FF00008FFF735F8544FA5
S31500002B50169B159EDFF85CB10B930B9BB3423DD0E1
S31500002B602A78D6F800801AB396ED047A41465AF8C8
S31500002B7028203846B7EEC77A8DED087B96ED057AA4
S31500002B80B7EEC77A8DED067B96ED027AB7EEC77A79
S31500002B908DED047B96ED037AB7EEC77A8DED027B59
S31500002BA096ED017AB7EEC77A8DED007B23F092FAA7
S31500002BB0299A1AB1594628A821F09EFD5AF82810DC
S31500002BC028A8183621F098FDC7E700287FF42AAF19
S31500002BD02B78002B3FF42BAF324826E7DDE9153280
S31500002BE09A420CD1304823F075FA28A821F0E0FB70
S31500002BF015A8FFF731F84846FFF708F876E736AF2D
S31500002C00289B2A4A64214BA8002623F029FB12F0B0
S31500002C1097FF164A394620F007FC002851DB12F0D0
S31500002C208FFFB4AA394620F079FC002844DD9DF8D0
S31500002C30D032012BF3D12EAA4BA9B6A823F064FB00
S31500002C400128ECD12E9B9E42B8BF1E46E7E700BF87
S31500002C50C2A80200F1A80200F00C012004800020A6
S31500002C6048F8020014A902002EA9020071A402006D
S31500002C7056A902008DA902009EA90200ECA9020035
S31500002C80BCF6020035210000E3170000F117000032
S31500002C90C31800000718000003AA0200F2A00200F1
S31500002CA019AA0200C3A9020060AA02006AAA0200C9
S31500002CB0148000203BEB020012F042FF394620F060
S31500002CC015FC0136289B8C4A64214BA8009623F0FC
S31500002CD0C7FA12F035FFB4AA4BA920F0FBF9002879
S31500002CE02B7880F2F78013B1844823F0F3F90020A3
S31500002CF036AF18F0F5FB82493A46414318A8FEF76D
S31500002D008DFF202200212EA822F084FB189EFEF7BC
S31500002D102DFF18F025FCFEF729FF4FF4A2730322BE
S31500002D20349632932EAE8346BC461D94CDE93023AD
S31500002D3001238DF8D4300FCEACE80F0096E80F00D3
S31500002D408CE80F003EAA39461BA8CDE91B44FEF7C6
S31500002D50BBFD1BA9584619F073F806461B9808B127
S31500002D6021F017F9002E37D12B7813B1654823F0DF
S31500002D70B1F91D94CDE91B4418A8FEF747FFDDE91C
S31500002D801BB6B34540D12B7813B15F4823F0A2F9A7
S31500002D901BA8FEF73BFF0121172013F0F3F842F2C0
S31500002DA0107010F087FD0021172013F0EBF80121B9
S31500002DB0182013F0E7F842F2107010F07BFD5AF875
S31500002DC02810524823F086F9514810F073FD00216F
S31500002DD0182013F0D7F808E74FF4A2721898BC60D1
S31500002DE04B231146C7E90044009715F025F93B68C7
S31500002DF038463C601B937B681C93BB68C7E901445B
S31500002E001D93FEF703FFB7E712F09AFE4FF48173A6
S31500002E104BAA394620F080F900280FDBA6EB0B06FB
S31500002E2012F08EFE5A463946334620F0F3F98642B2
S31500002E3009D012F085FE394620F09CF92B78002B3C
S31500002E40A6D03448A2E712F07BFE394620F092F96C
S31500002E500028F3DB2B7813B12F4823F03BF91BA88E
S31500002E60FEF7D4FE12F06CFE2C4A36A920F0DCFAEE
S31500002E7000280BDAFEF784FD294B2A4A2A490093DB
S31500002E804FF4B47312F06AFA10F0F4FB2B7813B116
S31500002E90264823F01FF90022254936A8FEF7DEFD55
S31500002EA02B7813B1234823F015F912F049FE36A901
S31500002EB020F01CFB0028BFF66EAFFEF761FD1E4B2F
S31500002EC0184A194900934FF4B87312F047FA10F0F4
S31500002ED0D1FB60E7002BC5D0184823F0FBF8C1E70B
S31500002EE02B78002B3FF484AE154823F0F3F87FE6E9
S31500002EF000231B68FFDE00BF75AA020084AA020039
S31500002F00109A0100C3AA0200E5AA0200EDAB020076
S31500002F1020BF020003AB02001FAB0200DDF8020077
S31500002F2070AB0200FDA0020010A1020095AB0200EA
S31500002F30F2A00200ACAB0200CCAB02003BAB02003D
S31500002F40FCAB02000121182008B513F063F800213C
S31500002F50182013F017F8FFF74BFC10B5044640F69F
S31500002F60587121F018F8204610BD13B5019012F0E3
S31500002F7005F8044618B1019A002122F04BFA2046C2
S31500002F8002B010BD11F0FCBFEFF305835BB1EFF3A8
S31500002F9011834FF0200282F31188BFF36F8FBFF3C6
S31500002FA04F8F036070470EF045BEEFF3058313B1F4
S31500002FB080F3118870470EF06BBE000010B5044612
S31500002FC030B9084B40F2ED11074A084821F0C8FE17
S31500002FD004200FF0ABFA10B12060002010BD43F2C0
S31500002FE0DD70FBE7AAAF0200F6AF020055AF0200A4
S31500002FF008B530B90B4B40F20A210B4A0B4821F0B9
S31500003000AFFE4B1C00681EBF4FF47A735943B1FBE9
S31500003010F3F10FF06DFD002843F2DE7018BF0020BB
S3150000302008BD00BFAAAF020006B0020055AF0200FD
S3150000303008B530B9074B40F22A21074A074821F064
S315000030408FFE00680FF048FA002843F2DD7018BFC3
S31500003050002008BDAAAF020014B0020055AF02005E
S3150000306008B530B9054B4FF41071054A054821F0F3
S3150000307077FE00680FF0B2FD002008BDAAAF02007F
S3150000308024B0020055AF020038B50D46044630B9EB
S31500003090084B4FF41471084A084821F061FE0EF0FF
S315000030A0C7FB206010B10020257138BD43F2DD70EA
S315000030B0FBE700BFBEAF020035B0020055AF02000D
S315000030C037B50025019530B9144B40F26A21144AF0
S315000030D0144821F045FE0068E8B1EFF30584B4B169
S315000030E001AA0EF0EFFC012804D00F4B4FF41E711D
S315000030F00B4AEDE7019840B10C4B4FF080521A6035
S31500003100BFF34F8FBFF36F8F284603B030BD0EF06D
S315000031104FFC2046F9E743F2DD70F6E7BEAF02004A
S3150000312045B0020055AF0200D2AF020004ED00E048
S3150000313073B5069D30B9114B40F2E121104A114892
S3150000314021F00EFE066821F07F449EB101793046DB
S31500003150009313460A1E214618BF01220EF076FB85
S31500003160204005B12860002843F2DE7018BF002019
S3150000317002B070BD43F2DD70FAE700BFBEAF0200D9
S3150000318052B0020055AF020008B530B9074B40F205
S315000031901731074A074821F0E3FD006818B10EF021
S315000031A063FC002008BD43F2DD70FBE7BEAF020002
S315000031B060B0020055AF020010B50446084611463D
S315000031C034B9084B40F22D31074A084821F0C8FDB2
S315000031D000220FF00FF810B12060002010BD43F25E
S315000031E0DD70FBE7E3AF020071B0020055AF0200ED
S315000031F013B530B9144B40F24931144A144821F042
S31500003200AFFD002400680194EFF305839BB12346CC
S3150000321001AA0FF09DF9012812D1019B13B90020D4
S3150000322002B010BD0B4B4FF080521A60BFF34F8FA8
S31500003230BFF36F8FF3E71A460FF05CF80128EED064
S3150000324043F2DD70ECE700BFE3AF020080B002009E
S3150000325055AF020004ED00E008B530B90B4B40F263
S3150000326071310B4A0B4821F07BFD531C00681EBFD1
S315000032704FF47A735A43B2FBF3F20FF08BFA01283C
S3150000328043F2DE7008BF002008BD00BFE3AF0200B6
S315000032908CB0020055AF020008B530B9054B40F2BC
S315000032A0A131054A054821F05BFD00680FF096FC48
S315000032B0002008BDE3AF020098B0020055AF02003F
S315000032C007B5186C01A99A630FF0DAF9019B3BB1B7
S315000032D0054B4FF080521A60BFF34F8FBFF36F8FCD
S315000032E003B05DF804FB00BF04ED00E02DE9F041FA
S315000032F00D4616461F46044630B329B34422002124
S3150000330022F088F804200FF011F9E06348B1032297
S31500003310002101200EF06EFF206420B9E06B0FF053
S315000033205DFC01200EE0A0463A463146284648F8A4
S31500003330045B06F047FB28462346044A414606F04E
S31500003340C7FB0020BDE8F0810420FBE7C132000086
S315000033504FF0FF31C06B0FF0CBBBC06B0FF0BCB8AA
S3150000336037B504460191FFF7F3FF012813D1019AFF
S31500003370211D206806F0E8FB054628B12046FFF728
S31500003380ECFF284603B030BD4FF0FF31206C0FF044
S31500003390C1FAA56BF2E74FF46175F2E70123024A21
S315000033A01370024A9360704708C6002000000F4061
S315000033B0FFF7F4BF2DE9F8432C4B1C68844228BF65
S315000033C0044604B32A4E2B4D3368DFF8B49023F03D
S315000033D00103D9F8008033602B6823F001032B60CA
S315000033E072B6BFF34F8FBFF36F8F10F089FF224F76
S315000033F058B9AB686B602B6843F001032B603B68E0
S31500003400013B6B6062B6BDE8F883013C08FB04F340
S315000034103361336843F001033360BFF34F8F30BF2E
S31500003420BFF36F8F154B00221A7062B600BF197872
S31500003430B1B11A700E4A0F4D136823F001031360E1
S315000034400EF0F8FB2B68204643F001032B6010F0CA
S3150000345013FC3B68013B6B60BDE8F8430EF018BCFB
S31500003460746AD9F80000B4FBF0F4E3E710C6002054
S3150000347000000F4010E000E00CC6002008C6002047
S3150000348004C600200C4B64221A6002220B4B1A6001
S315000034906FF000420A4B1A600A4B4FF08072DA60F6
S315000034A0002243F8F02C43F8E82C632243F8EC2C76
S315000034B0032243F8F02C70470CC6002004C60020F7
S315000034C010C6002000E100E00B1E10DD00F01F0119
S315000034D01944BFF34F8F064A0144C2F85C022030FC
S315000034E00B1A002BF9DCBFF34F8FBFF36F8F7047BA
S315000034F000ED00E00B1E10DD00F01F011944BFF3C4
S315000035004F8F064A0144C2F8680220300B1A002B7E
S31500003510F9DCBFF34F8FBFF36F8F704700ED00E00C
S315000035200B1E10DD00F01F011944BFF34F8F064A32
S315000035300144C2F8700220300B1A002BF9DCBFF3ED
S315000035404F8FBFF36F8F704700ED00E03C4A08B520
S31500003550D2F8883043F47003C2F88830394A1388A9
S31500003560580705D5138823F004031B041B0C13808E
S31500003570354A1388590705D5138823F004031B041D
S315000035801B0C1380314B1A6892044CD5304A5A6092
S315000035904FF6FF729A601A6822F0A00242F02002EB
S315000035A01A602C4B1A68900443D5294A5A604FF684
S315000035B0FF729A601A6822F0A00242F020021A6096
S315000035C0254B1A68D10703D51A6822F001021A6042
S315000035D01B4B5A69920315D45A6912F4003211D161
S315000035E0BFF34F8FBFF36F8FC3F85022BFF34F8FD8
S315000035F0BFF36F8F5A6942F400325A61BFF34F8F9F
S31500003600BFF36F8F154A136F23F4005313670C4AE9
S31500003610536943F010035361BFF34F8FBFF36F8FAE
S3150000362000F04AF808BD4CF220525A604DF62812B6
S31500003630ADE74CF220525A604DF62812B6E700BFAD
S3150000364000ED00E00000034000400340008003401E
S3150000365020C528D90000C14010E000E000400E401F
S3150000366010B5C4010E4A04F1814402EBC00004F512
S3150000367098042368C3F30223C05C04F0BDFB2368EF
S315000036800246DBB201339A42B0FBF3F006D2054B99
S3150000369040F6C501044A054821F062FB10BD00BF93
S315000036A030B10200A8B0020019B10200ADB00200AC
S315000036B000487047D4C6002008B511F0C3FC08BD09
S315000036C010B592B00420FFF7CBFF14220446002168
S315000036D001A821F09FFE3022002106A821F09AFEC3
S315000036E001A807F047FB012301A919488DF804300A
S315000036F007F068FB04234FF0004216498DF8183096
S315000037004FF480331248CDE9072303F10133124AFF
S3150000371003F102230993114BB2FBF4F2CDE90A132C
S315000037201E2300218DF83030A023534306AA0D93A3
S3150000373041F68463CDE90F3340F20123ADF84430FE
S31500003740234607F0FDFBB0FA80F0400912B010BD29
S3150000375000400D401212780F00CA9A3B2A2A463CB6
S315000037607FB5684603F086FC074B69460748009319
S31500003770074B0193074B0293074B039303F0C0FDDE
S3150000378007B05DF804FB00BF14C6002000004440EB
S3150000379044C6002074C60020A4C6002010B5E4B0BC
S315000037A04FF49E72002115AC204621F033FE142002
S315000037B0FFF756FF4FF4003330212060A360022349
S315000037C0009402A8E38140F2033323820C23E374BE
S315000037D04FF40063C4E909334023E3622023C4E9BC
S315000037E00D13074C019405F0BFFB02A9204605F016
S315000037F001FB0449684602F06FFA64B010BD00BFD1
S3150000380000C00C40D4C6002038B5044611F02AFC8E
S3150000381002F0DEF800F056FB01F0A8FD0CB101F055
S3150000382099FDFFF74DFF10B90B4822F053FC0B4DE5
S315000038300B4C0C480C4A641B0C49121A21F0C2FDB1
S3150000384022460021284621F0E5FDFFF789FFBDE865
S315000038503840FFF7A3BF00BFFBB0020000000081A5
S31500003860406886810000008100000081F87703002F
S315000038704B78C0018A781B02013A03F4E063D2B2A6
S3150000388013430A78002A0CBF00224FF080721343BC
S31500003890034A1350BFF34F8FBFF36F8F704700BFBC
S315000038A00000CC402DE9F743EC4C00232046ADF850
S315000038B004308DF8063004F0DBFEE94BE94AD3F814
S315000038C000199142224640F0D882D3F81039DBB273
S315000038D00B2B40F0D282636923F000536361636867
S315000038E023F4F85343F4B0536360A368002BFCDA67
S315000038F0DB4BDD4ED3F87038DB48DA06C3F3001134
S315000039004ABF00220122114606F024FF012130465B
S3150000391006F09EFE0121304606F0E0FE022004F08D
S3150000392011FAD6F8C03043F00203C6F8C03004F0EE
S31500003930EDFA336D43F002033365336943F0020356
S315000039403361336943F080733361336A43F01003A4
S315000039503362336A5B00FCD50024012501A90227E6
S3150000396020468DF805408DF80650FFF781FF01A926
S3150000397008208DF805404FF006088DF80650FFF731
S3150000398077FFBA484FF0180903F0B8FEB84804F0BC
S315000039907FF9B84803F028FF21461B22022003F0D6
S315000039A0B5FF13222946022003F0B0FF0221182298
S315000039B0084603F0ABFF20220321022003F0A6FFF6
S315000039C004F050F821460D22032003F09FFF112238
S315000039D02946032003F09AFF20220221032003F048
S315000039E095FF03211622084603F090FFD6F8103201
S315000039F0A14823F00803C6F81032042604F0C6F8DE
S31500003A002946052004F07EF804F01CF920460DEB4B
S31500003A1006018DF805608DF80650FFF729FF0DEBBE
S31500003A20060138468DF805608DF80670FFF720FF11
S31500003A3003230DEB060130468DF805808DF8063020
S31500003A40FFF716FF0DEB060105208DF805408DF8F2
S31500003A500650FFF70DFF07230DEB060140468DF8D4
S31500003A6006608DF80530FFF703FFF0230DEB060126
S31500003A7008208DF805408DF80630FFF7F9FE0DEBAE
S31500003A8006010E208DF805408DF80650FFF7F0FE72
S31500003A900DEB06010F208DF805408DF80690FFF717
S31500003AA0E7FE0DEB060110208DF805408DF8069017
S31500003AB0FFF7DEFE0DEB060111208DF805408DF8AF
S31500003AC00650FFF7D5FE0DEB060112208DF80540D6
S31500003AD08DF80650FFF7CCFE0DEB060113208DF88E
S31500003AE005408DF80650FFF7C3FE0DEB06011920C1
S31500003AF08DF805408DF80650FFF7BAFE0DEB06016E
S31500003B001A208DF805408DF80650FFF7B1FE0DEB33
S31500003B1006011B208DF805408DF80650FFF7A8FE1C
S31500003B200DEB06011C208DF805408DF80650FFF7B9
S31500003B309FFE0DEB06011D208DF805408DF8065001
S31500003B40FFF796FE0DEB06011E208DF805408DF859
S31500003B500650FFF78DFE0DEB06011F208DF8054080
S31500003B608DF80650FFF784FE0DEB060120208DF838
S31500003B7005408DF80650FFF77BFE0DEB0601212070
S31500003B808DF805408DF80650FFF772FE0DEB060125
S31500003B9022208DF805408DF80650FFF769FE0DEBE3
S31500003BA0060123208DF805408DF80650FFF760FECC
S31500003BB00DEB060124208DF805408DF80650FFF721
S31500003BC057FE0DEB060125208DF805408DF80650B1
S31500003BD0FFF74EFE0DEB060126208DF805408DF809
S31500003BE00650FFF745FE0DEB060127208DF8054030
S31500003BF08DF80650FFF73CFE0DEB060128208DF8E8
S31500003C0005408DF80650FFF733FE0DEB060129201F
S31500003C108DF805408DF80650FFF72AFE0DEB0601DC
S31500003C202A208DF805408DF80650FFF721FE0DEB92
S31500003C3006012B208DF805408DF80650FFF718FE7B
S31500003C400DEB06012C208DF805408DF80650FFF788
S31500003C500FFE0DEB06012D2010E000BF0080CA40CC
S31500003C6000C0CA406959AC570040C840C0B3020002
S31500003C7054B6020060B60200C8B302008DF80540D3
S31500003C808DF80650FFF7F4FD0DEB06012E208DF89A
S31500003C9005408DF80650FFF7EBFD0DEB06012F20D2
S31500003CA08DF805408DF80650FFF7E2FD0DEB060195
S31500003CB030208DF805408DF80650FFF7D9FD0DEB45
S31500003CC0060134208DF805608DF80660FFF7D0FDFB
S31500003CD00DEB060135208DF805408DF80650FFF7EF
S31500003CE0C7FD0DEB060136208DF805408DF8065010
S31500003CF0FFF7BEFD0DEB060137208DF805408DF868
S31500003D000650FFF7B5FD0DEB060138208DF805408E
S31500003D108DF80650FFF7ACFD0DEB060139208DF846
S31500003D2005408DF80650FFF7A3FD0DEB06013A207E
S31500003D308DF805408DF80650FFF79AFD0DEB06014C
S31500003D403D208DF805408DF80650FFF791FD0DEBEF
S31500003D5006013E208DF805808DF80670FFF788FD78
S31500003D600DEB060140208DF805408DF80650FFF753
S31500003D707FFD0DEB060141208DF805408DF80650BC
S31500003D80FFF776FD0DEB060142208DF805408DF814
S31500003D900650FFF76DFD0DEB060143208DF805403B
S31500003DA08DF80650FFF764FD0DEB06014C208DF8EB
S31500003DB005408DF80650FFF75BFD3A4B3A4C1A6802
S31500003DC022F007021A601A6822F0380242EA090253
S31500003DD01A601A6822F0C0021A605A6822F00302BA
S31500003DE05A609A6822F003029A60DA6822F49F62A7
S31500003DF022F00702DA601A6922F002021A615A6991
S31500003E0022F0050232435A615A6922F002025A61CF
S31500003E109A6922F002029A619A6922F001029A6175
S31500003E209A6D22F001029A65DA6D22F00102DA65D6
S31500003E301A6E22F001021A665A6E22F001025A66C2
S31500003E409A6E22F001029A66DA6E22F00102DA66B2
S31500003E502368164AC3F30223D05C03F0CDFF236820
S31500003E60DBB22B449842B0FBF3F215D2104B40F66E
S31500003E70C501104A104820F073FF536923F0005320
S31500003E805361536823F4F85343F4A85353600B4A21
S31500003E909368002BFCDA2BE5094B1A6003B0BDE8EA
S31500003EA0F08300BF00400E400000CC40DCB30200AF
S31500003EB0A8B00200A8B30200ADB002000080CA405C
S31500003EC07C810020FFF7EEBC104642B1002313733D
S31500003ED0536833B11B6823B10A46022118470320F1
S31500003EE0704701207047104642B100235373536850
S31500003EF033B11B6823B10A460121184703207047D6
S31500003F00012070472DE9F043044687B018B9012017
S31500003F1007B0BDE8F083837B002BF8D04268926837
S31500003F2051799942F3D303F1005312680C2740F6F6
S31500003F30024C013B02EBC30612F8335000239D42AC
S31500003F40E5D907FB03F270688118825A62453BD1B6
S31500003F500D7A00239D422DD80026CB782374002E9F
S31500003F60D5D000250120DFF870802F46DFF86C9051
S31500003F70A6603379AB42CBD90623B2688DF80870B8
S31500003F806B43D118D25C8DF80620D2094B88ADF868
S31500003F9004304B788DF8073018D0022B02D12773E6
S31500003FA0CDF80C9003AA01A920680135049408F005
S31500003FB033F8DEE71A01486800EB0316805CE27B03
S31500003FC09042CAD00133C5E70133B8E7022B04BFDC
S31500003FD06773CDF80C80E5E7E73E0000C93E0000B8
S31500003FE0836870B5044693B1002501200626A368B0
S31500003FF01A79954202D30023A36070BD9A6806FB26
S3150000400005F320680135D15C08F025F8EFE70120BB
S31500004010F3E7000070B50A4C0E46154623685BB9F7
S31500004020214601F00FFD30B923683BB14FF47F43C1
S315000040306660E3812C6070BD0220FCE70320FAE78E
S315000040400000002010B5044630B1FFF7C9FF002379
S31500004050C4E90033E38110BD0320FCE77FB50446C5
S315000040601546002A60D000285ED0CBB2013B032B58
S3150000407054D8DFE803F01E020640002383730124B0
S3150000408014E04368002BFAD02A78837B9A42F6D054
S31500004090FFF7A6FF2B782046A3730023E373FFF7F1
S315000040A031FF044610B1214807F022FD204604B036
S315000040B070BD2B68227C197998889142DFD12E1D1C
S315000040C0ADF808005888009605F10806ADF80A0014
S315000040D0287B01968DF80C005B78222B07D163684C
S315000040E06A460B2120461B6898470446DEE71048BF
S315000040F007F0FEFCC3E74368002BC0D02D88037C85
S31500004100B3EB152FBBD1EDB2C37BAB42B7D0FFF7F4
S3150000411067FF2046E573FFF7F5FEE6E70A46054822
S31500004120054907F0E5FCAAE70324BFE76CB60200E1
S3150000413086B60200B8B60200CBB6020038B5044611
S3150000414048B1057B4DB901202073206807F050FF68
S3150000415000B1257338BD0320FCE70220FAE738B525
S31500004160044648B1457B4DB901206073206807F0CD
S3150000417045FF00B1657338BD0320FCE70220FAE76E
S315000041802DE9F04390F8943087B004461BB901201E
S3150000419007B0BDE8F0834268926851799942F6D338
S315000041A01268002AF3D003F100530C27013B02EBFF
S315000041B0C30612F8335000239D42E8D907FB03F2E9
S315000041C070688118825C082A2CD10D7A00239D42E2
S315000041D01DD80027CB7884F89530002FD7D000263D
S315000041E00120DFF88C803546DFF88890A7603B79A0
S315000041F0B34219D80123E560C4F88450C4F8883066
S3150000420084F88C5084F88F5084F89650C0E71A01D1
S31500004210486800EB0317805C94F893209042D9D04D
S315000042200133D4E70133C7E70623B9688DF8085090
S3150000423073430136CA1810798DF80900CB5C2068E3
S315000042408DF806305188ADF8041001A9527804940F
S315000042508DF80720DA0903AA15BF84F8913084F88F
S315000042609230CDF80C90CDF80C8007F0D5FEBEE765
S3150000427085480000C9460000836870B5044693B1BE
S31500004280002501200626A3681A79954202D3002349
S31500004290A36070BD9A6806FB05F320680135D15C02
S315000042A007F0D9FEEFE70120F3E70000F8B5214C4F
S315000042B00F4616462568002D3AD104F1980321468B
S315000042C0A36104F1B803E36104F1C803236204F1B6
S315000042D0DC03E36304F1E403236404F1F0032365E0
S315000042E001F0B0FB30B184F8945084F89350C4E9DF
S315000042F00055F8BD236833B9606084F8940084F8EB
S3150000430093000320F5E7FF23702284F8940084F8D5
S315000043109330236A606167601A700A229870DA71B6
S315000043201873587384F88D0084F88E003460E0E7C3
S315000043300220DEE71400002010B5044648B1FFF75E
S315000043409BFF0023C4E9003384F8943084F893304B
S3150000435010BD0320FCE7F0B504468FB01646002AD0
S3150000436000F06F81002800F06C81C9B2013905297F
S3150000437000F26B81DFE811F03401060043006700AC
S315000043808C00BC00002301AA052180F89430436804
S315000043901B689847019B0546002B00F05481013BA2
S315000043A001AE4FF0010C04F1440E84F89030B3686E
S315000043B01BB373680BB3331D0EEB0C170FCB87E8DB
S315000043C00F0094F890205FFA8CF39A4205D30CF113
S315000043D0010C1036BCF1040FE9D1226A7023137068
S315000043E00A23D371002393701373537384F88D30AB
S315000043F084F88E3028460FB0F0BD0125E1E743680A
S31500004400002B00F0228190F8943012789A4200F046
S3150000441005810BB1FFF730FF3378204684F89430DE
S31500004420002384F89330FFF7ABFE05460028E1D160
S315000044301F23A26994F89210206807F0DFFD01237C
S3150000444084F88D30D6E74368002B00F0FE8016888E
S3150000445090F89530B3EB162F40F0F780F6B290F84F
S315000044609330B34200F0DA80FFF706FF2046FFF7ED
S3150000447087FE054648B91F23A26994F89210206862
S3150000448007F0BCFD012384F88D3084F89360B1E712
S315000044904368002B00F0D9808368002B00F0D5809C
S315000044A090F886307BB9117890F8912001209142DE
S315000044B007D184F8860084F88E302068317807F0BA
S315000044C001FE054600E0012594F88730002B91D1C6
S315000044D0317894F8922091428CD1012284F88D3063
S315000044E0206884F88720317807F0ECFD054681E7DF
S315000044F04368002B00F0A9808368002B00F0A5809C
S3150000450090F88950012D3FF475AF90F88650012D33
S3150000451040D1127890F891309A4209D1002380F860
S31500004520863080F88E300068317807F0DCFD05466D
S3150000453094F88730012B0ED1327894F892309A4253
S3150000454009D10023206884F8873084F88D303178CB
S3150000455007F0C9FD054694F88F30023B012B29D898
S3150000456094F88A30012B17D1B4F88630002B7FF4EB
S3150000457041AF94F88D202068012A94F8921084F8AF
S315000045808A3025D184F88D3007F03CFD002384F86D
S315000045908F302FE70125CBE794F88E302068012B6A
S315000045A094F891100CD184F8963007F02BFD002377
S315000045B084F88F3094F88A30012B7FF41BAFD3E751
S315000045C00D23E26907F014FD012384F88E30EEE72F
S315000045D01F23A26907F012FD012384F88D30D5E769
S315000045E013681A7802F01F05012D2ED190F8950058
S315000045F0197988427FF4FEAE5978FE2903D0FF2947
S315000046000ED00525F6E659880029FAD1DB88012B5C
S31500004610F7D11206F5D59034C6E901450025E9E63D
S3150000462059880029EDD1DB88002BEAD11306E8D49E
S3150000463040F20112A4F8885084F88A50A4F8862023
S31500004640ECE70325D6E60425D4E60125D2E630B507
S31500004650036985B0002504460093836902955A7B59
S31500004660C36800EB02118DF80C20B3F5803F6A4653
S31500004670C96D28BF4FF480338B4294BF01930191DB
S31500004680042143681B689847A36922695B7B94F8F9
S31500004690911004EB03135B6D9A4206D22068DDE9A4
S315000046A0013207F0A5FC05B030BD0123206884F86F
S315000046B08B5084F88630022384F8855084F88F3036
S315000046C007F000FD2846EEE77FB54B6814460E4618
S315000046D05A1C2CD194F88530A3B163681D688DB13E
S315000046E0A269D37B03F07F03282B0BD10023096833
S315000046F020460291012101930093537B6A468DF86F
S315000047000C30A84794F89650012D03D00125284671
S3150000471004B070BD0023E26994F8911084F89630D5
S315000047200D23206807F064FCA4F88E50EFE7E268DA
S3150000473094F88B5093429CBFD21AE260012D0CD1A3
S31500004740002394F89110206884F88B3084F8865002
S3150000475084F8853007F0B6FCD9E794F88520BAB915
S315000047600D2BD3D10B681968264B9942CED1012562
S3150000477084F88E201F23A26994F89210206884F88A
S31500004780885007F03BFC84F88D50C0E701252AE0ED
S3150000479062681568002DB9D00193336802932369C6
S315000047A00093A3695A7B8DF80C20DB7B03F07F0313
S315000047B0282B03D16A4601212046A847E368002B2F
S315000047C0E4D0A36920465A7B736804EB0212926D0B
S315000047D0B3FBF2F2236913442361FFF738FFE36862
S315000047E00546002B93D10023E26994F8911084F8D2
S315000047F085300123206884F88E300D2307F0F8FBFE
S3150000480085E700BF5553425330B5036985B000258F
S3150000481004460093836902955A7BC36800EB021134
S315000048208DF80C20B3F5803F6A46096E28BF4FF419
S3150000483080338B4294BF01930191032143681B6827
S315000048409847A36922695B7B94F8921004EB0313E3
S315000048505B6D9A4206D22068DDE9013207F0CEFB95
S3150000486005B030BD0123206884F88C5084F8873069
S31500004870022384F8845084F88F3007F023FC2846FE
S31500004880EEE700007FB514464A680E46531C2CD14D
S3150000489094F88430A3B163681D688DB1A269D37B97
S315000048A003F07F032A2B0BD10023096820460291CF
S315000048B0022101930093537B6A468DF80C30A8477A
S315000048C094F88D50002D40F0AB81B4F886304BB98A
S315000048D01F23A26994F89210206807F08FFB01232A
S315000048E084F88D30284604B070BDE3689A429CBFB8
S315000048F09B1AE360A369DB7B03F0BF03152B06D18C
S3150000490063681B681BB100220B212046984794F868
S315000049108C30012B0CD1002594F89210206884F875
S31500004920873084F88450A4F88C5007F0CBFBD9E785
S3150000493094F88450002D37D073680193336802933E
S3150000494023690093A3695A7B8DF80C206268156869
S31500004950CDB1DB7B03F07F032A2B03D16A4602210C
S315000049602046A847E5688DB1A36920465A7B73683F
S3150000497004EB0212926DB3FBF2F223691344236136
S31500004980FFF742FF0546E368002BABD1002384F80E
S3150000499084300D23E26994F89110206807F028FB13
S315000049A0012384F88E309DE794F88830002B00F0C0
S315000049B01E8173681F2B40F01A81A369994A1968F2
S315000049C0914240F014815E7B16F0F00F40F00F81AB
S315000049D0997B11F0E00240F00A8194F890000130D2
S315000049E0864280F0048101390F2900F20081E169D5
S315000049F08D4884F88D20E260086058688A604860B7
S31500004A0084F8882093F90C009E680028197B02DB45
S31500004A10321E18BF0122002884F8842008DA3EB12D
S31500004A20012094F8862084F8850022B1054659E7CE
S31500004A30002284F88520DB7B032B04D0226A002029
S31500004A40907010735073CA092F2B666284F8392050
S31500004A5050D8112B0CD8032B00F09480042B00F0B7
S31500004A609D80002B00F09280204600F039FC57E034
S31500004A70123B1D2BF8D801A252F823F01B4B000065
S31500004A80694A0000694A0000AD4B0000694A00000F
S31500004A90694A0000694A0000694A0000034B0000A9
S31500004AA0CD4B0000694A0000BD4B0000954B00004D
S31500004AB0694A0000694A0000694A0000694A000024
S31500004AC0B54B0000694A0000A54B0000694A00008A
S31500004AD0694A00007D4B0000694A0000134B000044
S31500004AE0694A0000694A0000694A0000694A0000F4
S31500004AF0C54B00009E2B55D007D8552B56D05A2BA8
S31500004B00B2D1204600F054FA0AE0A82B36D0AA2BE0
S31500004B10AAD1204600F0FCF902E0204600F0AFF9E9
S31500004B20236A05469B7843B1E3691A7B2AB9A269D1
S31500004B30D27B032A1CBF01221A73052D0ED194F8CD
S31500004B408430012B46D194F887200AB984F88C303A
S31500004B50002384F88430022384F88F3094F884305C
S31500004B60002B7FF4BFAE94F88530002B7FF4BAAEED
S31500004B7094F88B30002B7FF4B5AE0AE7204600F0A0
S31500004B80A2F9CDE7204600F059F9C9E7204600F022
S31500004B90E4F9C5E7204600F03CFBC1E7204600F0FB
S31500004BA019FBBDE7204600F053FAB9E7204600F0AE
S31500004BB023FAB5E7204600F093FAB1E7204600F065
S31500004BC049FBADE7204600F0E9F9A9E7204600F0E9
S31500004BD062FBA5E794F88530012BBCD194F88620BA
S31500004BE00AB984F88B30002384F88530B3E794F84B
S31500004BF09210206807F066FA94F89110206807F082
S31500004C0061FA002384F88D30012384F88F3040F256
S31500004C100113A4F886304FF48073A4F8883061E657
S31500004C2000255FE6555342435553425330B48469D9
S31500004C300129647B00EB0414A56D5468126804FB1B
S31500004C4005F40261C46002D130BCFFF700BD30BC80
S31500004C50FFF7DABDD0E9093270B504464BB9C16930
S31500004C608B6012B910460A7370BD022218460A7389
S31500004C70FAE790F8391000296ED0C56942B9AB60E1
S31500004C80134694F89110E26A206807F0B1F90FE034
S31500004C9090F83A10002954D0934290F8381013D95E
S31500004CA09B1A0129AB60EBD100F13002FFF7BEFF82
S31500004CB0E36908B918735CE001221A730322236AB8
S31500004CC09A7011221A7354E04FF00002AA6010D1B4
S31500004CD0012907D100F13002FFF7A8FFE36940BBC5
S31500004CE01873C1E7C26A90F89110006807F080F95E
S31500004CF0F4E7012916D18269527B00EB0212966D08
S31500004D00B3FBF6F206FB1233426300F13002AB60EE
S31500004D10FFF78CFFE36960B994F83820012ADFD1E8
S31500004D2002220CE0C26A90F89110006807F060F960
S31500004D30F0E701221A730322236A9A7011221A736A
S31500004D4092E7C26AAB600B4690F89110006807F0D4
S31500004D504FF9E3690222B5E76AB990F89210006844
S31500004D6007F0B0F9636AE26993600123137384F86C
S31500004D708730052078E790F83A1059B190F89210EC
S31500004D80006807F09FF9E369626A9A6002221A7363
S31500004D900123ECE79342C56990F8386019D99B1A4C
S31500004DA0012EAB600DD100F13002FFF73FFFE36942
S31500004DB000283FF47FAF01221A730322236A9A70F8
S31500004DC080E7134690F89210C26A006807F016F959
S31500004DD0EDE7A96016D1012E0DD100F13002FFF7E3
S31500004DE025FFE36900283FF47BAF01221A73236A8B
S31500004DF003229A70A3E7C26A90F89210006807F03F
S31500004E00FDF8EEE7012E12D18269527B00EB021209
S31500004E10966DB3FBF6F206FB1233426300F13002E5
S31500004E20AB60FFF703FF0028E1D1E36974E7C26ACC
S31500004E3090F89210006807F0E1F8F4E710B5036AFD
S31500004E4086B004460493836903F10F025B7B8DF8F9
S31500004E501430436801921B6813B101AA0F219847C9
S31500004E6012232046A362012384F83A30236AE362C0
S31500004E70002384F83830FFF7EDFE06B010BD10B5FC
S31500004E80036A86B004460493836903F10F025B7BD1
S31500004E908DF814304368019200221B68CDE9022286
S31500004EA013B101AA08219847029B2046A362012359
S31500004EB084F83A30039BE362002384F83830FFF726
S31500004EC0C9FE06B010BD826910B4D37BD2F81110AA
S31500004ED0282B09BA15D1D38A5BBA9BB2012480F874
S31500004EE03A40527B00EB0212926D80F838405A43EA
S31500004EF05DF8044B82620022C0E90C13C262FFF720
S31500004F00A9BEA82B0ABFD2F8153000231BBAE5E7C5
S31500004F10826910B4D37B0024D2F811102A2B09BA67
S31500004F2014D1D38A5BBA9BB280F83A40527B00EB2D
S31500004F300212926D5A43C0E90A24012280F83820F1
S31500004F405DF8044BC0E90C13FFF784BEAA2B0ABF19
S31500004F50D2F8153023461BBAE6E730B5036A87B0A8
S31500004F6004460493836903F10F025B7B01920122DD
S31500004F708DF81430002380F83A208362C36280F8EB
S31500004F803830FFF767FE636805461B681BB101AA48
S31500004F90072120469847284607B030BD0022012148
S31500004FA0826280F83A10C26280F83820FFF752BE5B
S31500004FB010B5036A86B004460493836903F10F02B1
S31500004FC05B7B8DF814304368019200221B68CDE9A3
S31500004FD0022213B101AA09219847029B2046A36227
S31500004FE0012384F83A30039BE362002384F83830C7
S31500004FF0FFF730FE06B010BD10B5036A86B0044652
S315000050000493836903F10F025B7B8DF814304368C8
S31500005010019200221B68CDE9022213B101AA0A21DE
S315000050209847029B2046039AA3620023E26284F813
S315000050303A3084F83830FFF70DFEA3691B7CDB0796
S3150000504004D5236A05229A7024221A7306B010BD6D
S31500005050836930B585B05D7B002304468DF80C501E
S31500005060CDE9013343681B6813B101AA10219847A3
S3150000507094F89030AB423FBF236A052200259A7010
S31500005080029931B1019B13B304EB0515C5E915313E
S315000050900821A069437BC07B0533252804EB031355
S315000050A05A68A16202F1FF3212BA12D1E16B0A60AC
S315000050B09B681BBA4B6001232046E16284F83A30B4
S315000050C0002384F83830FFF7C5FD05B030BD19461A
S315000050D0DFE7216C4A609B681BBA8B60EBE7000038
S315000050E070B53B4B044688B01868A36900905D7B99
S315000050F00023CDE9053363688DF81C501B681BB18E
S3150000510005AA11212046984794F89030AB423FBF3C
S31500005110236A052200259A70069B2BB1059A1AB1BF
S3150000512004EB0515C5E91523A36994F84C50997D40
S31500005130DA7D42EA0121002D48D06269002A14BFB7
S31500005140022003205B7B002D4FEAC00503F1050317
S315000051508DF8035004EB03135A689E6812BA33BAEB
S315000051600392049314BF4FF000734FF080730192C3
S315000051700C22334302EBC0021BBA8A42029328BFB9
S315000051800A46236D9DF8001019709DF80110236DD5
S3150000519059709DF80210236D997001A9236DDD7079
S315000051A0042311F8015B206DC55401330C2BF8D193
S315000051B001232046A26284F83A30236DE36200237D
S315000051C084F83830FFF746FD08B070BD2846B9E7C9
S315000051D036A0020070B5002501260446856280F8D7
S315000051E03A60C56280F83850FFF734FDE3691A7BF0
S315000051F0022A0DD0A269127C02F01F02172A1DBFD7
S3150000520005221E73236A1D731EBF9A7024221A7309
S3150000521070BD30B5036A87B004460493836903F111
S315000052200F025B7B019201228DF81430002380F877
S315000052303A208362C36280F83830FFF70BFD63685B
S3150000524005461B681BB101AA0C2120469847284633
S3150000525007B030BD30B5036A87B00446049383694E
S3150000526003F10F025B7B019201228DF814300023BB
S3150000527080F83A208362C36280F83830FFF7EAFC90
S31500005280636805461B681BB101AA0D212046984795
S31500005290284607B030BD30B5036A87B0044604938C
S315000052A0836903F10F025B7B019201228DF81430B2
S315000052B0002380F83A208362C36280F83830FFF713
S315000052C0C9FCE36905461B7B022B06D063681B6895
S315000052D01BB101AA0E2120469847284607B030BDCB
S315000052E010B4C169002201248A600C730521036A87
S315000052F08262997020215A7319735DF8044BFFF787
S31500005300A9BC000010B50E4C0E4BD4F8002FC2F30A
S315000053100222134493F8F00002F06EFDD4F8003F29
S315000053200246DBB201339A42B0FBF3F006D2064BDB
S3150000533040F6C501054A06481FF012FD10BD00BF24
S315000053400000CC40C3B70200A8B002009CB7020020
S31500005350ADB0020010B5FFF7D5FF012203464FF4AA
S31500005360E1310620BDE8104006F09EBA984B9949F7
S315000053705A69084612F4003F2DE9F041964D2E4633
S315000053800ED0BFF34F8FBFF36F8F5A6922F40032EE
S315000053905A610022C3F85022BFF34F8FBFF36F8FBD
S315000053A08B4A5369DB0324D50023C2F88430BFF34C
S315000053B04F8F536923F480335361BFF34F8FD2F875
S315000053C0803043F6E07CC3F3C907C3F34E335B0179
S315000053D003EA0C083C4648EA847E013CC2F874E2C3
S315000053E0F9D2203B13F1200FF2D1BFF34F8FBFF359
S315000053F06F8FBFF35F8F764A536A23F4803353620D
S31500005400764B5A6822F001025A60BFF34F8FBFF302
S315000054106F8F1022724CDA60724A1A61724ADA6031
S31500005420724A1A61DC601A611322714CDA60714AA1
S315000054301A611422DA60704A1A61DC601A616F4AD6
S31500005440DA606F4A1A616F4ADA606F4A1A616F4A08
S31500005450DA606F4A1A616F4ADA606F4A1A6100228F
S3150000546025FA02F4012C0CD84AB36C4CB4FBF5F7C0
S3150000547005FB17453DB16A4BB1216A4A6A481FF0E0
S315000054806FFC0132ECE701259540B54203D0674B2E
S31500005490B221644AF2E7042A03D8654BB321614A74
S315000054A0ECE7013A24F01F04520044F01A0402F01B
S315000054B03E02DC6042F0427242F001021A615D4A2D
S315000054C05D4CDA605D4A1A615D4ADA605D4A1A61CE
S315000054D05D4ADA605D4A1A61DC601A61002221FACF
S315000054E002F4012C0AD82AB3594CB4FBF1F501FB9E
S315000054F0154129B1574BD5214A4ABFE70132EEE79C
S3150000550001219140814203D0534BD621454AB5E74C
S31500005510042A03D8464BD721424AAFE7013A44F062
S315000055201F045200DC6002F03E0242F0447242F078
S3150000553001021A61BFF35F8F05225A60244B5A6A33
S3150000554042F480325A62BFF34F8FBFF36F8F5A69AE
S3150000555012F4803223D1C3F88420BFF34F8FD3F8DF
S31500005560802043F6E074C2F3C900C2F34E32520102
S3150000557002EA0406014646EA81750139C3F860521B
S31500005580F9D2203A12F1200FF2D1BFF34F8F5A69A8
S3150000559042F480325A61BFF34F8FBFF36F8F0C4BCB
S315000055A05A6912F4003211D1BFF34F8FBFF36F8FD8
S315000055B0C3F85022BFF34F8FBFF36F8F5A6942F47F
S315000055C000325A61BFF34F8FBFF36F8FBDE8F08192
S315000055D000ED00E0002000000080000090ED00E0FB
S315000055E0120000603F001000110000803900100317
S315000055F0150000203B0010032300030316002020A3
S31500005600270003031700302025000303180000308D
S315000056102F0003061900008033000303000000205A
S31500005620E1B60200B3B70200F9B6020031B70200D4
S315000056304CB702001B0000401E0080412F001003E3
S315000056401C000041290010031D00404127001003E3
S3150000565000002C2053B7020077B70200C64A46F274
S315000056602063D158C9072DE9F0410BD40121D1504F
S31500005670BFF34F8FBFF36F8F02F5CC423032136802
S31500005680DB07FCD50A22BD4B052402251A6004213E
S3150000569043F8042C012043F8082C4FF00C0C43F877
S315000056A00C2C1527B64BB74E1C601D6443F8044CF2
S315000056B0DD63B54BDFF80CE31960C3F8F003002394
S315000056C0DFF804833360B14E37600327C6F840C065
S315000056D0A6F50B26A6F6EC763260C6F840C046F86C
S315000056E0200C376246F81C0CC6F894307762A84E38
S315000056F03060C6F8FC520E443060C6F8E4520E44E0
S315000057003060C6F8E4520E443060C6F8E4520E44E7
S315000057103060C6F8E4520E443060C6F8E4520E44D7
S315000057203060F83EC6F8FC00C6F80001C6F8040171
S31500005730C6F80801C6F80C01C6F8E4533560756072
S31500005740C6F8C403443E326072603266C6F844123C
S31500005750C6F84812C6F8A4521026CEF80060CEF855
S315000057607830CEF80460CEF874304FF0200EC8F8CA
S3150000577000E0C8F804E0DFF854E2CEF80030CEF8D6
S31500005780B4348E44CEF800300EF5107ECEF86C326E
S31500005790CEF80050CEF80450AEF5407ECEF800703C
S315000057A0CEF804700E27CEF84472CEF848720EF585
S315000057B08E7E784F3960A7F5BA77C7F87811C7F8A3
S315000057C0B833C7F8BC33243747F8243C47F8203CA5
S315000057D047F81C3C47F8183C47F8143C47F8103C7F
S315000057E047F80C3C47F8083C47F8043C3B607B60B4
S315000057F0BB60FB603B617B61BB61FB613B627B62C3
S31500005800BB62FB623B637B63BB63FB6340373B600E
S315000058107B60BB60FB603B617B61BB61FB613B62A4
S315000058207B62BB62FB623B637B63BE63C7F88C3003
S315000058301127CEF80070CEF80470CEF8A8030EF14A
S31500005840080ECEF80070CEF880038E44CEF80070B5
S31500005850CEF880038E44CEF80070CEF880038E44D6
S31500005860CEF800704C4F38604C484D4F0260A0F5A2
S315000058703D70C0F8F822C0F8FC22C0F80023C0F83A
S315000058800423C0F80823026040F8342C40F8202C8A
S315000058903C60444F39607960B960F960396179617B
S315000058A0B961F9613962796247F8041C47F8081C46
S315000058B040F8202CC0F88060C0F88460C0F888608A
S315000058C0C0F88C60C0F89060C0F894608267C0F839
S315000058D01421C0F810213448046034480260C0F82E
S315000058E0B420C0F8B8201222C0F8A420C0F8A8201E
S315000058F01322C0F8AC20C0F8B0202D4A11609032B7
S3150000590042F88CCC42F8881C42F8841C42F8801C71
S3150000591042F87C1C42F8983C5360136002F53A0248
S3150000592002F53C421560234A1360C2F8B4C0C2F8BF
S31500005930B8C0C2F8A430C2F8A830C2F8AC30C2F879
S31500005940B0301D4B1C6043F80C4C1C4B1C605C605B
S3150000595043F8684C43F8644C43F8D44C43F8D04CB5
S3150000596043F87C4C43F8804C154B1C60DC601C6192
S315000059705C61BDE8F08100BF0000CC40F8800E40BD
S315000059801840C94058830E4014810E400C40C9404F
S31500005990E4810E4084810E4060850E4010840E40E6
S315000059A02040C94044810E403040C94098810E4095
S315000059B0E0830E40DC830E402480C0408C810E4084
S315000059C01C80C0401080C0405080C0406C810E409A
S315000059D0FFF744BE73B50024064601A80D460194A0
S315000059E0FDF7D2FA074B1A68964206D101982B604A
S315000059F0FDF7DBFA204602B070BD0198FDF7D5FA37
S31500005A000420F8E72801002037B50024054601A840
S31500005A100194FDF7B9FA0A4B1A685AB19A7BAA4261
S31500005A2008D101989C73C3E90044FDF7BEFA2046ED
S31500005A3003B030BD0198FDF7B8FA0420F8E700BFBF
S31500005A402801002073B50024064601A80D460194DE
S31500005A50FDF79AFA084A13684BB1927BB24206D117
S31500005A6001982B60FDF7A1FA204602B070BD01989F
S31500005A70FDF79BFA0420F8E7280100202DE9F743FB
S31500005A800F46154622B90423184603B0BDE8F08335
S31500005A9001A9FFF79FFF0028F5D1044601264FF024
S31500005AA00C08DFF85890019BE0B25B681A7A8242D4
S31500005AB001D83346E8E71B6808FB003083681B798A
S31500005AC0012B15D0022B15D0032B15D0042B0DD18D
S31500005AD0032309EB03132A46394640689B68984717
S31500005AE005280346D0D0002808BF00260134DAE78F
S31500005AF00023EEE70123ECE70223EAE73CBA0200C3
S31500005B0073B50D4601A904461646FFF763FF88B92B
S31500005B10012D08D1019920460BF0C4FD019A0221FE
S31500005B202046FFF7ABFF019B3246294620465B68BD
S31500005B305B68984702B070BD2DE9F74F07460C46E3
S31500005B409046002A5DD000295BD04B68002B58D0C8
S31500005B50002301A80193FDF717FA2B4B01981E6845
S31500005B601D461EB39B7BBB4220D10124FDF71DFAC7
S31500005B70204603B0BDE8F08FDFF89490AF73C5F808
S31500005B800890FDF712FA6C60A9F110021F49384619
S31500005B9006F0BAF9044678B96B685FFA86F91B7A9B
S31500005BA04B4510D82B68C8F80030E1E7002EE3D04B
S31500005BB00224FDF7FAF9DBE7286806F084F938468F
S31500005BC0FFF722FFD4E70C23DFF848A04FF0000BC5
S31500005BD003FB09F96B68196849448B681A799AF8C6
S31500005BE00C309A4204D1DAF800300A1D384698473C
S31500005BF00BF1010B0AF1100ABBF1050FEAD10136D0
S31500005C00CAE70424B4E700BF28010020015B0000B6
S31500005C10380100203CBA020070B586B00B78012529
S31500005C2006468DF80C3002230C4602928DF80D3094
S31500005C3040F201130595ADF80E3001AB049302A9AD
S31500005C40304603F065FB58B96388A18805FA03F36B
S31500005C50019A39B1934314BF01230023002BEED1DF
S31500005C6006B070BD1342F6E770B51E4686B00B78D7
S31500005C7001250C4602A98DF80C30022302928DF8FC
S31500005C800D3040F209130595ADF80E3001AB0493C3
S31500005C9003F03EFB38B9A368019A1340E2689342C9
S31500005CA008BF0546357006B070BD7FB500238DF878
S31500005CB00C1002A9CDE9013303238DF80D304FF402
S31500005CC08673ADF80E3001AB04930123059303F000
S31500005CD01FFB07B05DF804FBF8B50D46064628B96C
S31500005CE0324B9121324A33481FF03AF819B9324BF8
S31500005CF092212F4AF7E704680422002128461FF064
S31500005D0089FB2E4B706804F13C07218E2860598070
