S00D0000696D6167652E7372656314
S3150000080000000420BD0C0000BF500100B9500100DB
S31500000810490D0000490D0000490D000000000000D0
S31500000820000000000000000000000000611B010045
S31500000830490D000000000000311C0100951C01005C
S31500000840610D0000650D0000690D00006D0D0000D2
S31500000850710D0000750D0000790D00007D0D000082
S31500000860810D0000850D0000890D00008D0D000032
S31500000870910D0000950D0000990D00009D0D0000E2
S31500000880A10D0000490D0000490D0000490D0000B2
S31500000890216A00002F6A00003D6A00004B6A0000D2
S315000008A0596A0000676A0000756A0000836A0000E2
S315000008B0C50D0000C90D0000CD0D0000D10D0000D2
S315000008C0D50D0000D90D0000DD0D0000E10D000082
S315000008D0E50D0000E90D0000ED0D0000F10D000032
S315000008E0F50D0000F90D0000FD0D0000010E0000E1
S315000008F0050E0000090E00000D0E0000110E00008E
S31500000900150E0000190E0000490D0000490D0000EB
S31500000910490D0000490D0000490D0000490D000079
S3150000092025B40100490D0000490D0000490D0000E5
S31500000930490D000039600100490D0000490D000015
S31500000940490D0000490D0000490D0000490D000049
S31500000950490D0000490D0000490D0000490D000039
S31500000960490D0000490D0000490D00001D0E000054
S31500000970210E0000250E0000290E00002D0E00009D
S31500000980310E0000350E0000390E0000490D000042
S31500000990490D0000490D0000490D0000490D0000F9
S315000009A0490D0000490D0000490D0000490D0000E9
S315000009B0490D00004D600100490D0000490D000081
S315000009C0490D00003D0E0000490D0000490D0000D4
S315000009D0490D0000490D0000F95F01000D6001009E
S315000009E0490D00001160010025600100490D00005D
S315000009F0490D0000490D0000410E0000450E0000A3
S31500000A00490D0000490D0000490D0000490D000088
S31500000A10490D0000490D0000DD500100ED73010095
S31500000A2005330000490D0000490D0000490D000086
S31500000A30490D0000490D0000490D0000490D000058
S31500000A40490D0000490D0000490E00004D0E000042
S31500000A50490D0000510E0000550E0000C5FB0100B7
S31500000A60FDA60100590E00005D0E0000610E00009B
S31500000A70650E0000690E00006D0E0000490D0000B5
S31500000A80490D0000490D0000490D0000490D000008
S31500000A90490D0000490D0000490D0000490D0000F8
S31500000AA0490D0000490D0000490D0000490D0000E8
S31500000AB0490D0000490D0000490D0000490D0000D8
S31500000AC0490D0000490D0000490D0000490D0000C8
S31500000AD0490D0000490D0000490D0000490D0000B8
S31500000AE0490D0000490D0000490D0000490D0000A8
S31500000AF0490D0000490D0000490D0000490D000098
S31500000B00490D0000490D0000490D0000490D000087
S31500000B10490D0000490D0000490D0000490D000077
S31500000B20490D0000490D0000490D0000490D000067
S31500000B30490D0000490D0000490D0000490D000057
S31500000B40490D0000490D0000490D0000490D000047
S31500000B50490D0000490D0000490D0000490D000037
S31500000B60710E0000750E0000790E00007D0E00006B
S31500000B70490D0000490D0000490D0000490D000017
S31500000B80490D0000490D0000810E0000850E000091
S31500000B90890E00008D0E0000490D0000490D000071
S31500000BA0910E0000950E0000A9500100A950010009
S31500000BB0A9500100A9500100A9500100A950010047
S31500000BC0A9500100A9500100A9500100A950010037
S31500000BD0A9500100A9500100A9500100A950010027
S31500000BE0A9500100A9500100A9500100A950010017
S31500000BF0A9500100A9500100A9500100FFFFFFFF05
S31500000C0010B5054C237833B9044B13B10448AFF340
S31500000C1000800123237010BD60B00020000000009A
S31500000C204848030008B5034B1BB103490348AFF31B
S31500000C30008008BD0000000064B0002048480300A2
S31500000C40A3F5803A704700BF174B002B08BF134B24
S31500000C509D46FFF7F5FF00218B460F461348144AC1
S31500000C60121A24F07FFB0E4B002B00D098470D4B39
S31500000C70002B00D098470020002104000D000D48ED
S31500000C80002802D00C48AFF3008024F0FDFA2000C3
S31500000C90290015F04DFF24F065F800BF000008009C
S31500000CA000000000000000000000042060AE0020EC
S31500000CB064840220000000000000000072B616489E
S31500000CC0164901600A6882F3088815488047154965
S31500000CD0154A164B9A42BEBF51F8040B42F8040B54
S31500000CE0F8E7134A134B9A42BEBF51F8040B42F879
S31500000CF0040BF8E7104B00209A42BCBF42F8040BE5
S31500000D00FAE70E490E4A00209142BCBF41F8040B97
S31500000D10FAE762B60B48804708ED00E000080000DD
S31500000D20A1340000944903000080002048AE002052
S31500000D3000000020000000207840002060AE002067
S31500000D4064840220490C000014F0AEB952480047F2
S31500000D505248004752480047524800475248004709
S31500000D6052480047524800475248004752480047F9
S31500000D7052480047524800475248004752480047E9
S31500000D8052480047524800475248004752480047D9
S31500000D9052480047524800475248004752480047C9
S31500000DA052480047524800475248004752480047B9
S31500000DB052480047524800475248004752480047A9
S31500000DC05248004752480047524800475248004799
S31500000DD05248004752480047524800475248004789
S31500000DE05248004752480047524800475248004779
S31500000DF05248004752480047524800475248004769
S31500000E005248004752480047524800475248004758
S31500000E105248004752480047524800475248004748
S31500000E205248004752480047524800475248004738
S31500000E305248004752480047524800475248004728
S31500000E405248004752480047524800475248004718
S31500000E505248004752480047524800475248004708
S31500000E6052480047524800475248004752480047F8
S31500000E7052480047524800475248004752480047E8
S31500000E8052480047524800475248004752480047D8
S31500000E905248004752480047BF500100B950010070
S31500000EA0611B0100311C0100951C01001187000027
S31500000EB04987000081870000B9870000F18700009C
S31500000EC0298800006188000099880000D188000008
S31500000ED0098900004189000079890000B189000074
S31500000EE0E9890000218A0000598A0000490D0000A6
S31500000EF019A3000039A3000059A3000079A300003C
S31500000F0099A30000B9A30000D9A30000F9A300002B
S31500000F1019A4000039A4000059A4000079A4000017
S31500000F20059E0000119E00001D9E0000299E0000E7
S31500000F30359E0000419E00006D9E0000A19E0000AF
S31500000F40D59E0000099F00003D9F0000719F000094
S31500000F50490D0000490D0000490D0000490D000033
S31500000F60490D0000490D0000490D0000490D000023
S31500000F70490D0000490D0000490D0000490D000013
S31500000F80490D0000490D0000490D0000490D000003
S31500000F90490D000019930000490D0000490D00009D
S31500000FA0490D0000ED8B0000018C0000298C00002B
S31500000FB03D8C0000158C0000518C0000490D00008E
S31500000FC0490D00002DA50000490D0000490D000047
S31500000FD0490D0000490D0000490D0000490D0000B3
S31500000FE0490D000081F0004102E000BF83F000439C
S31500000FF030B54FEA41044FEA430594EA050F08BFAE
S3150000100090EA020F1FBF54EA000C55EA020C7FEA71
S31500001010645C7FEA655C00F0E2804FEA5454D4EBEE
S315000010205555B8BF6D420CDD2C4480EA020281EAB8
S31500001030030382EA000083EA010180EA020281EAF0
S315000010400303362D88BF30BD11F0004F4FEA013142
S315000010504FF4801C4CEA113102D0404261EB410151
S3150000106013F0004F4FEA03334CEA133302D05242D7
S3150000107063EB430394EA050F00F0A780A4F1010493
S31500001080D5F1200E0DDB02FA0EFC22FA05F28018CD
S3150000109041F1000103FA0EF2801843FA05F35941B3
S315000010A00EE0A5F120050EF1200E012A03FA0EFC32
S315000010B028BF4CF0020C43FA05F3C01851EBE3715C
S315000010C001F0004507D54FF0000EDCF1000C7EEB79
S315000010D000006EEB0101B1F5801F1BD3B1F5001FB7
S315000010E00CD349085FEA30004FEA3C0C04F10104D6
S315000010F04FEA445212F5800F80F09A80BCF1004FFF
S3150000110008BF5FEA500C50F1000041EB045141EA80
S31500001110050130BD5FEA4C0C404141EB0101013C49
S3150000112028BFB1F5801FE9D291F0000F04BF014638
S315000011300020B1FA81F308BF2033A3F10B03B3F10A
S3150000114020020CDA0C3208DD02F1140CC2F10C029A
S3150000115001FA0CF021FA02F10CE002F11402D8BFF8
S31500001160C2F1200C01FA02F120FA0CFCDCBF41EAC4
S315000011700C019040E41AA2BF01EB0451294330BD93
S315000011806FEA04041F3C1CDA0C340EDC04F1140470
S31500001190C4F1200220FA04F001FA02F340EA030047
S315000011A021FA04F345EA030130BDC4F10C04C4F18D
S315000011B0200220FA02F001FA04F340EA030029466D
S315000011C030BD21FA04F0294630BD94F0000F83F4B7
S315000011D0801306BF81F480110134013D4EE77FEA9A
S315000011E0645C18BF7FEA655C29D094EA050F08BFE6
S315000011F090EA020F05D054EA000C04BF19461046C7
S3150000120030BD91EA030F1EBF0021002030BD5FEA0A
S31500001210545C05D14000494128BF41F0004130BD32
S3150000122014F580043CBF01F5801130BD01F0004586
S3150000123045F0FE4141F470014FF0000030BD7FEAF9
S31500001240645C1ABF194610467FEA655C1CBF0B46F4
S31500001250024650EA013406BF52EA033591EA030F0B
S3150000126041F4002130BD00BF90F0000F04BF002103
S31500001270704730B54FF4806404F132044FF0000536
S315000012804FF0000150E700BF90F0000F04BF0021AF
S31500001290704730B54FF4806404F1320410F0004515
S315000012A048BF40424FF000013EE700BF42004FEA10
S315000012B0E2014FEA31014FEA02701FBF12F07F438D
S315000012C093F07F4F81F06051704732F07F4208BF44
S315000012D0704793F07F4F04BF41F40021704730B54B
S315000012E04FF4607401F0004521F000411CE700BF97
S315000012F050EA010208BF704730B54FF000050AE01A
S3150000130050EA010208BF704730B511F0004502D51A
S31500001310404261EB41014FF4806404F132045FEA1C
S31500001320915C3FF4D8AE4FF003025FEADC0C18BFC5
S3150000133003325FEADC0C18BF033202EBDC02C2F1B7
S31500001340200300FA03FC20FA02F001FA03FE40EA49
S315000013500E0021FA02F11444BDE600BF53B94AB9A2
S31500001360002908BF00281CBF4FF0FF314FF0FF30A7
S3150000137000F0BCB9ADF1080C6DE904CE00F054F8EC
S31500001380DDF804E0DDE9022304B07047430803F00A
S315000013905533C01A830803F0333300F03330184452
S315000013A000EB101000F00F3000EB002000EB0040C7
S315000013B0000E704708B502460B4643EC172BB5EEF8
S315000013C0C07BF1EE10FA03D4BDE8084000F00CB87B
S315000013D0B1EE477B51EC170B00F006F8404261EB8B
S315000013E0410108BD000000009FED0B6B41EC170B9F
S315000013F09FED0B5B27EE066BBCEEC66BB8EE464B5D
S31500001400A4EE457BFCEEC77B16EE101A17EE900A8B
S31500001410704700BFAFF30080000000000000F03D01
S31500001420000000000000F0412DE9F047089D044649
S315000014308C46002B40F083808A42174647D9B2FA81
S3150000144082F242B1C2F1200024FA00F091409740A6
S3150000145040EA010C94404FEA1748230CBCFBF8F60F
S315000014601FFA87FE08FB16C143EA014306FB0EF18D
S31500001470994209D9FB1806F1FF3080F0198199428B
S3150000148040F21681023E3B445B1AA4B2B3FBF8F06D
S3150000149008FB103344EA034400FB0EFEA64509D9B7
S315000014A03C1900F1FF3380F00581A64540F2028128
S315000014B002383C4440EA0640A4EB0E0400261DB167
S315000014C0D4400023C5E900433146BDE8F08702B9A0
S315000014D0FFDEB2FA82F2002A50D1CB1B4FEA174E3A
S315000014E01FFA87F80126B3FBFEFC210C0EFB1C330A
S315000014F041EA034108FB0CF38B4207D979180CF13A
S31500001500FF3002D28B4200F2E9808446C91AA3B2A8
S31500001510B1FBFEF00EFB101143EA014408FB00F894
S31500001520A04507D93C1900F1FF3302D2A04500F2CD
S31500001530D9801846A4EB080440EA0C40BFE78B426A
S3150000154009D9002D00F0B1800026C5E9000130461A
S315000015503146BDE8F087B3FA83F6002E4AD18B42B6
S3150000156002D3824200F2B880841A61EB03010120A3
S315000015708C46002DA8D0C5E9004CA5E7C2F1200392
S3150000158020FA03F6974001FA02F04FEA174ED940C7
S315000015903043030CB1FBFEF61FFA87F80EFB16115B
S315000015A043EA014306FB08F1994204FA02F409D919
S315000015B0FB1806F1FF3C80F08D80994240F28A804C
S315000015C0023E3B445B1A81B2B3FBFEF00EFB1033C6
S315000015D041EA034100FB08F38B4207D9791800F171
S315000015E0FF3C73D28B4271D902383944CB1A40EA98
S315000015F0064678E7C6F1200C03FA06F422FA0CF345
S315000016001C4320FA0CF701FA06F34FEA144E21FAAE
S315000016100CF11F433B0CB1FBFEF91FFA84F80EFBDD
S31500001620191143EA014109FB08FA8A4502FA06F252
S3150000163000FA06F308D9611809F1FF3048D28A4545
S3150000164046D9A9F102092144A1EB0A01BFB2B1FBB7
S31500001650FEF00EFB101147EA014700FB08F8B845FB
S3150000166007D9E71900F1FF312ED2B8452CD9023837
S31500001670274440EA0940A7EB0807A0FB02894F452B
S31500001680C64649461AD317D05DB1B3EB0E0267EBD7
S31500001690010707FA0CFCF2404CEA0202F740C5E9E2
S315000016A0002700263146BDE8F0872E4628460BE780
S315000016B00646E9E61846FDE64345E5D2B8EB020ED6
S315000016C069EB04010138DFE70846D2E760468DE79B
S315000016D08146B9E7664675E730464AE7ACF1020C43
S315000016E0394413E702383C4424E700BF704700BF83
S315000016F001F0FF01102A2BDB10F0070F08D010F8BD
S31500001700013B013A8B422DD010F0070F42B3F6D1C0
S31500001710F0B441EA012141EA014122F007047FF0D9
S3150000172000070023F0E80256083C85EA010586EA30
S31500001730010685FA47F5A3FA87F586FA47F6A5FA6C
S3150000174087F68EB9EED1F0BC01F0FF0102F0070278
S3150000175032B110F8013B013A83EA010313B1F8D123
S315000017600020704701387047002D06BF3546033804
S31500001770073815F0010F07D1013015F4807F02BF3D
S31500001780013015F4C03F0130F0BC0138704700BF8E
S3150000179010F8012B11F8013B012A28BF9A42F7D015
S315000017A0D01A7047034613F8012B002AFBD1181AEA
S315000017B0013870470022C0E900228260704700228B
S315000017C0C0E90022826070470022C0E900228260E0
S315000017D070470120704703681B6A184703685B6AF5
S315000017E0184710B504460B6811689847204610BD87
S315000017F0012A03D0022A03D0002070470160FBE7CC
S315000018000B680360F8E7022A06D0032A02D0012AF1
S3150000181000D10160002070470B680360FAE72029B9
S31500001820F0B510D0046F0023242500F118069C4261
S3150000183009D005FB03F2B7588F4202D10432104497
S31500001840F0BD0133F3E70020FAE770477047F8B5BB
S3150000185005460F46064600242B6FA34210D9B369EE
S31500001860202B02D001342436F6E73946F069FFF71B
S315000018708FFF0028F6D1242000FB04500430F8BD69
S315000018800020FCE710B504468C2122F02CFB2046F4
S3150000189010BDD0F88420032A38B50CD800F17404A2
S315000018A000239A420BD014F8015B8D4205D11E33FA
S315000018B050F8230038BD23F0F3F90133F1E7002097
S315000018C0F8E7006812F0C6B810B50446006808B11B
S315000018D022F007FB204610BD2DE9F843571A0646AD
S315000018E088469146002F4FEA671502DA104822F023
S315000018F0D2FC1DB1384622F009FB0546EB194FF024
S31500001900000E3560B36008EB0E04A1450BD005EB65
S315000019100E0C0EF1200E0FCCACE80F0094E80F0071
S315000019208CE80F00EFE73D447560BDE8F88300BF23
S3150000193010A0020070B5541A06460D46002C02DAB5
S31500001940094822F0A8FC204601D022F0DFFA044420
S31500001950013D3060B460844204D015F8013F00F8C0
S31500001960013BF8E7746070BD10A00200836810B5F3
S31500001970044613B1032201469847204610BD10B510
S31500001980044600F59060FFF7F1FF204610BD000009
S31500001990F8B5304E3578BFF35B8F15F0010557D19A
S315000019A0304622F0A4FA002852D02B4B2B4C1A6852
S315000019B0A71D2560C4F806209A8853F8060F628191
S315000019C004F10C025968257184F8285003C29868FE
S315000019D0012304F10C01106002222377304684F8BB
S315000019E0403084F84C3004F1380384F82C206365C9
S315000019F004F1500384F85020A3654FF481732576D3
S31500001A00A4F85C30164BC4E90C1540F20221A16320
S31500001A1004F11801E1630A21C4E91835616404F18F
S31500001A20580304F12801C4E90875A164A366C4F843
S31500001A308854C4F89C54C4F8E055C4F8E455C4F876
S31500001A40E85522F060FA074A2046074922F044FA90
S31500001A500248F8BD24C00020749F020028C0002060
S31500001A60D9250000008000207F190000042A2DE9F6
S31500001A70F0470546ADF5127D0E4614465ED0DFF8FA
S31500001A80DC90DFF8DCA0DFF8DC8014F001F850AA67
S31500001A90294621F0EBFC002850DD9DF848312E2B1D
S31500001AA0F3D00027A74204DA4846013724F0BAFAF1
S31500001AB0F8E752AF5046394624F0B4FA9DF8403163
S31500001AC0022B36D11F4824F0ADFA33461E4AFF21B9
S31500001AD010A8009724F06CFB13F0DAFF10AA03A9F4
S31500001AE021F04AFC00280BDAFFF752FF174B184A81
S31500001AF0184900934FF48C7313F0D8FB11F062FD74
S31500001B00621C10A903A8FFF7B1FF13F0C1FF03A9D8
S31500001B1021F094FC0028B8DAFFF73AFF0E4B0C4A86
S31500001B200C4900934FF48D7313F0C0FB11F04AFD7E
S31500001B30ABE75199404624F075FAA6E70DF5127DFC
S31500001B40BDE8F08743A0020047A0020079A002008A
S31500001B504DA0020060A00200A4A0020041A0020065
S31500001B6091A50200C7A0020070B50D4E3378BFF3F1
S31500001B705B8F13F0010410D1304622F0B8F960B142
S31500001B80084D3046084B85F8544F2B6022F0BBF9C0
S31500001B90064A2846064922F09FF9024870BD00BF52
S31500001BA0C8B00020CCB000205C01030000800020FB
S31500001BB04D18000000F1080373B504460D46036096
S31500001BC0E1B10846FFF7EEFD0F2805EB0006019090
S31500001BD007D9002201A9204622F070FB019B206054
S31500001BE0A36032462946206822F0C9FB019B226881
S31500001BF0002120466360D15402B070BD014822F036
S31500001C0047FB00BFCFA0020010B50446006808B12C
S31500001C1022F067F9204610BD70B50D1E044602DAA3
S31500001C200B4822F038FB4FF00003C0E90033836015
S31500001C30284601D022F06AF946192060A6601DB137
S31500001C402A46002123F08EFB2046666070BD00BF49
S31500001C5010A0020010B50446006808B122F041F950
S31500001C60204610BD2DE9F04F95B00D4600211E46C9
S31500001C70DDF878901446804632F002FE20220021DC
S31500001C80074604A823F06EFBD9F800B0FFF76CFFF7
S31500001C9019F00EFCFFF768FF0323089404ACCDF897
S31500001CA028B08246CDE9063501230CAD8DF82C30DF
S31500001CB00FCC0FC594E80F0085E80F00002314AA87
S31500001CC00CA901A80393CDE90133FFF705FE01A98D
S31500001CD050461AF05DF80546019808B122F001F960
S31500001CE025B90025284615B0BDE8F08F07B17F68F5
S31500001CF03846D9E90012521A23F00CFB404632F05E
S31500001D00EBFD04460028ECD10CA801229FED0A0A3F
S31500001D10414632F0D1FD0C9B306833600D9B7360F9
S31500001D200E9B0E94B360CDE90C4408B122F0D9F8AD
S31500001D300CA8FFF78FFFD5E79A99193F2DE9F047D1
S31500001D400446A2B0474824F06DF9236800211CAD73
S31500001D50D3F80880404632F093FD83680020D3E92B
S31500001D60027619F065FB1FAA06FB07F900FB09F1CD
S31500001D702846FFF751FF00233A4631462193404655
S31500001D800095CDE91F331FABFFF76CFF0346002814
S31500001D9060D0DFF800A1DFF80091DFF80081DDE90F
S31500001DA01F32934243D093ED047A20462E4AB7EE73
S31500001DB0C77A1C9918922D4A8DED1A7B93ED027AFB
S31500001DC01492B7EEC77A2A4A8DED167B93ED057A03
S31500001DD01092B7EEC77A274A8DED127B93ED037A00
S31500001DE00C92B7EEC77A244A8DED0E7B93ED017AFD
S31500001DF00892B7EEC77A8DED0A7B1A681F4B0792D9
S31500001E0004911F4ACDE905A31D9B5B1A1D49CDE927
S31500001E100293CDE90087334617F0BAF81FA8FFF7FB
S31500001E2019FF2846FFF7F0FE22B0BDE8F0871648F6
S31500001E3024F0F8F81C9A1D9B204614499B1ACDE9FC
S31500001E40042ACDE902930E4A3346CDE9008717F0FE
S31500001E509FF8E3E70E4A4FF0FF31204617F05AF895
S31500001E60DCE700BFF9A002006CA1020071A102002C
S31500001E7076A102007BA1020080A10200DCF802002C
S31500001E8017A102001DA10200A3A10200B3A1020036
S31500001E90D6A1020086A1020090A102009CA1020028
S31500001EA00A6802604A6842608A6882600022C1E964
S31500001EB001220A6002220276704708B543680A2B9F
S31500001EC008D90B3B00681844FFF762FCB0FA80F0B3
S31500001ED0400908BD0020FCE7F0B58BB0054601A817
S31500001EE032F026FD2B68062128461B6A98470746CE
S31500001EF040B1D5F8880018B106221B4932F010FD12
S31500001F0001202FE0D5F870C0BCF1020F09D9D5F831
S31500001F1088000028F4D003230622144932F000FD7D
S31500001F20EEE74FF0240E01AC0EFB0C5E0FCC0EF16B
S31500001F3004060FC60FCC0FC6236806223846336048
S31500001F400CF10103CEF818202B67D5F88430E91878
S31500001F5081F8742003F11E020549013345F8221069
S31500001F60C5F884300BB0F0BDFAA1020049A2020008
S31500001F7099DD2420036F022B2DE9F04105468846A2
S31500001F8014460BD9D0F8880010B90120BDE8F081BD
S31500001F900A460323114932F0C3FCF6E703685B6A7D
S31500001FA09847064640B1D5F888000028EDD042464D
S31500001FB00B4932F0B5FCE8E72F6F24207B1C00FBB1
S31500001FC007572B673D1D0FCC0FC50FCC0FC52368D8
S31500001FD030462B602023C7E90638D7E78CA20200DB
S31500001FE0CEA2020070B505460C464CB1E168284603
S31500001FF0FFF7F8FFA668204621F073FF3446F4E7A2
S3150000200070BD10B50446806B30B18368013B8360B8
S3150000201013B90368DB68984704F108002169FFF7E4
S31500002020E1FF204610BD00002DE9F74FD0E9009AE8
S315000020300E461146AAEB0903354A8046DC10354B9D
S315000020406343934202D1344822F025F9012B1C4602
S31500002050A6EB090538BF0124E41857D254B19442BF
S3150000206028BF144618200091604321F04FFF0099C5
S31500002070074600E027467819CB4622F00DFB384686
S315000020805E4500F118031DD1EB08244D18266B435D
S3150000209023F0604306FB039203FB066607EB060B81
S315000020A016465B46564519D03146184601920093AE
S315000020B022F0A6F93046183622F022F9009B019A42
S315000020C01833EFE75946009322F09AF9584622F062
S315000020D017F9009B0BF1180B1846D1E7B61AF6084C
S315000020E06E43182526F0604605FB06B6B9F1000FCB
S315000020F002D0484621F0F5FE182000FB0474C8E91A
S315000021000076C8F8084003B0BDE8F08F1446A9E78A
S3150000211055555505ABAAAAAA1AA30200ABAAAA0A44
S315000021202DE9F0430F46ADF5217D0546A84823F07D
S3150000213079FF0BAA39461EA8FFF73CFDA5491EA844
S31500002140FFF7BBFE044698B911AA39465EA8FFF709
S3150000215031FD5F980E2808D95E9B0F389E491844BA
S31500002160FFF716FBB0FA80F464095EA822F0C8F8FF
S315000021701EA822F0C5F88CB1984823F053FF1EAA7A
S3150000218097495EA8FFF716FD5EA9284622F038F9A2
S3150000219001232B765EA822F0B3F8F1E01EAA394699
S315000021A05EA8FFF707FD8F495EA8FFF786FE064685
S315000021B05EA822F0A5F8002E00F0E7808A48049475
S315000021C0CDE9024423F02EFF13F062FC874A1EA9D4
S315000021D021F0D2F80028C0F28380854C854823F090
S315000021E021FF13F055FC5EAA1EA921F03FF9002835
S315000021F020DD9DF87831012BF3D10BAA60A911A837
S31500002200FFF7D8FC1199204623F00CFFDDE9030304
S31500002210984209D011A922F03FFA039B1833039381
S3150000222011A822F06DF8DCE7014611AA02A8FFF713
S31500002230FBFEF5E713F02CFC1EA921F0FFF86E4813
S3150000224023F0F0FE4FF000086C486D4C23F0EAFED8
S315000022506C4E11AA6C4F05A86C49FFF7ABFCDDE983
S3150000226002239B1ADB10634343453BD90DAB4FF06A
S3150000227018090BA809FB08290B9300230C938DF86A
S315000022803430D9F80410013122F0FCF8012231462D
S315000022900BA822F0B3F949460BA822F0A5F931465E
S315000022A00BA822F0BBF9014611A822F0A9F811A942
S315000022B005A822F09FF911A822F022F80BA822F017
S315000022C01FF8DDE902239B1ADB106343013B9845A7
S315000022D003D2394605A822F0B7F908F10108BEE78E
S315000022E04B48ADE74B4905A822F0AEF905994A4897
S315000022F0002623F097FE0BA80D96DDE90512CDE921
S315000023000B660A44FFF716FB13ABDDE90B47119387
S315000023103B1B0F2B019307D9324601A911A821F0C7
S31500002320CDFF019B11901393119A23469F4204D02F
S3150000233013F8011B02F8011BF8E7019B0021119A13
S315000023401293D1541199354823F06CFE0BA92846F7
S31500002350FFF7A6FD11A821F0D3FF0BA8FFF754FC49
S3150000236005A821F0CDFFDDE90246A64204D02046AD
S31500002370183421F0C5FFF8E7029808B121F0B1FD45
S3150000238028460DF5217DBDE8F0830522244938460F
S3150000239023F0F9FF1EAA3946002843D15EA8FFF7AD
S315000023A009FC1EA95E982094CDE91E4413F068FC32
S315000023B038B11EA92846FFF773FD1EA8FFF724FCB7
S315000023C0E8E61C222146284622F0CCFF2C76F4E7CC
S315000023D034A3020058A3020064A3020074A30200FF
S315000023E07DAE020094A30200A0A30200C1A30200D6
S315000023F0ECA30200C6A3020003A402003DA402004F
S31500002400ABAAAAAABEF702005DA402005BA4020062
S315000024101CA402007CBC020060A4020074A402009A
S3150000242091A402005EA8FFF7C5FB5F98112808D9A2
S315000024305E9B123848491844FFF7AAF9B0FA80F6AD
S3150000244076095EA821F05CFF002E7BD0434823F07E
S31500002450E9FD5EAA424905A8FFF7ACFB5EAA414921
S315000024600BA8FFF7A7FB13F013FB3F4A11A920F0B7
S3150000247083FF002853DB3D4E3D4C3E4823F0D2FD02
S3150000248013F006FB5EAA11A920F0F0FF00282EDD4E
S315000024909DF87831012BF3D160AB32464FF4807151
S315000024A01EA823F085FE13F0F3FA1EA920F036FDD0
S315000024B01EA918B9204623F0B5FDE1E72E4823F002
S315000024C0B1FD002302A80493DDE90B12CDE9023326
S315000024D00A44FFF72FFA02A92846FFF7E1FC02A8F3
S315000024E0FFF792FB0BA821F00BFF05A853E613F0AC
S315000024F0CFFA11A920F0A2FF204823F093FD002374
S315000025001EA82093DDE90512CDE91E330A44FFF724
S3150000251011FA1EA92846FFF7C3FC1EA8E0E71848D3
S3150000252023F080FD00235EA86093DDE90B12CDE960
S315000025305E330A44FFF7FEF95EA92846FFF7B0FCB2
S315000025405EA8CDE70F4823F06DFD1C2231462846D4
S3150000255022F008FF2E7613E797A40200AAA4020031
S31500002560CEA402001BA50200C1A302008CA5020096
S3150000257094A5020065A50200A7A50200C2A5020057
S31500002580F3A5020013A6020070B58B681646044632
S315000025900D1D012253B118691D463268904287BF4E
S315000025A098680122D86800220346F3E792B1CA6808
S315000025B0AA4203D1C4E90035204670BD284621F061
S315000025C022FD336802699A424FF00003F2D3C4E950
S315000025D00003F1E72846F4E72DE9F04F92464B4A0F
S315000025E08146141D95689046A3462DED028B08EE94
S315000025F0101A85B045B12A694A453ABFEA682546A8
S31500002600AA682C461546F5E75C4502D02269914535
S3150000261030D2182021F07AFC00225C450746426140
S3150000262000F11002C0F810902FD1D8F8141021B183
S31500002630D8F810603169494509D3344902A8FFF733
S31500002640A3FFDDE90246002E5BD0002C57D15E4584
S3150000265055D03869336998422CBF002001202C4B95
S315000026603246394621F0D1FCD8F814300133C8F887
S3150000267014303C46524618EE101A606905B0BDEC9F
S31500002680028BBDE8F04F16F039BE216901928945EB
S3150000269019D2D8F80C108C4209D0204621F0B3FC90
S315000026A00169019A494505D2C16851B904462646D1
S315000026B00C46C8E7154902A8FFF766FFDDE90214D4
S315000026C0F5E72146F3E71CD9D8F81060B4420BD0E1
S315000026D0204621F072FC01690546019A494505D953
S315000026E0E36853B926461D462C46ACE7074902A8BF
S315000026F0FFF74AFFDDE90256F6E70646F4E7012052
S31500002700ADE73846274621F0ECFBB2E7240D012061
S31500002710280D012013B50B4602466C46D0E9000190
S3150000272084E8030093E8030082E8030094E80300CA
S3150000273083E8030002B010BD2DE9F843074688463A
S315000027401646154604464FF0000944451AD0294658
S315000027502046C5F808901035FFF7DCFFA36855F84A
S31500002760082C2046103444F8082C45F8083C55F847
S31500002770042C54F8043C44F8042C45F8043CFFF7B8
S31500002780F5F8E2E7E01B3044BDE8F88380B542483F
S31500002790ADF5747D23F046FC0121002013F0B4FF53
S315000027A000230DA93D480F93CDE90D3313F068FAC8
S315000027B0044630B939493A4823F034FC204611F032
S315000027C0EBFA384C2378BFF35B8FDB070ED4204639
S315000027D021F08DFB50B1344819F082FF204621F0DC
S315000027E092FB324A3249304821F076FB02222E49CA
S315000027F00BA81AF0A1FF0B9C2CB92E4823F012FC53
S31500002800204611F0C9FA0AAD2B4B002462A82B60B2
S315000028102A4B7E946293CDE98344FFF75DFB32F049
S315000028206FF82749024662A8FFF7A4FB1BF03EFAA1
S315000028302449024662A8FFF79DFB0D994FF4000359
S3150000284062AA0868009301441F4B85A80195CDE94B
S31500002850024432F025F885A832F006F828B11B4864
S3150000286023F0E0FB204611F097FA859B1A689A1A26
S315000028701188082940F2AF8212899918002A00F0BF
S31500002880AA829A588B188A5842BB114B40F2011102
S31500002890104A114822F00CFA2AA6020046AE02009F
S315000028A046A602007CB0002080B0002000800020F8
S315000028B00320000061A602007C2A252078AB0200D6
S315000028C088A6020034AE020000000081A5A6020020
S315000028D0C7A60200D2A60200CCA70200191D5B689B
S315000028E0CA18CB58D31A1988062940F27482DB8895
S315000028F0D118002B00F06F82D358CB58012B05D08E
S31500002900A44823F08FFB002011F046FAFFF72CF9BC
S31500002910012119F0B9FCA04CFFF726F9052119F0A1
S315000029209BFC9E4823F07EFB85A9002016F0D4FB75
S315000029309B4B22682C202360DA6021F0E7FA994944
S3150000294000220461016000F11801C2600276C0E94C
S315000029500122C0E90721C0E9091214F043FE92489A
S3150000296023F060FB914823F05DFB914813F0F2F8E9
S3150000297088B9904823F056FB13F08AF88C4920F06A
S3150000298043FC10F1110F40F0C8808B4823F04AFB3E
S315000029908A4823F047FB22AB20A8209300232193EB
S315000029A08DF8883014F08EFD18B12099844823F0F4
S315000029B039FB844B00241020DFF838921C93824B9D
S315000029C01F94B293814BB593814BCDE91D44B493CB
S315000029D021F09CFA054601468460B2A8FFF79AFEEC
S315000029E0AA68B49B2146B4922046EA68AB60B59BC0
S315000029F0B5922A46EB60FFF79FFE214600F11002D2
S31500002A002046FFF799FECDE91D501035B2A81F9557
S31500002A10FEF7ACFF1CA814F0E5FD0121172013F00A
S31500002A20A1FA2146172013F055FA21461D2013F06E
S31500002A3099FA11F02FFC674BB2AA0321B593664BA6
S31500002A40B2901D20B49313F0CBFBB2A8FEF78EFF15
S31500002A5000200DF1400811F09FF9604823F0E2FADA
S31500002A60002185A831F00CFF83680020D3E90265B8
S31500002A7018F0DEFCB2AA05FB06F700FB07F140469C
S31500002A80FFF7CAF813AB3246294685A8CDF8008071
S31500002A901594CDE91344FFF7E5F8002800F0978177
S31500002AA0B2AA4F4926A8DFF850A1FFF783F8DDE95F
S31500002AB01357AF4236D095ED047A50462E68B7EEDE
S31500002AC0C77A59F8262031468DED087B95ED057AB3
S31500002AD0B7EEC77A8DED067B95ED027AB7EEC77A2B
S31500002AE08DED047B95ED037AB7EEC77A8DED027B0B
S31500002AF095ED017AB7EEC77A8DED007B23F092FA59
S31500002B00279B1BB1374926A821F09EFD59F82610B0
S31500002B1026A8183521F098FDCBE700287FF438AFBA
S31500002B20314836E7DDE913329A420CD12F4823F0BB
S31500002B3079FA26A821F0E4FB13A8FFF78BF84046A4
S31500002B40FFF762F884E7269B6421294A49A823F007
S31500002B502FFB002512F09CFF154A34A920F00CFC2F
S31500002B60002850DB12F094FFB2AA34A920F07EFCB4
S31500002B70002843DD9DF8C832012BF3D12CAA49A9C0
S31500002B80B4A823F069FB0128ECD12C9B9D42B8BF69
S31500002B901D46E7E712A80200180D012041A8020011
S31500002BA02480002094F7020064A802007EA8020098
S31500002BB0C1A30200A6A80200DDA80200EEA802003A
S31500002BC03CA9020008F6020021210000E3170000DC
S31500002BD0F1170000C31800000718000053A90200EF
S31500002BE042A0020087EA020013A90200B0A902006F
S31500002BF0C6A902003480002069A9020012F048FF2D
S31500002C0034A920F01BFC0135269B744A642149A88F
S31500002C10009523F0CDFA12F03BFFB2AA49A920F0A5
S31500002C2001FA002880F2CF806D4834AD23F0FAF91E
S31500002C30002018F0FDFB6B492A462F46414316A893
S31500002C40FEF7EAFF202200212CA822F08BFB169E1D
S31500002C50FEF78AFF18F02CFCFEF786FF4FF4A273EE
S31500002C6032962CAE82461B94CDE92F3301238DF884
S31500002C70CC300FCE0FC796E80F0087E80F003CAAAE
S31500002C80294619A8CDE91944FEF726FE19A950468A
S31500002C9019F07EF80646199808B121F022F9FEB916
S31500002CA0514823F0BFF91B96CDE9196616A8FEF721
S31500002CB0ABFFDDE91976B7422AD14C4823F0B2F9C9
S31500002CC019A8FEF7A1FF0121172013F003F942F21C
S31500002CD0107010F097FD0021172013F0FBF828E77D
S31500002CE04FF4A2721698AC604B231146C5E9004416
S31500002CF0009515F049F92B6828462C6019936B68E6
S31500002D001A93AB68C5E901441B93FEF77DFFCDE737
S31500002D1012F0BEFE4FF4817349AA294620F0A4F9A9
S31500002D2000280EDBF61B12F0B3FE3A462946334660
S31500002D3020F018FA864206D012F0AAFE294620F0A4
S31500002D40C1F92B48BAE712F0A3FE294620F0BAF9DA
S31500002D500028F6DB274823F065F919A8FEF754FF8B
S31500002D6012F096FE244A34A920F006FB00280BDA5E
S31500002D70FEF70EFE214B224A2249009340F223130E
S31500002D8012F094FA10F01EFC1F4823F04BF90022B3
S31500002D901E4934A8FEF76AFE1D4823F043F912F0D7
S31500002DA077FE34A920F04AFB00288CDAFEF7F0FD06
S31500002DB0184B134A1349009340F2271312F076FA80
S31500002DC010F000FC7FE7144823F02CF9C8E71348FD
S31500002DD023F028F9B0E600231B68FFDED1A9020024
S31500002DE0E0A90200109A01001FAA020041AA0200EF
S31500002DF07BAA02005FAA020029F80200CCAA020000
S31500002E004DA0020060A00200F1AA020042A002004A
S31500002E1008AB020028AB020097AA020049AB0200E9
S31500002E2008B5FFF7B3FC10B5044640F6587121F01B
S31500002E305AF8204610BD0000F0B51C4E89B01C4D56
S31500002E40012106F108006C4613F0D4FF05F10800D5
S31500002E50002108AF13F0CEFF96E80F0084E80F00BC
S31500002E6095E80F0008AD05E90F00124D002320205C
S31500002E70AB60C5E9003321F049F800F120060346AE
S31500002E802860AE602246083303CABA4243F8080CEB
S31500002E9043F8041C1446F5D1074A084905486E60F4
S31500002EA009B0BDE8F04021F017B800BF048000204B
S31500002EB01480002020C6002000800020C9180000D1
S31500002EC013B5019012F002F8044618B1019A0021D8
S31500002ED022F048FA204602B010BD11F0F9BFEFF318
S31500002EE005835BB1EFF311834FF0200282F3118863
S31500002EF0BFF36F8FBFF34F8F036070470EF042BE74
S31500002F00EFF3058313B180F3118870470EF068BEA6
S31500002F1010B5044630B9084B40F2ED11074A08488F
S31500002F2021F0C6FE04200FF0A9FA10B1206000209F
S31500002F3010BD43F2DD70FBE7F6AE020042AF0200C1
S31500002F40A1AE020008B530B90B4B40F20A210B4A7C
S31500002F500B4821F0ADFE4B1C00681EBF4FF47A7380
S31500002F605943B1FBF3F10FF06BFD002843F2DE701D
S31500002F7018BF002008BD00BFF6AE020052AF020027
S31500002F80A1AE020008B530B9074B40F22A21074A24
S31500002F90074821F08DFE00680FF046FA002843F23C
S31500002FA0DD7018BF002008BDF6AE020060AF02005B
S31500002FB0A1AE020008B530B9054B4FF41071054AB1
S31500002FC0054821F075FE00680FF0B0FD002008BD31
S31500002FD0F6AE020070AF0200A1AE020038B50D4693
S31500002FE0044630B9084B4FF41471084A084821F0DA
S31500002FF05FFE0EF0C5FB206010B10020257138BDC4
S3150000300043F2DD70FBE700BF0AAF020081AF0200AA
S31500003010A1AE020037B50025019530B9144B40F238
S315000030206A21144A144821F043FE0068E8B1EFF320
S315000030300584B4B101AA0EF0EDFC012804D00F4BB3
S315000030404FF41E710B4AEDE7019840B10C4B4FF05F
S3150000305080521A60BFF34F8FBFF36F8F284603B0BD
S3150000306030BD0EF04DFC2046F9E743F2DD70F6E781
S315000030700AAF020091AF0200A1AE02001EAF02002D
S3150000308004ED00E073B5069D30B9114B40F2E12125
S31500003090104A114821F00CFE066821F07F449EB1CB
S315000030A001793046009313460A1E214618BF0122B5
S315000030B00EF074FB204005B12860002843F2DE7054
S315000030C018BF002002B070BD43F2DD70FAE700BF02
S315000030D00AAF02009EAF0200A1AE020008B530B9E9
S315000030E0074B40F21731074A074821F0E1FD006817
S315000030F018B10EF061FC002008BD43F2DD70FBE75D
S315000031000AAF0200ACAF0200A1AE020010B5044641
S315000031100846114634B9084B40F22D31074A084893
S3150000312021F0C6FD00220FF00DF810B1206000203E
S3150000313010BD43F2DD70FBE72FAF0200BDAF02000A
S31500003140A1AE020013B530B9144B40F24931144A0E
S31500003150144821F0ADFD002400680194EFF30583C7
S315000031609BB1234601AA0FF09BF9012812D1019BBE
S3150000317013B9002002B010BD0B4B4FF080521A60FD
S31500003180BFF34F8FBFF36F8FF3E71A460FF05AF86E
S315000031900128EED043F2DD70ECE700BF2FAF02004E
S315000031A0CCAF0200A1AE020004ED00E008B530B9D4
S315000031B00B4B40F271310B4A0B4821F079FD531C41
S315000031C000681EBF4FF47A735A43B2FBF3F20FF056
S315000031D089FA012843F2DE7008BF002008BD00BF4F
S315000031E02FAF0200D8AF0200A1AE020008B530B979
S315000031F0054B40F2A131054A054821F059FD00680A
S315000032000FF094FC002008BD2FAF0200E4AF0200CF
S31500003210A1AE020007B5186C01A99A630FF0D8F9A0
S31500003220019B3BB1054B4FF080521A60BFF34F8FA5
S31500003230BFF36F8F03B05DF804FB00BF04ED00E041
S315000032402DE9F0410D4616461F46044630B329B314
S315000032504422002122F086F804200FF00FF9E063E3
S3150000326048B10322002101200EF06CFF206420B932
S31500003270E06B0FF05BFC01200EE0A0463A463146BB
S31500003280284648F8045B06F045FB28462346044AD0
S31500003290414606F0C5FB0020BDE8F0810420FBE7AF
S315000032A0153200004FF0FF31C06B0FF0C9BBC06B89
S315000032B00FF0BAB837B504460191FFF7F3FF0128BE
S315000032C013D1019A211D206806F0E6FB054628B1B8
S315000032D02046FFF7ECFF284603B030BD4FF0FF3124
S315000032E0206C0FF0BFFAA56BF2E74FF46175F2E7B9
S315000032F00123024A1370024A9360704730C60020C9
S3150000330000000F40FFF7F4BF2DE9F8432C4B1C6873
S31500003310844228BF044604B32A4E2B4D3368DFF897
S31500003320B49023F00103D9F8008033602B6823F0B2
S3150000333001032B6072B6BFF34F8FBFF36F8F10F090
S3150000334087FF224F58B9AB686B602B6843F00103C7
S315000033502B603B68013B6B6062B6BDE8F883013CBD
S3150000336008FB04F33361336843F001033360BFF3B2
S315000033704F8F30BFBFF36F8F154B00221A7062B6A6
S3150000338000BF1978B1B11A700E4A0F4D136823F0B9
S31500003390010313600EF0F6FB2B68204643F0010391
S315000033A02B6010F011FC3B68013B6B60BDE8F843F5
S315000033B00EF016BC746AD9F80000B4FBF0F4E3E72B
S315000033C038C6002000000F4010E000E034C60020A0
S315000033D030C600202CC600200C4B64221A60022244
S315000033E00B4B1A606FF000420A4B1A600A4B4FF003
S315000033F08072DA60002243F8F02C43F8E82C63224E
S3150000340043F8EC2C032243F8F02C704734C6002016
S315000034102CC6002038C6002000E100E00B1E10DD9F
S3150000342000F01F011944BFF34F8F064A0144C2F84A
S315000034305C0220300B1A002BF9DCBFF34F8FBFF371
S315000034406F8F704700ED00E00B1E10DD00F01F01CE
S315000034501944BFF34F8F064A0144C2F86802203070
S315000034600B1A002BF9DCBFF34F8FBFF36F8F70473A
S3150000347000ED00E00B1E10DD00F01F011944BFF344
S315000034804F8F064A0144C2F8700220300B1A002BF7
S31500003490F9DCBFF34F8FBFF36F8F704700ED00E08D
S315000034A03C4A08B5D2F8883043F47003C2F8883035
S315000034B0394A1388580705D5138823F004031B04DB
S315000034C01B0C1380354A1388590705D5138823F03A
S315000034D004031B041B0C1380314B1A6892044CD551
S315000034E0304A5A604FF6FF729A601A6822F0A002BC
S315000034F042F020021A602C4B1A68900443D5294AE0
S315000035005A604FF6FF729A601A6822F0A00242F0E3
S3150000351020021A60254B1A68D10703D51A6822F0D3
S3150000352001021A601B4B5A69920315D45A6912F4A8
S31500003530003211D1BFF34F8FBFF36F8FC3F8502204
S31500003540BFF34F8FBFF36F8F5A6942F400325A614F
S31500003550BFF34F8FBFF36F8F154A136F23F40053DA
S3150000356013670C4A536943F010035361BFF34F8F3F
S31500003570BFF36F8F00F04AF808BD4CF220525A6034
S315000035804DF62812ADE74CF220525A604DF628123D
S31500003590B6E700BF00ED00E0000003400040034036
S315000035A00080034020C528D90000C14010E000E09B
S315000035B000400E4010B5C4010E4A04F1814402EBEE
S315000035C0C00004F598042368C3F30223C05C04F02A
S315000035D0BBFB23680246DBB201339A42B0FBF3F031
S315000035E006D2054B40F6C501044A054821F060FBAA
S315000035F010BD00BF7CB00200F4AF020065B002004F
S31500003600F9AF020000487047FCC6002008B511F06B
S31500003610C1FC08BD10B592B00420FFF7CBFF142201
S315000036200446002101A821F09DFE3022002106A8B3
S3150000363021F098FE01A807F045FB012301A91948CE
S315000036408DF8043007F066FB04234FF0004216495C
S315000036508DF818304FF480331248CDE9072303F173
S315000036600133124A03F102230993114BB2FBF4F220
S31500003670CDE90A131E2300218DF83030A0235343D1
S3150000368006AA0D9341F68463CDE90F3340F2012378
S31500003690ADF84430234607F0FBFBB0FA80F0400952
S315000036A012B010BD00400D401212780F00CA9A3BAE
S315000036B02A2A463C7FB5684603F086FC074B6946D6
S315000036C007480093074B0193074B0293074B03935D
S315000036D003F0C0FD07B05DF804FB00BF3CC6002048
S315000036E0000044406CC600209CC60020CCC60020CA
S315000036F010B5E4B04FF49E72002115AC204621F0BF
S3150000370031FE1420FFF756FF4FF4003330212060BE
S31500003710A3600223009402A8E38140F203332382CC
S315000037200C23E3744FF40063C4E909334023E362D6
S315000037302023C4E90D13074C019405F0BDFB02A933
S31500003740204605F0FFFA0449684602F06FFA64B0B5
S3150000375010BD00BF00C00C40FCC6002038B50446B2
S3150000376011F028FC02F0DEF800F056FB01F0A8FD8F
S315000037700CB101F099FDFFF74DFF10B90B4822F08F
S3150000378051FC0B4D0B4C0C480C4A641B0C49121A8D
S3150000379021F0C0FD22460021284621F0E3FDFFF777
S315000037A089FFBDE83840FFF7A3BF00BF47B002005E
S315000037B000000081406886810000008100000081D1
S315000037C0DC7703004B78C0018A781B02013A03F4C8
S315000037D0E063D2B213430A78002A0CBF00224FF0EE
S315000037E080721343034A1350BFF34F8FBFF36F8F9B
S315000037F0704700BF0000CC402DE9F743EC4C002396
S315000038002046ADF804308DF8063004F0D9FEE94BB9
S31500003810E94AD3F800199142224640F0D882D3F8FB
S315000038201039DBB20B2B40F0D282636923F00053D0
S315000038306361636823F4F85343F4B0536360A36889
S31500003840002BFCDADB4BDD4ED3F87038DB48DA06AA
S31500003850C3F300114ABF00220122114606F022FFDF
S315000038600121304606F09CFE0121304606F0DEFEC0
S31500003870022004F00FFAD6F8C03043F00203C6F86F
S31500003880C03004F0EBFA336D43F00203336533695D
S3150000389043F002033361336943F080733361336A63
S315000038A043F010033362336A5B00FCD50024012524
S315000038B001A9022720468DF805408DF80650FFF72E
S315000038C081FF01A908208DF805404FF006088DF804
S315000038D00650FFF777FFBA484FF0180903F0B6FE17
S315000038E0B84804F07DF9B84803F026FF21461B22AC
S315000038F0022003F0B3FF13222946022003F0AEFF95
S3150000390002211822084603F0A9FF202203210220E3
S3150000391003F0A4FF04F04EF821460D22032003F025
S315000039209DFF11222946032003F098FF2022022141
S31500003930032003F093FF03211622084603F08EFFAF
S31500003940D6F81032A14823F00803C6F81032042630
S3150000395004F0C4F82946052004F07CF804F01AF9AE
S3150000396020460DEB06018DF805608DF80650FFF731
S3150000397029FF0DEB060138468DF805608DF80670B7
S31500003980FFF720FF03230DEB060130468DF8058077
S315000039908DF80630FFF716FF0DEB060105208DF8B2
S315000039A005408DF80650FFF70DFF07230DEB0601C6
S315000039B040468DF806608DF80530FFF703FFF023CB
S315000039C00DEB060108208DF805408DF80630FFF74F
S315000039D0F9FE0DEB06010E208DF805408DF8065018
S315000039E0FFF7F0FE0DEB06010F208DF805408DF870
S315000039F00690FFF7E7FE0DEB060110208DF8054057
S31500003A008DF80690FFF7DEFE0DEB060111208DF80E
S31500003A1005408DF80650FFF7D5FE0DEB0601122086
S31500003A208DF805408DF80650FFF7CCFE0DEB06012C
S31500003A3013208DF805408DF80650FFF7C3FE0DEBF9
S31500003A40060119208DF805408DF80650FFF7BAFEDD
S31500003A500DEB06011A208DF805408DF80650FFF78C
S31500003A60B1FE0DEB06011B208DF805408DF80650C2
S31500003A70FFF7A8FE0DEB06011C208DF805408DF81A
S31500003A800650FFF79FFE0DEB06011D208DF8054041
S31500003A908DF80650FFF796FE0DEB06011E208DF8F9
S31500003AA005408DF80650FFF78DFE0DEB06011F2031
S31500003AB08DF805408DF80650FFF784FE0DEB0601E4
S31500003AC020208DF805408DF80650FFF77BFE0DEBA4
S31500003AD0060121208DF805408DF80650FFF772FE8D
S31500003AE00DEB060122208DF805408DF80650FFF7F4
S31500003AF069FE0DEB060123208DF805408DF8065072
S31500003B00FFF760FE0DEB060124208DF805408DF8C9
S31500003B100650FFF757FE0DEB060125208DF80540F0
S31500003B208DF80650FFF74EFE0DEB060126208DF8A8
S31500003B3005408DF80650FFF745FE0DEB06012720E0
S31500003B408DF805408DF80650FFF73CFE0DEB06019B
S31500003B5028208DF805408DF80650FFF733FE0DEB53
S31500003B60060129208DF805408DF80650FFF72AFE3C
S31500003B700DEB06012A208DF805408DF80650FFF75B
S31500003B8021FE0DEB06012B208DF805408DF8065021
S31500003B90FFF718FE0DEB06012C208DF805408DF879
S31500003BA00650FFF70FFE0DEB06012D2010E000BFBB
S31500003BB00080CA4000C0CA406959AC570040C8409E
S31500003BC00CB30200A0B50200ACB5020014B30200AB
S31500003BD08DF805408DF80650FFF7F4FD0DEB060154
S31500003BE02E208DF805408DF80650FFF7EBFD0DEB06
S31500003BF006012F208DF805408DF80650FFF7E2FDEF
S31500003C000DEB060130208DF805408DF80650FFF7C4
S31500003C10D9FD0DEB060134208DF805608DF80660A0
S31500003C20FFF7D0FD0DEB060135208DF805408DF828
S31500003C300650FFF7C7FD0DEB060136208DF805404F
S31500003C408DF80650FFF7BEFD0DEB060137208DF807
S31500003C5005408DF80650FFF7B5FD0DEB060138203F
S31500003C608DF805408DF80650FFF7ACFD0DEB06010B
S31500003C7039208DF805408DF80650FFF7A3FD0DEBB2
S31500003C8006013A208DF805408DF80650FFF79AFD9B
S31500003C900DEB06013D208DF805408DF80650FFF727
S31500003CA091FD0DEB06013E208DF805808DF806701E
S31500003CB0FFF788FD0DEB060140208DF805408DF8D5
S31500003CC00650FFF77FFD0DEB060141208DF80540FC
S31500003CD08DF80650FFF776FD0DEB060142208DF8B4
S31500003CE005408DF80650FFF76DFD0DEB06014320EC
S31500003CF08DF805408DF80650FFF764FD0DEB0601C3
S31500003D004C208DF805408DF80650FFF75BFD3A4BC9
S31500003D103A4C1A6822F007021A601A6822F0380232
S31500003D2042EA09021A601A6822F0C0021A605A684A
S31500003D3022F003025A609A6822F003029A60DA6857
S31500003D4022F49F6222F00702DA601A6922F0020268
S31500003D501A615A6922F0050232435A615A6922F001
S31500003D6002025A619A6922F002029A619A6922F065
S31500003D7001029A619A6D22F001029A65DA6D22F0CB
S31500003D800102DA651A6E22F001021A665A6E22F0F4
S31500003D9001025A669A6E22F001029A66DA6E22F0E3
S31500003DA00102DA662368164AC3F30223D05C03F0E5
S31500003DB0CBFF2368DBB22B449842B0FBF3F215D25B
S31500003DC0104B40F6C501104A104820F071FF5369A8
S31500003DD023F000535361536823F4F85343F4A85374
S31500003DE053600B4A9368002BFCDA2BE5094B1A60EB
S31500003DF003B0BDE8F08300BF00400E400000CC4099
S31500003E0028B30200F4AF0200F4B20200F9AF0200D8
S31500003E100080CA409C810020FFF7EEBC104642B1EC
S31500003E2000231373536833B11B6823B10A4602217A
S31500003E3018470320704701207047104642B10023FF
S31500003E405373536833B11B6823B10A4601211847DF
S31500003E5003207047012070472DE9F043044687B0E0
S31500003E6018B9012007B0BDE8F083837B002BF8D09A
S31500003E704268926851799942F3D303F1005312686C
S31500003E800C2740F6024C013B02EBC30612F83350F6
S31500003E9000239D42E5D907FB03F270688118825A18
S31500003EA062453BD10D7A00239D422DD80026CB7862
S31500003EB02374002ED5D000250120DFF870802F4610
S31500003EC0DFF86C90A6603379AB42CBD90623B26893
S31500003ED08DF808706B43D118D25C8DF80620D20994
S31500003EE04B88ADF804304B788DF8073018D0022B8C
S31500003EF002D12773CDF80C9003AA01A920680135D9
S31500003F00049408F031F8DEE71A01486800EB03165E
S31500003F10805CE27B9042CAD00133C5E70133B8E743
S31500003F20022B04BF6773CDF80C80E5E73B3E00002B
S31500003F301D3E0000836870B5044693B1002501203C
S31500003F400626A3681A79954202D30023A36070BDA2
S31500003F509A6806FB05F320680135D15C08F023F862
S31500003F60EFE70120F3E7000070B50A4C0E46154650
S31500003F7023685BB9214601F00FFD30B923683BB1D8
S31500003F804FF47F436660E3812C6070BD0220FCE73E
S31500003F900320FAE70000002010B5044630B1FFF711
S31500003FA0C9FF0023C4E90033E38110BD0320FCE709
S31500003FB07FB504461546002A60D000285ED0CBB2F5
S31500003FC0013B032B54D8DFE803F01E020640002312
S31500003FD08373012414E04368002BFAD02A78837B8C
S31500003FE09A42F6D0FFF7A6FF2B782046A37300234C
S31500003FF0E373FFF731FF044610B1214807F020FDB7
S31500004000204604B070BD2B68227C197998889142AD
S31500004010DFD12E1DADF808005888009605F1080678
S31500004020ADF80A00287B01968DF80C005B78222BF0
S3150000403007D163686A460B2120461B6898470446E9
S31500004040DEE7104807F0FCFCC3E74368002BC0D04E
S315000040502D88037CB3EB152FBBD1EDB2C37BAB42EE
S31500004060B7D0FFF767FF2046E573FFF7F5FEE6E7F3
S315000040700A460548054907F0E3FCAAE70324BFE71B
S31500004080B8B50200D2B5020004B6020017B60200A7
S3150000409038B5044648B1057B4DB901202073206828
S315000040A007F04EFF00B1257338BD0320FCE7022060
S315000040B0FAE738B5044648B1457B4DB9012060732F
S315000040C0206807F043FF00B1657338BD0320FCE7A5
S315000040D00220FAE72DE9F04390F8943087B00446C1
S315000040E01BB9012007B0BDE8F08342689268517998
S315000040F09942F6D31268002AF3D003F100530C2735
S31500004100013B02EBC30612F8335000239D42E8D967
S3150000411007FB03F270688118825C082A2CD10D7A9D
S3150000412000239D421DD80027CB7884F89530002FB8
S31500004130D7D000260120DFF88C803546DFF888903E
S31500004140A7603B79B34219D80123E560C4F88450CF
S31500004150C4F8883084F88C5084F88F5084F89650D0
S31500004160C0E71A01486800EB0317805C94F89320B7
S315000041709042D9D00133D4E70133C7E70623B968A3
S315000041808DF8085073430136CA1810798DF8090066
S31500004190CB5C20688DF806305188ADF8041001A973
S315000041A0527804948DF80720DA0903AA15BF84F81B
S315000041B0913084F89230CDF80C90CDF80C8007F051
S315000041C0D3FEBEE7D94700001D460000836870B5E0
S315000041D0044693B1002501200626A3681A79954264
S315000041E002D30023A36070BD9A6806FB05F320681E
S315000041F00135D15C07F0D7FEEFE70120F3E70000B9
S31500004200F8B5214C0F4616462568002D3AD104F123
S3150000421098032146A36104F1B803E36104F1C803DE
S31500004220236204F1DC03E36304F1E403236404F191
S31500004230F003236501F0B0FB30B184F8945084F8A4
S315000042409350C4E90055F8BD236833B9606084F81B
S31500004250940084F893000320F5E7FF23702284F886
S31500004260940084F89330236A606167601A700A22AA
S315000042709870DA711873587384F88D0084F88E007C
S315000042803460E0E70220DEE71400002010B50446A3
S3150000429048B1FFF79BFF0023C4E9003384F894304C
S315000042A084F8933010BD0320FCE7F0B504468FB0C8
S315000042B01646002A00F06F81002800F06C81C9B212
S315000042C00139052900F26B81DFE811F0340106009F
S315000042D0430067008C00BC00002301AA052180F87A
S315000042E0943043681B689847019B0546002B00F0F5
S315000042F05481013B01AE4FF0010C04F1440E84F8E9
S315000043009030B3681BB373680BB3331D0EEB0C17F9
S315000043100FCB87E80F0094F890205FFA8CF39A424F
S3150000432005D30CF1010C1036BCF1040FE9D1226A59
S31500004330702313700A23D37100239370137353737E
S3150000434084F88D3084F88E3028460FB0F0BD0125F4
S31500004350E1E74368002B00F0228190F89430127850
S315000043609A4200F005810BB1FFF730FF3378204603
S3150000437084F89430002384F89330FFF7ABFE0546AB
S315000043800028E1D11F23A26994F89210206807F053
S31500004390DDFD012384F88D30D6E74368002B00F05D
S315000043A0FE80168890F89530B3EB162F40F0F78014
S315000043B0F6B290F89330B34200F0DA80FFF706FFCA
S315000043C02046FFF787FE054648B91F23A26994F8E1
S315000043D09210206807F0BAFD012384F88D3084F826
S315000043E09360B1E74368002B00F0D9808368002B07
S315000043F000F0D58090F886307BB9117890F891203E
S315000044000120914207D184F8860084F88E30206816
S31500004410317807F0FFFD054600E0012594F8873066
S31500004420002B91D1317894F8922091428CD10122BF
S3150000443084F88D30206884F88720317807F0EAFD0B
S31500004440054681E74368002B00F0A9808368002BAE
S3150000445000F0A58090F88950012D3FF475AF90F8D3
S315000044608650012D40D1127890F891309A4209D1A8
S31500004470002380F8863080F88E300068317807F0A7
S31500004480DAFD054694F88730012B0ED1327894F880
S3150000449092309A4209D10023206884F8873084F844
S315000044A08D30317807F0C7FD054694F88F30023B12
S315000044B0012B29D894F88A30012B17D1B4F886300D
S315000044C0002B7FF441AF94F88D202068012A94F8E0
S315000044D0921084F88A3025D184F88D3007F03AFDA1
S315000044E0002384F88F302FE70125CBE794F88E3030
S315000044F02068012B94F891100CD184F8963007F0BF
S3150000450029FD002384F88F3094F88A30012B7FF43C
S315000045101BAFD3E70D23E26907F012FD012384F8F0
S315000045208E30EEE71F23A26907F010FD012384F801
S315000045308D30D5E713681A7802F01F05012D2ED1AC
S3150000454090F89500197988427FF4FEAE5978FE29D5
S3150000455003D0FF290ED00525F6E659880029FAD1A1
S31500004560DB88012BF7D11206F5D59034C6E9014553
S315000045700025E9E659880029EDD1DB88002BEAD130
S315000045801306E8D440F20112A4F8885084F88A5041
S31500004590A4F88620ECE70325D6E60425D4E6012513
S315000045A0D2E630B5036985B00025044600938369D9
S315000045B002955A7BC36800EB02118DF80C20B3F507
S315000045C0803F6A46C96D28BF4FF480338B4294BF43
S315000045D001930191042143681B689847A3692269E6
S315000045E05B7B94F8911004EB03135B6D9A4206D241
S315000045F02068DDE9013207F0A3FC05B030BD0123D8
S31500004600206884F88B5084F88630022384F885501D
S3150000461084F88F3007F0FEFC2846EEE77FB54B683E
S3150000462014460E465A1C2CD194F88530A3B1636803
S315000046301D688DB1A269D37B03F07F03282B0BD1B4
S315000046400023096820460291012101930093537BC0
S315000046506A468DF80C30A84794F89650012D03D081
S315000046600125284604B070BD0023E26994F8911034
S3150000467084F896300D23206807F062FCA4F88E506B
S31500004680EFE7E26894F88B5093429CBFD21AE2603F
S31500004690012D0CD1002394F89110206884F88B30FA
S315000046A084F8865084F8853007F0B4FCD9E794F88E
S315000046B08520BAB90D2BD3D10B681968264B9942C0
S315000046C0CED1012584F88E201F23A26994F892107A
S315000046D0206884F8885007F039FC84F88D50C0E7CC
S315000046E001252AE062681568002DB9D00193336868
S315000046F0029323690093A3695A7B8DF80C20DB7B18
S3150000470003F07F03282B03D16A4601212046A847E0
S31500004710E368002BE4D0A36920465A7B736804EB58
S315000047200212926DB3FBF2F2236913442361FFF781
S3150000473038FFE3680546002B93D10023E26994F81D
S31500004740911084F885300123206884F88E300D237B
S3150000475007F0F6FB85E700BF5553425330B50369B2
S3150000476085B0002504460093836902955A7BC36889
S3150000477000EB02118DF80C20B3F5803F6A46096EF6
S3150000478028BF4FF480338B4294BF019301910321DC
S3150000479043681B689847A36922695B7B94F892106B
S315000047A004EB03135B6D9A4206D22068DDE9013201
S315000047B007F0CCFB05B030BD0123206884F88C508F
S315000047C084F88730022384F8845084F88F3007F009
S315000047D021FC2846EEE700007FB514464A680E46DF
S315000047E0531C2CD194F88430A3B163681D688DB135
S315000047F0A269D37B03F07F032A2B0BD10023096820
S3150000480020460291022101930093537B6A468DF85C
S315000048100C30A84794F88D50002D40F0AB81B4F8C9
S3150000482086304BB91F23A26994F89210206807F0CE
S315000048308DFB012384F88D30284604B070BDE368F3
S315000048409A429CBF9B1AE360A369DB7B03F0BF031C
S31500004850152B06D163681B681BB100220B2120466D
S31500004860984794F88C30012B0CD1002594F89210BF
S31500004870206884F8873084F88450A4F88C5007F0B8
S31500004880C9FBD9E794F88450002D37D0736801939B
S315000048903368029323690093A3695A7B8DF80C2031
S315000048A062681568CDB1DB7B03F07F032A2B03D149
S315000048B06A4602212046A847E5688DB1A3692046CD
S315000048C05A7B736804EB0212926DB3FBF2F2236912
S315000048D013442361FFF742FF0546E368002BABD183
S315000048E0002384F884300D23E26994F8911020683F
S315000048F007F026FB012384F88E309DE794F8883074
S31500004900002B00F01E8173681F2B40F01A81A369EB
S31500004910994A1968914240F014815E7B16F0F00FB7
S3150000492040F00F81997B11F0E00240F00A8194F883
S3150000493090000130864280F0048101390F2900F28F
S315000049400081E1698D4884F88D20E260086058682E
S315000049508A60486084F8882093F90C009E680028D5
S31500004960197B02DB321E18BF0122002884F884203E
S3150000497008DA3EB1012094F8862084F8850022B139
S31500004980054659E7002284F88520DB7B032B04D0FB
S31500004990226A0020907010735073CA092F2B66622A
S315000049A084F8392050D8112B0CD8032B00F09480B2
S315000049B0042B00F09D80002B00F09280204600F032
S315000049C039FC57E0123B1D2BF8D801A252F823F010
S315000049D06F4A0000BD490000BD490000014B0000C0
S315000049E0BD490000BD490000BD490000BD490000A9
S315000049F0574A0000214B0000BD490000114B000042
S31500004A00E94A0000BD490000BD490000BD4900005B
S31500004A10BD490000094B0000BD490000F94A0000ED
S31500004A20BD490000BD490000D14A0000BD49000053
S31500004A30674A0000BD490000BD490000BD490000AD
S31500004A40BD490000194B00009E2B55D007D8552BA9
S31500004A5056D05A2BB2D1204600F054FA0AE0A82BC1
S31500004A6036D0AA2BAAD1204600F0FCF902E0204657
S31500004A7000F0AFF9236A05469B7843B1E3691A7BD8
S31500004A802AB9A269D27B032A1CBF01221A73052DFB
S31500004A900ED194F88430012B46D194F887200AB9B8
S31500004AA084F88C30002384F88430022384F88F3015
S31500004AB094F88430002B7FF4BFAE94F88530002B39
S31500004AC07FF4BAAE94F88B30002B7FF4B5AE0AE7CC
S31500004AD0204600F0A2F9CDE7204600F059F9C9E7D3
S31500004AE0204600F0E4F9C5E7204600F03CFBC1E7AC
S31500004AF0204600F019FBBDE7204600F053FAB9E75F
S31500004B00204600F023FAB5E7204600F093FAB1E715
S31500004B10204600F049FBADE7204600F0E9F9A9E799
S31500004B20204600F062FBA5E794F88530012BBCD146
S31500004B3094F886200AB984F88B30002384F88530EF
S31500004B40B3E794F89210206807F064FA94F891108D
S31500004B50206807F05FFA002384F88D30012384F87B
S31500004B608F3040F20113A4F886304FF48073A4F816
S31500004B70883061E600255FE655534243555342535C
S31500004B8030B484690129647B00EB0414A56D546874
S31500004B90126804FB05F40261C46002D130BCFFF761
S31500004BA000BD30BCFFF7DABDD0E9093270B5044666
S31500004BB04BB9C1698B6012B910460A7370BD0222E7
S31500004BC018460A73FAE790F8391000296ED0C569BD
S31500004BD042B9AB60134694F89110E26A206807F078
S31500004BE0AFF90FE090F83A10002954D0934290F8AC
S31500004BF0381013D99B1A0129AB60EBD100F13002B2
S31500004C00FFF7BEFFE36908B918735CE001221A7367
S31500004C100322236A9A7011221A7354E04FF000029D
S31500004C20AA6010D1012907D100F13002FFF7A8FFD1
S31500004C30E36940BB1873C1E7C26A90F89110006837
S31500004C4007F07EF9F4E7012916D18269527B00EB61
S31500004C500212966DB3FBF6F206FB1233426300F1C5
S31500004C603002AB60FFF78CFFE36960B994F8382037
S31500004C70012ADFD102220CE0C26A90F89110006886
S31500004C8007F05EF9F0E701221A730322236A9A708D
S31500004C9011221A7392E7C26AAB600B4690F8911024
S31500004CA0006807F04DF9E3690222B5E76AB990F8A2
S31500004CB09210006807F0AEF9636AE2699360012317
S31500004CC0137384F88730052078E790F83A1059B1C5
S31500004CD090F89210006807F09DF9E369626A9A609D
S31500004CE002221A730123ECE79342C56990F83860F3
S31500004CF019D99B1A012EAB600DD100F13002FFF7D6
S31500004D003FFFE36900283FF47FAF01221A730322B5
S31500004D10236A9A7080E7134690F89210C26A006878
S31500004D2007F014F9EDE7A96016D1012E0DD100F1B7
S31500004D303002FFF725FFE36900283FF47BAF01222D
S31500004D401A73236A03229A70A3E7C26A90F8921034
S31500004D50006807F0FBF8EEE7012E12D18269527B5C
S31500004D6000EB0212966DB3FBF6F206FB12334263BA
S31500004D7000F13002AB60FFF703FF0028E1D1E369E1
S31500004D8074E7C26A90F89210006807F0DFF8F4E75B
S31500004D9010B5036A86B004460493836903F10F02D3
S31500004DA05B7B8DF81430436801921B6813B101AA2E
S31500004DB00F21984712232046A362012384F83A3034
S31500004DC0236AE362002384F83830FFF7EDFE06B06D
S31500004DD010BD10B5036A86B004460493836903F1D7
S31500004DE00F025B7B8DF814304368019200221B682A
S31500004DF0CDE9022213B101AA08219847029B204659
S31500004E00A362012384F83A30039BE362002384F80B
S31500004E103830FFF7C9FE06B010BD826910B4D37BE7
S31500004E20D2F81110282B09BA15D1D38A5BBA9BB2D6
S31500004E30012480F83A40527B00EB0212926D80F812
S31500004E4038405A435DF8044B82620022C0E90C13D5
S31500004E50C262FFF7A9BEA82B0ABFD2F815300023FD
S31500004E601BBAE5E7826910B4D37B0024D2F811108F
S31500004E702A2B09BA14D1D38A5BBA9BB280F83A407E
S31500004E80527B00EB0212926D5A43C0E90A240122BA
S31500004E9080F838205DF8044BC0E90C13FFF784BE98
S31500004EA0AA2B0ABFD2F8153023461BBAE6E730B55F
S31500004EB0036A87B004460493836903F10F025B7BA0
S31500004EC0019201228DF81430002380F83A20836283
S31500004ED0C36280F83830FFF767FE636805461B68D3
S31500004EE01BB101AA072120469847284607B030BDC6
S31500004EF000220121826280F83A10C26280F83820CE
S31500004F00FFF752BE10B5036A86B004460493836960
S31500004F1003F10F025B7B8DF8143043680192002287
S31500004F201B68CDE9022213B101AA09219847029B09
S31500004F302046A362012384F83A30039BE3620023F0
S31500004F4084F83830FFF730FE06B010BD10B5036A9E
S31500004F5086B004460493836903F10F025B7B8DF8E8
S31500004F6014304368019200221B68CDE9022213B176
S31500004F7001AA0A219847029B2046039AA3620023AE
S31500004F80E26284F83A3084F83830FFF70DFEA36900
S31500004F901B7CDB0704D5236A05229A7024221A7328
S31500004FA006B010BD836930B585B05D7B002304462D
S31500004FB08DF80C50CDE9013343681B6813B101AA83
S31500004FC01021984794F89030AB423FBF236A0522E0
S31500004FD000259A70029931B1019B13B304EB0515B4
S31500004FE0C5E915310821A069437BC07B0533252817
S31500004FF004EB03135A68A16202F1FF3212BA12D10E
S31500005000E16B0A609B681BBA4B6001232046E16294
S3150000501084F83A30002384F83830FFF7C5FD05B030
S3150000502030BD1946DFE7216C4A609B681BBA8B606E
S31500005030EBE7000070B53B4B044688B01868A369DF
S3150000504000905D7B0023CDE9053363688DF81C5025
S315000050501B681BB105AA11212046984794F8903089
S31500005060AB423FBF236A052200259A70069B2BB1EF
S31500005070059A1AB104EB0515C5E91523A36994F839
S315000050804C50997DDA7D42EA0121002D48D06269B3
S31500005090002A14BF022003205B7B002D4FEAC005C7
S315000050A003F105038DF8035004EB03135A689E6859
S315000050B012BA33BA0392049314BF4FF000734FF041
S315000050C0807301920C22334302EBC0021BBA8A4260
S315000050D0029328BF0A46236D9DF8001019709DF8AB
S315000050E00110236D59709DF80210236D997001A966
S315000050F0236DDD70042311F8015B206DC554013367
S315000051000C2BF8D101232046A26284F83A30236D95
S31500005110E362002384F83830FFF746FD08B070BD1F
S315000051202846B9E7869F020070B500250126044689
S31500005130856280F83A60C56280F83850FFF734FD22
S31500005140E3691A7B022A0DD0A269127C02F01F02C3
S31500005150172A1DBF05221E73236A1D731EBF9A7070
S3150000516024221A7370BD30B5036A87B004460493CF
S31500005170836903F10F025B7B019201228DF81430E3
S31500005180002380F83A208362C36280F83830FFF744
S315000051900BFD636805461B681BB101AA0C2120465E
S315000051A09847284607B030BD30B5036A87B0044635
S315000051B00493836903F10F025B7B019201228DF850
S315000051C01430002380F83A208362C36280F83830B6
S315000051D0FFF7EAFC636805461B681BB101AA0D21AF
S315000051E020469847284607B030BD30B5036A87B0D9
S315000051F004460493836903F10F025B7B019201224B
S315000052008DF81430002380F83A208362C36280F858
S315000052103830FFF7C9FCE36905461B7B022B06D035
S3150000522063681B681BB101AA0E21204698472846D1
S3150000523007B030BD10B4C169002201248A600C7326
S315000052400521036A8262997020215A7319735DF8E9
S31500005250044BFFF7A9BC000010B50E4C0E4BD4F85A
S31500005260002FC2F30222134493F8F00002F06CFD03
S31500005270D4F8003F0246DBB201339A42B0FBF3F0AA
S3150000528006D2064B40F6C501054A06481FF010FD3A
S3150000529010BD00BF0000CC400FB70200F4AF020003
S315000052A0E8B60200F9AF020010B5FFF7D5FF0122FC
S315000052B003464FF4E1310620BDE8104006F09CBAE3
S315000052C0984B99495A69084612F4003F2DE9F04176
S315000052D0964D2E460ED0BFF34F8FBFF36F8F5A6990
S315000052E022F400325A610022C3F85022BFF34F8FD6
S315000052F0BFF36F8F8B4A5369DB0324D50023C2F8B3
S315000053008430BFF34F8F536923F480335361BFF367
S315000053104F8FD2F8803043F6E07CC3F3C907C3F35E
S315000053204E335B0103EA0C083C4648EA847E013CA6
S31500005330C2F874E2F9D2203B13F1200FF2D1BFF389
S315000053404F8FBFF36F8FBFF35F8F764A536A23F495
S3150000535080335362764B5A6822F001025A60BFF3DB
S315000053604F8FBFF36F8F1022724CDA60724A1A6148
S31500005370724ADA60724A1A61DC601A611322714C51
S31500005380DA60714A1A611422DA60704A1A61DC60C6
S315000053901A616F4ADA606F4A1A616F4ADA606F4AB9
S315000053A01A616F4ADA606F4A1A616F4ADA606F4AA9
S315000053B01A61002225FA02F4012C0CD84AB36C4C6F
S315000053C0B4FBF5F705FB17453DB16A4BB1216A4AB7
S315000053D06A481FF06DFC0132ECE701259540B542A5
S315000053E003D0674BB221644AF2E7042A03D8654B1F
S315000053F0B321614AECE7013A24F01F04520044F05D
S315000054001A0402F03E02DC6042F0427242F00102EF
S315000054101A615D4A5D4CDA605D4A1A615D4ADA607E
S315000054205D4A1A615D4ADA605D4A1A61DC601A619A
S31500005430002221FA02F4012C0AD82AB3594CB4FBF3
S31500005440F1F501FB154129B1574BD5214A4ABFE772
S315000054500132EEE701219140814203D0534BD62120
S31500005460454AB5E7042A03D8464BD721424AAFE757
S31500005470013A44F01F045200DC6002F03E0242F0A2
S31500005480447242F001021A61BFF35F8F05225A602F
S31500005490244B5A6A42F480325A62BFF34F8FBFF3ED
S315000054A06F8F5A6912F4803223D1C3F88420BFF378
S315000054B04F8FD3F8802043F6E074C2F3C900C2F3DD
S315000054C04E32520102EA0406014646EA8175013966
S315000054D0C3F86052F9D2203A12F1200FF2D1BFF38D
S315000054E04F8F5A6942F480325A61BFF34F8FBFF330
S315000054F06F8F0C4B5A6912F4003211D1BFF34F8FE4
S31500005500BFF36F8FC3F85022BFF34F8FBFF36F8F78
S315000055105A6942F400325A61BFF34F8FBFF36F8F5F
S31500005520BDE8F08100ED00E00020000000800000F2
S3150000553090ED00E0120000603F00100011000080B6
S3150000554039001003150000203B001003230003035D
S315000055501600202027000303170030202500030330
S31500005560180000302F0003061900008033000303E3
S31500005570000000202DB60200FFB6020045B602006C
S315000055807DB6020098B602001B0000401E00804156
S315000055902F0010031C000041290010031D0040418C
S315000055A02700100300002C209FB60200C3B602009D
S315000055B0C64A46F22063D158C9072DE9F0410BD4FB
S315000055C00121D150BFF34F8FBFF36F8F02F5CC424D
S315000055D030321368DB07FCD50A22BD4B05240225B1
S315000055E01A60042143F8042C012043F8082C4FF0DC
S315000055F00C0C43F80C2C1527B64BB74E1C601D64DB
S3150000560043F8044CDD63B54BDFF80CE31960C3F8CF
S31500005610F0030023DFF804833360B14E37600327BD
S31500005620C6F840C0A6F50B26A6F6EC763260C6F89C
S3150000563040C046F8200C376246F81C0CC6F8943079
S315000056407762A84E3060C6F8FC520E443060C6F849
S31500005650E4520E443060C6F8E4520E443060C6F898
S31500005660E4520E443060C6F8E4520E443060C6F888
S31500005670E4520E443060F83EC6F8FC00C6F800015D
S31500005680C6F80401C6F80801C6F80C01C6F8E453CA
S3150000569035607560C6F8C403443E32607260326697
S315000056A0C6F84412C6F84812C6F8A4521026CEF818
S315000056B00060CEF87830CEF80460CEF874304FF043
S315000056C0200EC8F800E0C8F804E0DFF854E2CEF88F
S315000056D00030CEF8B4348E44CEF800300EF5107E8D
S315000056E0CEF86C32CEF80050CEF80450AEF5407EBF
S315000056F0CEF80070CEF804700E27CEF84472CEF8BD
S3150000570048720EF58E7E784F3960A7F5BA77C7F8DE
S315000057107811C7F8B833C7F8BC33243747F8243CA8
S3150000572047F8203C47F81C3C47F8183C47F8143C1F
S3150000573047F8103C47F80C3C47F8083C47F8043C4F
S315000057403B607B60BB60FB603B617B61BB61FB6177
S315000057503B627B62BB62FB623B637B63BB63FB6357
S3150000576040373B607B60BB60FB603B617B61BB613C
S31500005770FB613B627B62BB62FB623B637B63BE6336
S31500005780C7F88C301127CEF80070CEF80470CEF82A
S31500005790A8030EF1080ECEF80070CEF880038E44F2
S315000057A0CEF80070CEF880038E44CEF80070CEF8A6
S315000057B080038E44CEF800704C4F38604C484D4FF5
S315000057C00260A0F53D70C0F8F822C0F8FC22C0F8CF
S315000057D00023C0F80423C0F80823026040F8342CE4
S315000057E040F8202C3C60444F39607960B960F9601C
S315000057F039617961B961F9613962796247F8041CE6
S3150000580047F8081C40F8202CC0F88060C0F8846077
S31500005810C0F88860C0F88C60C0F89060C0F89460EA
S315000058208267C0F81421C0F8102134480460344857
S315000058300260C0F8B420C0F8B8201222C0F8A42034
S31500005840C0F8A8201322C0F8AC20C0F8B0202D4A1A
S315000058501160903242F88CCC42F8881C42F8841CC5
S3150000586042F8801C42F87C1C42F8983C5360136056
S3150000587002F53A0202F53C421560234A1360C2F86B
S31500005880B4C0C2F8B8C0C2F8A430C2F8A830C2F892
S31500005890AC30C2F8B0301D4B1C6043F80C4C1C4BAE
S315000058A01C605C6043F8684C43F8644C43F8D44C85
S315000058B043F8D04C43F87C4C43F8804C154B1C60A5
S315000058C0DC601C615C61BDE8F08100BF0000CC407B
S315000058D0F8800E401840C94058830E4014810E408F
S315000058E00C40C940E4810E4084810E4060850E4024
S315000058F010840E402040C94044810E403040C940CB
S3150000590098810E40E0830E40DC830E402480C04028
S315000059108C810E401C80C0401080C0405080C0402A
S315000059206C810E40FFF744BE73B50024064601A8FD
S315000059300D460194FDF7D3FA074B1A68964206D135
S3150000594001982B60FDF7DCFA204602B070BD019885
S31500005950FDF7D6FA0420F8E72801002037B5002421
S31500005960054601A80194FDF7BAFA0A4B1A685AB11E
S315000059709A7BAA4208D101989C73C3E90044FDF7BB
S31500005980BFFA204603B030BD0198FDF7B9FA0420EE
S31500005990F8E700BF2801002073B50024064601A8D9
S315000059A00D460194FDF79BFA084A13684BB1927BAA
S315000059B0B24206D101982B60FDF7A2FA204602B04A
S315000059C070BD0198FDF79CFA0420F8E72801002035
S315000059D02DE9F7430F46154622B90423184603B0AE
S315000059E0BDE8F08301A9FFF79FFF0028F5D1044623
S315000059F001264FF00C08DFF85890019BE0B25B6877
S31500005A001A7A824201D83346E8E71B6808FB003061
S31500005A1083681B79012B15D0022B15D0032B15D0CB
S31500005A20042B0DD1032309EB03132A46394640689C
S31500005A309B68984705280346D0D0002808BF002653
S31500005A400134DAE70023EEE70123ECE70223EAE775
S31500005A5088B9020073B50D4601A904461646FFF73C
S31500005A6063FF88B9012D08D1019920460BF0C2FDCC
S31500005A70019A02212046FFF7ABFF019B32462946D9
S31500005A8020465B685B68984702B070BD2DE9F74F0A
S31500005A9007460C469046002A5DD000295BD04B682D
S31500005AA0002B58D0002301A80193FDF718FA2B4BC1
S31500005AB001981E681D461EB39B7BBB4220D1012464
S31500005AC0FDF71EFA204603B0BDE8F08FDFF894908C
S31500005AD0AF73C5F80890FDF713FA6C60A9F11002D0
S31500005AE01F49384606F0B8F9044678B96B685FFA7C
S31500005AF086F91B7A4B4510D82B68C8F80030E1E7C9
S31500005B00002EE3D00224FDF7FBF9DBE7286806F058
S31500005B1082F93846FFF722FFD4E70C23DFF848A0C6
S31500005B204FF0000B03FB09F96B68196849448B6851
S31500005B301A799AF80C309A4204D1DAF800300A1D24
S31500005B40384698470BF1010B0AF1100ABBF1050F15
S31500005B50EAD10136CAE70424B4E700BF28010020D1
S31500005B60555A00003801002088B9020070B586B089
S31500005B700B78012506468DF80C3002230C4602925E
S31500005B808DF80D3040F201130595ADF80E3001ABDE
S31500005B90049302A9304603F063FB58B96388A188D1
S31500005BA005FA03F3019A39B1934314BF0123002385
S31500005BB0002BEED106B070BD1342F6E770B51E4657
S31500005BC086B00B7801250C4602A98DF80C3002230D
S31500005BD002928DF80D3040F209130595ADF80E309E
S31500005BE001AB049303F03CFB38B9A368019A134058
S31500005BF0E268934208BF0546357006B070BD7FB5B2
S31500005C0000238DF80C1002A9CDE9013303238DF88A
S31500005C100D304FF48673ADF80E3001AB04930123BB
S31500005C20059303F01DFB07B05DF804FBF8B50D46C0
S31500005C30064628B9324B9121324A33481FF038F8CC
S31500005C4019B9324B92212F4AF7E704680422002142
S31500005C5028461FF087FB2E4B706804F13C07218E07
S31500005C6028605980618EEB619980616B94F82020E1
S31500005C709960A16B1A70D960214603F0A9F94FF417
S31500005C808072002138461FF06DFB40F20641214A22
S31500005C90214BE1662149DFF898E0C4F88C104FF4F7
S31500005CA001517068C4E90F2342F201431C4AC4E95A
S31500005CB027E1C4E91323C4E933231A491A4AC4F86D
S31500005CC0DC100331C4E91723184A4FF40053C4F813
S31500005CD0BC100021C4E93F2340233A4603F0FAF9F9
S31500005CE073681A6842F001021A60186810F0010021
S31500005CF0FBD1636AAB60A36AEB60E36A2B61F8BD14
S31500005D00BCBA020036BA0200D8B90200ADBA020027
