:020000042025B5
:1000000000DE2720BD04252089052520E53D25208B
:100010008505252085052520850525200000000073
:1000200000000000000000000000000091052520F5
:10003000850525200000000095052520990525202F
:100040009D052520A1052520A5052520A9052520FC
:10005000AD052520B1052520B5052520B9052520AC
:10006000BD052520C1052520C5052520C90525205C
:10007000CD052520D1052520D5052520D90525200C
:10008000DD052520850525208505252085052520DC
:1000900091402520E5052520E9052520ED052520B1
:1000A000F1052520F5052520F9052520FD0525204C
:1000B0000106252005062520090625200D062520F8
:1000C0001106252015062520190625201D062520A8
:1000D0002106252025062520290625202D06252058
:1000E0003106252035062520390625203D06252008
:1000F0004106252045062520490625204D062520B8
:100100005106252055062520850525208505252015
:1001100085052520850525208505252085052520A3
:100120008505252085052520850525208505252093
:100130008505252085052520850525208505252083
:100140008505252085052520850525208505252073
:100150008505252085052520850525208505252063
:100160008505252085052520850525208505252053
:10017000590625205D0625206106252065062520D7
:10018000690625206D062520710625208505252078
:100190008505252085052520850525208505252023
:1001A0008505252085052520850525208505252013
:1001B0008505252085052520850525208505252003
:1001C0008505252075062520850525208505252002
:1001D00085052520850525208505252085052520E3
:1001E00085052520551B26208505252085052520EC
:1001F0008505252085052520790625207D062520D5
:1002000085052520850525208505252085052520B2
:1002100085052520850525208505252085052520A2
:100220008505252085052520850525208505252092
:100230008505252085052520850525208505252082
:100240008505252085052520810625208506252074
:1002500085052520890625208D0625208505252054
:10026000B9442520910625209506252099062520AC
:100270009D062520A1062520A506252085052520EB
:100280008505252085052520850525208505252032
:100290008505252085052520850525208505252022
:1002A0008505252085052520850525208505252012
:1002B0008505252085052520850525208505252002
:1002C00085052520850525208505252085052520F2
:1002D00085052520850525208505252085052520E2
:1002E00085052520850525208505252085052520D2
:1002F00085052520850525208505252085052520C2
:1003000085052520850525208505252085052520B1
:1003100085052520850525208505252085052520A1
:100320008505252085052520850525208505252091
:100330008505252085052520850525208505252081
:100340008505252085052520850525208505252071
:100350008505252085052520850525208505252061
:100360008505252085052520A9062520AD06252003
:100370008505252085052520850525208505252041
:100380008505252085052520B1062520B5062520D3
:10039000B9062520BD0625208505252085052520B3
:1003A000C1062520C5062520850525208505252093
:1003B0008505252085052520850525208505252001
:1003C00085052520850525208505252085052520F1
:1003D00085052520850525208505252085052520E1
:1003E00085052520850525208505252085052520D1
:1003F000850525208505252085052520FFFFFFFF94
:1004000010B5054C237833B9044B13B10448AFF34E
:1004100000800123237010BD001027200000000081
:10042000846E262008B5034B1BB103490348AFF384
:10043000008008BD0000000004102720846E2620E4
:10044000002A01D101207047F0B41F46034603245F
:100450002340002B09D00424E31A01700130082442
:10046000E141013A26D0013BF7D1042A1ADB13D02F
:10047000002F11D00C460D460E46102A02DB72C02A
:10048000103AFAE70C2A02DB32C00C3AFAE7082AE3
:1004900002DB12C0083AFAE7042A03DB01600430E9
:1004A000043AF9E7002A05D0017001300824E1413F
:1004B000013AF7D1F0BC00207047C04672B612482E
:1004C000124988604FF000024FF000034FF0000423
:1004D0004FF000054FF000064FF00007B846B94650
:1004E000BA46BB46BC460A4885460A4880470A4881
:1004F00080470A48804762B64FF000004FF0000185
:10050000074A9047FEE700000000252000ED00E0CC
:1005100000DE27201D1B2620B10526201D062620D3
:10052000713E252072B60E480E4901600A6882F3BA
:1005300008880D4880470D490D4A0E4B9A42BEBFB0
:1005400051F8040B42F8040BF8E70B490B4A002062
:100550009142BCBF41F8040BFAE762B608488047F5
:1005600008ED00E0000025201D1B2620AC6E262093
:1005700000002720C00D2720001027201CCC27209A
:10058000713E2520FFF7FEBF4F4800474F48004708
:100590004F4800474F4800474F4800474F480047E3
:1005A0004F4800474F4800474F4800474F480047D3
:1005B0004F4800474F4800474F4800474F480047C3
:1005C0004F4800474F4800474F4800474F480047B3
:1005D0004F4800474F4800474F4800474F480047A3
:1005E0004F4800474F4800474F4800474F48004793
:1005F0004F4800474F4800474F4800474F48004783
:100600004F4800474F4800474F4800474F48004772
:100610004F4800474F4800474F4800474F48004762
:100620004F4800474F4800474F4800474F48004752
:100630004F4800474F4800474F4800474F48004742
:100640004F4800474F4800474F4800474F48004732
:100650004F4800474F4800474F4800474F48004722
:100660004F4800474F4800474F4800474F48004712
:100670004F4800474F4800474F4800474F48004702
:100680004F4800474F4800474F4800474F480047F2
:100690004F4800474F4800474F4800474F480047E2
:1006A0004F4800474F4800474F4800474F480047D2
:1006B0004F4800474F4800474F4800474F480047C2
:1006C0004F4800474F48004789052520E53D252034
:1006D00091052520950525209905252085052520AE
:1006E00085052520850525208505252085052520CE
:1006F00085052520850525208505252085052520BE
:1007000085052520850525208505252085052520AD
:10071000850525208505252085052520850525209D
:10072000B52B2520D52B2520F52B2520152C252074
:10073000352C2520552C2520752C2520952C252061
:10074000B52C2520D52C2520F52C2520152D252050
:10075000850525208505252085052520850525205D
:10076000850525208505252095282520A9282520D3
:10077000BD282520D1282520E5282520F928252059
:10078000850525208505252085052520850525202D
:10079000850525208505252085052520850525201D
:1007A000850525208505252085052520850525200D
:1007B00085052520850525208505252085052520FD
:1007C00085052520850525200DBE252025BE252053
:1007D00085052520850525208505252085052520DD
:1007E00085052520850525208505252085052520CD
:1007F00085052520850525208505252085052520BD
:10080000850525208505252053B94AB9002908BF4B
:1008100000281CBF4FF0FF314FF0FF3000F06EB9E1
:10082000ADF1080C6DE904CE00F006F8DDF804E047
:10083000DDE9022304B070472DE9F047089D044626
:100840008C46002B40F083808A42174647D9B2FA83
:1008500082F242B1C2F1200024FA00F091409740A8
:1008600040EA010C94404FEA1748230CBCFBF8F611
:100870001FFA87FE08FB16C143EA014306FB0EF18F
:10088000994209D9FB1806F1FF3080F0198199428D
:1008900040F21681023E3B445B1AA4B2B3FBF8F06F
:1008A00008FB103344EA034400FB0EFEA64509D9B9
:1008B0003C1900F1FF3380F00581A64540F202812A
:1008C00002383C4440EA0640A4EB0E0400261DB169
:1008D000D4400023C5E900433146BDE8F08702B9A2
:1008E000FFDEB2FA82F2002A50D1CB1B4FEA174E3C
:1008F0001FFA87F80126B3FBFEFC210C0EFB1C330C
:1009000041EA034108FB0CF38B4207D979180CF13B
:10091000FF3002D28B4200F2E9808446C91AA3B2AA
:10092000B1FBFEF00EFB101143EA014408FB00F896
:10093000A04507D93C1900F1FF3302D2A04500F2CF
:10094000D9801846A4EB080440EA0C40BFE78B426C
:1009500009D9002D00F0B1800026C5E9000130461C
:100960003146BDE8F087B3FA83F6002E4AD18B42B8
:1009700002D3824200F2B880841A61EB03010120A5
:100980008C46002DA8D0C5E9004CA5E7C2F1200394
:1009900020FA03F6974001FA02F04FEA174ED940C9
:1009A0003043030CB1FBFEF61FFA87F80EFB16115D
:1009B00043EA014306FB08F1994204FA02F409D91B
:1009C000FB1806F1FF3C80F08D80994240F28A804E
:1009D000023E3B445B1A81B2B3FBFEF00EFB1033C8
:1009E00041EA034100FB08F38B4207D9791800F173
:1009F000FF3C73D28B4271D902383944CB1A40EA9A
:100A0000064678E7C6F1200C03FA06F422FA0CF346
:100A10001C4320FA0CF701FA06F34FEA144E21FAB0
:100A20000CF11F433B0CB1FBFEF91FFA84F80EFBDF
:100A3000191143EA014109FB08FA8A4502FA06F254
:100A400000FA06F308D9611809F1FF3048D28A4547
:100A500046D9A9F102092144A1EB0A01BFB2B1FBB9
:100A6000FEF00EFB101147EA014700FB08F8B845FD
:100A700007D9E71900F1FF312ED2B8452CD9023839
:100A8000274440EA0940A7EB0807A0FB02894F452D
:100A9000C64649461AD317D05DB1B3EB0E0267EBD9
:100AA000010707FA0CFCF2404CEA0202F740C5E9E4
:100AB000002700263146BDE8F0872E4628460BE782
:100AC0000646E9E61846FDE64345E5D2B8EB020ED8
:100AD00069EB04010138DFE70846D2E760468DE79D
:100AE0008146B9E7664675E730464AE7ACF1020C45
:100AF000394413E702383C4424E700BF704700BF85
:100B0000034613F8012B002AFBD1181A013870474D
:100B100001F0FF01102A2BDB10F0070F08D010F8AE
:100B2000013B013A8B422DD010F0070F42B3F6D1B2
:100B3000F0B441EA012141EA014122F007047FF0CB
:100B400000070023F0E80256083C85EA010586EA22
:100B5000010685FA47F5A3FA87F586FA47F6A5FA5E
:100B600087F68EB9EED1F0BC01F0FF0102F007026A
:100B700032B110F8013B013A83EA010313B1F8D115
:100B80000020704701387047002D06BF35460338F6
:100B9000073815F0010F07D1013015F4807F02BF2F
:100BA000013015F4C03F0130F0BC0138704700BF80
:100BB000002307B5182101AA0B48ADF804308DF8C1
:100BC000063001F0DDFA094B05221A60084AD2F816
:100BD000AC3023F48073C2F8AC300C22054B1A60A1
:100BE00003B05DF804FB00BF0040134070810E406D
:100BF00000400E40B4830E400023074A13600432C5
:100C0000C2F8B0341360C2F8AC340E2302F510728F
:100C100013605360704700BF6C810E400023074A89
:100C200013600432C2F8B0341360C2F8AC3402234B
:100C300002F5107213605360704700BF6C810E4064
:100C40002DE9FF411C46002307460E468DF8033070
:100C5000154691F90030002B03DB052004B0BDE8F8
:100C6000F081B1F802800DF103020621006811F055
:100C700055F99DF80330022BEFD84FEA1821F2887E
:100C80005FFA88F30129029211D1327802F01F0233
:100C9000134352D1B388002B4FD101AA0B213868DE
:100CA00000F02FFC019B2B60029B2360D6E70229FA
:100CB000CAB20AD13278D1063FD1B288002A3CD1DB
:100CC00001AA0C218DF80C30E9E7032A0AD1327809
:100CD000D20632D18DF80E3001AAB3880D21ADF8BD
:100CE0000C30DCE7212A0BD1327802F01F02012AF6
:100CF00023D113BBB38801AA0E218DF80C30CEE7A7
:100D0000222A0BD1327802F01F02012A15D1A3B991
:100D1000B38801AA0F218DF80C30C0E7232A0CD12B
:100D2000327802F01F02012A07D18DF80C3001AA97
:100D3000B38810218DF80D30B1E70520B2E77FB5FB
:100D400091F90020002305460C46002A8DF80F304B
:100D50000B7802DA052004B070BDDB06FAD18B886F
:100D6000002BF7D1CE88002EF4D10DF10F02062111
:100D7000006811F0D3F89DF80F30012BEAD80DF17F
:100D80000F02062128688DF80F6011F0E8F86388DB
:100D900043B901230DF10F02062128688DF80F30A9
:100DA00011F0DDF8A21C03212868019200F07AFB03
:100DB000019A0921286800F0A4FBCCE773B591F9EA
:100DC0000020002305460C46002A8DF807300B78DA
:100DD00002DA052002B070BDDB06FAD18B88002B49
:100DE000F7D1CE88002EF4D10DF10702062100685C
:100DF00011F094F89DF80730032B0BD0022BE8D8A4
:100E000063880DF1070207218DF80730286811F07B
:100E1000A6F8DFE732460721286811F0A0F800287D
:100E2000D8D101230DF1070206218DF80730EDE737
:100E3000002337B58DF8063005468DF807300C468F
:100E400091F90030002B02DA052003B030BDCB88C9
:100E5000002BF9D10DF106020621006811F05EF8B1
:100E60009DF80630012BEFD86378032B04BF0123D4
:100E70008DF80730237813F01F0309D16388012B05
:100E8000E2D10DF107021421286800F03AFBDCE7FB
:100E9000022BD9D16388002BD6D1A1880B0706D1AC
:100EA0009DF80730C9B2286853B111F019F89DF8C0
:100EB0000730221D286833B1052100F0F3FAC4E79A
:100EC00011F01DF8F3E70621F7E72DE9F341174686
:100ED00091F900201E460023002A05468DF80730B0
:100EE0000C460B7803DB052002B0BDE8F08103F06F
:100EF0001F03022BF7D14B88002BF4D1B1F80680E9
:100F0000B8F1020FEFD10DF107020621006811F0D0
:100F100005F89DF80730002BE5D1A3882C46082161
:100F2000286824F80C3F224610F0F8FF3C60C6F811
:100F30000080D9E72DE9F74F1E46002305468B4672
:100F40008DF80330174691F90030002B03DB0520A4
:100F500003B0BDE8F08F4C88002CF8D1B1F806A0A2
:100F6000BAF1020FF3D10DF103020621006810F06F
:100F7000D5FF9DF80330012BE9D89BF8009005F1CF
:100F80000C0819F01F090DD142460421286810F001
:100F9000C5FFAB8903F00303AB81C6F800A0C7F817
:100FA0000080D5E7B9F1010F04D1AC812046C6F825
:100FB00000A0F4E7B9F1020F12D1BBF8043001AA86
:100FC000052128688DF80430ADF8064010F0A6FF22
:100FD000BDF8063003F00303AB81C6F80090DEE7EE
:100FE0000520DCE737B591F90020002305460C46C3
:100FF000002A8DF807300B7802DA052003B030BDE7
:1010000003F01F03012BF8D1CB88002BF5D10DF194
:1010100007020621006810F081FF9DF80730002BC1
:10102000EBD1A2880421A3782C46286843EA022346
:1010300024F80C3F224600F035FA22460A2128689F
:1010400000F05FFADAE72DE9F341164691F9002046
:101050001F460023002A05468DF807300C460B7802
:1010600003DB052002B0BDE8F08103F01F03012B74
:10107000F7D14B88002BF4D1B1F80680B8F1010FFD
:10108000EFD10DF107020621006810F047FF9DF82F
:101090000730002BE5D1A38805F10C02C7F80080CA
:1010A00016211B0232602868AB8100F02AFAD9E7CA
:1010B000F7B5154691F900201E460023002A044684
:1010C0008DF807300B7802DB052003B0F0BDDB069E
:1010D000FAD14B88002BF7D18B88002BF4D1CF8825
:1010E000012FF1D10DF107020621006810F016FF63
:1010F0009DF80730012BE7D804F10C023760152169
:101100002A60206800F0FDF9DFE770B50D46114652
:1011100004461A460529049B04D10021BDE870400D
:1011200010F0DEBEE8881E68864288BF186089B964
:101130001B681268204610F08BFE78B995F90030D4
:10114000002B0BDA0346024601462046BDE87040FC
:1011500010F084BE00231A461946EBE770BD00006C
:101160004B682DE9F04101338AB04FF00008054685
:101170000E4617468DF80F80CDE9048803D105206F
:101180000AB0BDE8F081002AF9D0946806210DF17B
:101190000F0210F0C3FE317A002900F08B807368D3
:1011A000082BECD13268002AE9D0538863809388F9
:1011B000A380D388E38050786070127812F01C0FFF
:1011C000227004D04146284610F08AFED7E712F07C
:1011D00060011CD10C280FD90520059B1BB1049B75
:1011E000002B08BF052005AB024621462846009388
:1011F00004ABFFF78AFFC3E74D4B53F82060002E86
:10120000EAD005AB04AA21463846B047E5E7002BF3
:101210002FD012062DD420291CD1002201212846CE
:101220000694079206AA8DF82410089300F03AF964
:10123000089B0593079B04930028CDD1E3880021E8
:10124000059A2846934238BF0593DDE9042310F040
:1012500005FE95E74029BFD10022132128460694B8
:101260000792012208938DF8242006AA00F049F97C
:10127000DEE720290FD1002201212846069407929B
:1012800006AA8DF82410089300F00CF9089B05932A
:10129000079B0493A1E740299ED1002213212846F1
:1012A00006940792012208938DF8242006AA00F0E4
:1012B00028F9EBE79DF80F30032B0AD16378052B53
:1012C0007FF45DAF05AB04AA21463846FFF776FDF3
:1012D00056E77268002A3FF452AFE388002B3FF4D0
:1012E0004EAF94F9000023780028FFF648AF03F0D2
:1012F0006003202B0BD1336828468DF82410012180
:10130000089206AA0793069400F0CCF86BE7402BEE
:101310000BD1336828468DF824101321089206AAB1
:101320000793069400F0EDF85DE705205BE700BF4A
:10133000845A262030B5104B87B0054603AACDE964
:1013400003310E4B01A901930123ADF8083010F0D1
:1013500089FD044660B98DF8060003AA01A9284654
:1013600010F080FD044618B18021284610F099FD48
:10137000204607B030BD00BF61112520400080002D
:1013800073B50024054601A80E46019400F0EFFB5A
:101390000B4A13689D42134609D012690198954281
:1013A00004D000F0E9FB042002B070BD012403EB7F
:1013B00004140198346000F0DFFB0020F4E700BF64
:1013C0001C10272037B50024054601A8019400F021
:1013D000CEFB104A136813B1937BAB420AD013695A
:1013E00013B1937FAB4212D0019800F0C5FB0420EB
:1013F00003B030BD23460024190102EB031301980A
:1014000054505C609C7300F0B7FB2046F0E701236A
:10141000F1E700BF1C10272073B50024054601A882
:101420000E46019400F0A3FB0C4B1A6812B19A7B94
:10143000AA420BD01A6912B19A7FAA4205D001982C
:1014400000F09AFB042002B070BD012403EB0413EA
:101450000198336000F090FB0020F4E71C10272077
:10146000002337B5044601A801930D4600F07FFB29
:101470000B4B1A6812B1997BA1420AD01A6912B1BA
:101480009B7FA34205D0019800F076FB042003B0B7
:1014900030BD01982A6000F06FFB0020F7E700BF25
:1014A0001C1027202DE9F3410D46164622B90423CE
:1014B000184602B0BDE8F08101A9FFF761FF0028DE
:1014C000F5D1044601274FF00C08019B5A68E3B29E
:1014D000117A994201D83B46EAE7126808FB0323D8
:1014E0009A681279012A0AD158683246294600F0D2
:1014F00086F905280346DBD0002808BF0027013401
:10150000E3E773B50D4601A904461646FFF738FF19
:1015100088B9012D08D101992046FFF70BFF019AE8
:1015200002212046FFF7BEFF019B32462946204696
:101530005B685B68984702B070BD00002DE9F34717
:1015400005460C469046002A60D000295ED04B68C4
:10155000002B5BD00023314F01A8019300F007FB63
:101560003B6813B1BA7BAA4205D03A69019852B1DF
:10157000BA7FAA424CD10124019800F0FDFA20461E
:1015800002B0BDE8F087003B18BF0123244A07EBF7
:1015900003164FEA031902EBC303B573B36000F0FF
:1015A000EBFA746032461F49284610F0D7FB044618
:1015B00038B157F8090010F0B6FB2846FFF702FFD4
:1015C000DDE782464FF00C0973685FFA8AF11A7AF8
:1015D0008A4217D909FB01F7196839448B681B79CE
:1015E000012B03D10A1D284600F066FA73681968BA
:1015F00039448B681B7913B90A1D284698470AF1AC
:10160000010AE1E73368C8F80030B8E70424B6E718
:10161000002BBBD0022400F0AFFAB0E71C1027204B
:101620003C10272003152520F7B501A90646FFF732
:10163000F3FE044618BB0C27019BE5B25A68117AE9
:10164000A94214D913687D432B449A681279012A60
:1016500002D1586800F048FA019B5B681B681D4482
:10166000AB681B790BB9686898470134E4E71868E0
:1016700010F059FB044610B93046FFF7A3FE204690
:1016800003B0F0BD1FB5019103A9FFF7C5FE28B94E
:10169000039B0221019A186810F040FC05B05DF828
:1016A00004FB10464AB1002382F82130536833B15D
:1016B0001B6823B10A460121184703207047012007
:1016C000704710464AB1002382F82230536833B184
:1016D0001B6823B10A4602211847032070470120E6
:1016E000704700002DE9F043037F87B004461BB923
:1016F000012007B0BDE8F0834268926851799942B1
:10170000F6D31268002AF3D003F100530C27013BF3
:1017100002EBC30612F8335000239D42E8D907FBC1
:1017200003F270688118825C032A49D10D7A002384
:101730009D423BD80026CB786377002ED8D0002579
:101740000120DFF880802F46DFF87C90A660337997
:10175000AB42CED90623B1688DF808706B430135D2
:10176000CA1810798DF80900CB5C20688DF8063016
:10177000DB0951886FF00103ADF8041001A952781C
:1017800018BFE3608DF8072003AA19BF84F82370FF
:101790002761636184F824700ABFA761CDF80C90BB
:1017A000CDF80C80049410F05DFBD0E71A01486876
:1017B00000EB0316805CA27F9042BCD00133B7E7F8
:1017C0000133AAE7C3162520A3162520836870B528
:1017D000044693B1002501200626A3681A79954294
:1017E00002D30023A36070BD9A6806FB05F320684E
:1017F0000135D15C10F055FBEFE70120F3E72DE94F
:10180000F04F054687B01646002A00F04F810028A9
:1018100000F04C81C9B200230139CDE9003305291C
:1018200000F24681DFE811F0C60006000E0022003B
:1018300034005D00037780F8213080F82230836027
:10184000002436E04368002B00F03281037F3278B9
:101850009A42F5D00BB1FFF7B9FF33782B7700230D
:10186000AB772846FFF73EFF044622E04368002B93
:1018700000F01E813488437FB3EB142F40F01881B1
:10188000E4B2837FA342DBD0FFF7A0FFAC77E8E7A9
:101890004368002B00F00C818368002B00F0088166
:1018A000012400274FF00608A146AB681A79BA4216
:1018B00003D8204607B0BDE8F08F9A6808FB07F30D
:1018C000D25C337893420AD1DB09286814BF85F8CB
:1018D000233085F82490317810F002FB044601375C
:1018E000E3E74368002B00F0E3808368002B00F0FF
:1018F000DF804FF0000801244FF0060B6FF0010A63
:101900004746AB681A794245D3D90BFB08F99B6867
:10191000327813F80910914227D1286810F0EFFAB5
:1019200033780446DB09AB6822D095F82320E2B176
:10193000EA6885F82370901C17D09B68286813F814
:1019400009102B6901F00F0110F082FA044650B122
:10195000EB682A4603A9286803932B698DF8147055
:101960000493FFF79EFEC5E903A708F10108C8E745
:1019700095F82420002AF8D06A6985F82470911C13
:10198000F3D09B68286813F80910AB6901F00F01C8
:1019900010F064FA044650B16B692A4603A928681E
:1019A0000393AB698DF814700493FFF78AFEC5E9C1
:1019B00005A7DAE733681A7802F01F04012C77D103
:1019C000407F197988427FF474AF597801390A2928
:1019D00070D8DFE801F0061A2C6F6F6F6F6F385206
:1019E0005F00120666D5DA88002A63D05B886A46F3
:1019F00003215BBAADF808306B681B68284698472E
:101A0000009B04467360019B0FE0170652D5DB88EC
:101A1000002B4FD005F11F076B6804211B683A4665
:101A200028469847012304467760B36041E71406CF
:101A300040D5DB88002B3DD005F120076B680521E0
:101A40001B683A46ECE7100634D4DA88002A31D015
:101A50005B88317B5BBAB268ADF808306B681B6895
:101A600019B1019209216A46C8E77168CDE90012EF
:101A70006A46062128469847F6E611061AD4DA88FF
:101A8000C2B95B882A4607211B0A02F81F3F6B6810
:101A90001B68EFE712060DD4DA885AB95B882A462C
:101AA000082102F8203F6B681B68E3E7032400E786
:101AB0000124FEE60524FCE670B50A4C0E461546E8
:101AC00023685BB92146FFF7CBFC30B923683BB1F3
:101AD000FF2366602077A3772C6070BD0220FCE7AF
:101AE0000320FAE74C10272010B5044638B1FFF761
:101AF0006DFE0023C4E900332377A37710BD0320D4
:101B0000FCE7F8B5044698B190F8210090B9012798
:101B100084F8217094F8237017B1C4E90323F8BD49
:101B2000206810F095F90028F9D084F82170F6E7C4
:101B30000320F4E70220F2E7F8B5044698B190F8E4
:101B4000220090B9012784F8227094F8247017B10C
:101B5000C4E90523F8BD206810F080F90028F9D009
:101B600084F82270F6E70320F4E70220F2E7EFF3AF
:101B7000108372B60360704780F3108870470000CE
:101B800010B506281FD8DFE810F0070036007800EF
:101B9000C00008014C017A01D048B1B1D0F820183A
:101BA00021F48031C0F82018D0F8201821F0FF016E
:101BB0000A43C0F82028C0F83038D0F8003583F444
:101BC0008033C0F80035002014E0D0F8203843F40A
:101BD0008033C0F82038D0F8203823F0FF031A43B0
:101BE000C0F82028D0F8003583F48033C0F80035E1
:101BF000D0F8400810BDB948F9B1D0F85048D0F835
:101C0000501804F4007421F48031C0F85018D0F852
:101C1000501821F0FF010A43C0F85028C0F860387E
:101C2000D0F8503883F48073C0F85038D0F850386A
:101C300003F400739C42F9D0C5E7D0F85018D0F8EF
:101C4000503801F4007143F48033C0F85038D0F8B4
:101C5000503823F0FF031A43C0F85028D0F850380A
:101C600083F48073C0F85038D0F8503803F4007310
:101C70009942F9D0D0F87008BCE7984829B3D0F859
:101C80008048D0F8801804F4007421F48031C0F842
:101C90008018D0F8801821F0FF010A43C0F880288E
:101CA000C0F89038D0F8803883F48073C0F880385A
:101CB000D0F8803803F400739C42F9D0D0F8803813
:101CC00023F48033C0F880387DE7D0F88018D0F84E
:101CD000803801F4007143F48033C0F88038D0F8C4
:101CE000803823F0FF031A43C0F88028D0F88038EA
:101CF00083F48073C0F88038D0F8803803F4007320
:101D00009942F9D0D0F8A00874E7744829B3D0F804
:101D1000B048D0F8B01804F4007421F48031C0F851
:101D2000B018D0F8B01821F0FF010A43C0F8B0286D
:101D3000C0F8C038D0F8B03883F48073C0F8B03839
:101D4000D0F8B03803F400739C42F9D0D0F8B03822
:101D500023F48033C0F8B03835E7D0F8B018D0F8A5
:101D6000B03801F4007143F48033C0F8B038D0F8D3
:101D7000B03823F0FF031A43C0F8B028D0F8B038C9
:101D800083F48073C0F8B038D0F8B03803F400732F
:101D90009942F9D0D0F8D0082CE7504801B3D0F8D8
:101DA0002049D0F8201904F4007421F48031C0F8DF
:101DB0002019D0F8201921F0FF010A43C0F820298A
:101DC000C0F83039D0F8203983F48073C0F8203956
:101DD0000346D3F8202902F400729442F9D0F2E6C7
:101DE000D0F82019D0F8203901F4007143F4803381
:101DF000C0F82039D0F8203923F0FF031A43C0F887
:101E00002029D0F8203983F48073C0F820390346A4
:101E1000D3F8202902F400729142F9D0D3F8400996
:101E2000E8E62E48A9B1D0F8E01821F48031C0F8D6
:101E3000E018D0F8E01821F0FF010A43C0F8E028CC
:101E4000C0F8F038D0F8003483F40043C0F8003410
:101E5000B9E6D0F8E03843F48033C0F8E038D0F881
:101E6000E03823F0FF031A43C0F8E028D0F800342C
:101E700083F40043C0F80034D0F81009BAE61748DC
:101E8000A9B1D0F8E01821F48031C0F8E018D0F8FA
:101E9000E01821F0FF010A43C0F8E028C0F8F0384C
:101EA000D0F8703583F00103C0F870358BE6D0F8B8
:101EB000E03843F48033C0F8E038D0F8E03823F05D
:101EC000FF031A43C0F8E028D0F8703583F001030F
:101ED000C0F87035D0F800098CE600BF0040C8405B
:101EE00000230A461946FFF74BBE00000000000021
:101EF0000238002138B5C4B22DED028B2046FFF721
:101F0000EFFF302105462046FFF7EAFF202108EECB
:101F1000100A2046FFF7E4FF07EE900AB8EE488B60
:101F200005F07F03B8EE675B012006EE103AC5F3BB
:101F3000426585EE087B00FA05F5B8EEC66BBDEC90
:101F4000028B37EE066B9FED087B26EE076B07EEE4
:101F5000905AB8EEE77B86EE075BFCEEC57B17EE8A
:101F6000900A38BDAFF300800000000060E37641C6
:101F7000084B0220D3F80022D3F80032D2B2C3F3C8
:101F8000C133013300FA03F30348B0FBF3F05043CD
:101F9000704700BF0040C84000366E0102284FEA7B
:101FA000C1010AD0032810D000200346C8401EBF3C
:101FB000B3FBF0F0122148437047084B3F20D3F8A1
:101FC000703288401840064BF0E7044B3F20D3F8AE
:101FD000303288401840034BE8E700BF0040C8405B
:101FE00000A4781F00389C1C10B51E2853D8DFE8C9
:101FF00000F010121416141418181C1C1E24262885
:102000002A2A2C2E3133353737393B3D3D42424465
:102010004400224810BD2248FCE72248FAE7224843
:10202000F8E7BDE81040FFF7A3BF2048F2E7002122
:102030000220BDE81040FFF7B1BF0121F8E70221FF
:10204000F6E70321F4E71A48E4E71A48E2E700213B
:102050000320EEE70121FBE70221F9E70321F7E77F
:102060001548D7E71548D5E71548D3E70420BDE85C
:102070001040FFF73DBF0520F9E7124C124A2368D4
:10208000C3F30223D05CFFF7AFFF2368DBB2013359
:10209000B0FBF3F0BEE70020BCE700BF0024F40073
:1020A000006CDC0200366E010084D71700A4781F94
:1020B00000389C1C001C4E0E00CA9A3B0065CD1DCA
:1020C00000C2EB0B0000CC40B85A262008B558B12E
:1020D000064A0023A0FB0101FEF796FB001800460C
:1020E000A0F101000028FBD108BD00BFC0C62D0033
:1020F000012303FA01F112B9C0F888107047C0F843
:102100008410704710B50124C3690F2902F1FF3212
:1021100004FA01F488BF103923EA0403C36194BFB1
:1021200000F10C0300F11003042A0BD8DFE802F0E1
:10213000030B151D2400480003211A68814022EA80
:102140000101196010BD4C0003201A680121A04054
:1021500022EA0002A1401143F3E74C0003201A6871
:102160000221A04022EA0002F4E749000322186895
:1021700002FA01F10143E4E7C3691C43C461E1E7EA
:1021800037B5002315461D4A52F8044BA04214D01F
:102190000133102BF8D1012442698C4022EA040259
:1021A000E34342612A78FAB9426813404360AA784F
:1021B00003B0BDE83040FFF7A5BF0D2BEBD8104AA8
:1021C000D35C8A2BE7D05B010E4AD458E407E2D4F3
:1021D0000124D450BFF34F8FBFF36F8F10321A44D6
:1021E0001368DB07FCD5D6E76A780191FFF780FF1B
:1021F000436801991C434460D9E700BF305D262045
:10220000705D26200060CC4040010A4BC9B21A58CC
:102210004A40D2070CD501F001021A50BFF34F8F8C
:10222000BFF36F8F044A024413684B40DB07FBD4B3
:10223000704700BF0060CC401060CC40013910B541
:1022400003291DD8DFE801F002040A17007810BD49
:102250000088002AFBD040BA80B2F8E743780478BF
:1022600081781B021AB943EA01402043EFE743EAB1
:1022700004400843EBE70068002AE8D000BAE6E72C
:102280000020E4E708B5436ADB074CBF034B044B6F
:102290001B689847BFF34F8F08BD00BF98102720D9
:1022A0009C102720013A30B5032A04D8DFE802F059
:1022B00002040E1C017030BDC1F30722C9B213B96C
:1022C00001704270F7E702704170F4E7C1F3074410
:1022D000C1F30722C9B21BB9017042708470EAE7EA
:1022E000047042708170E6E70D0EC1F30744C1F33C
:1022F0000722C9B223B9017042708470C570DAE751
:10230000057044708270C170D5E700000649002353
:1023100010B551F8044BDAB2844203D00133072BD5
:10232000F7D11A46104610BD885D262010B50C4620
:10233000FFF7ECFF014B1C5410BD00BF74102720A9
:102340002DE9F74F0446406A10F00100CDE9002363
:1023500025D0226912F0010224D000201FE077442A
:1023600086B1009BB3FBF7FC614507D3A1EB0C0BD7
:10237000B3453FBF5E466046AA4691460135B5F576
:10238000807FECD10132082A00D0A6B9226C019BD3
:1023900022F0FF0242EA0A022264C3F8009003B06E
:1023A000BDE8F08FDFF81C8010464FF0FF0A4FF0B9
:1023B00007094FF0FF3618F801EB00254FEA4E07EA
:1023C000CFE700BF7E5D2620022A0BD0032A10D063
:1023D000012A0DD1036C090423F47F0301F47F016A
:1023E000194304E0036C23F07F4343EA0161016475
:1023F0007047036C090223F47F4389B2F0E70000C1
:102400002DE9F04F8946016E90463D4AC1F3C26105
:1024100085B0B8F1030F0546515CB3FBF1F24FF004
:102420000003029247D130A1D1E90001FEF7ECF997
:10243000002306460F46029A2DA1D1E90001FEF7BE
:10244000E3F90123044600214846029A8F4208BF5F
:102450004E45CDE900013ED201332A494FF0FF3706
:102460000026A3FB01ABFF230293002350465946ED
:102470000392FEF7C9F9DDE90023994208BF9042B3
:10248000039A06D3A0EB09039F4282BF1F4604466E
:1024900002960136B6F5807F06D01A4B1AEB030A76
:1024A0004BF1000B002FE0D1284642460299FFF77E
:1024B0008BFF204615E010A1D1E90001FEF7A4F939
:1024C000002306460F46029A3B210F48FEF79CF96F
:1024D00000230446B7E7284642460021FFF774FF71
:1024E000304605B0BDE8F08F00943577000000005D
:1024F00000CA64D63B00000000CA9A3B00000000FE
:102500007E5D262000CA9A3B0000CA9A2DE9F3415D
:10251000002704460D4616460197FFF7F7FE334B9A
:1025200001214FF00108185CFFF76EFE636A204638
:1025300043F0010363622A7E636A083208FA02F1FB
:1025400023EA0103697E01FA02F213436362EB7E20
:10255000A97E626A9B06090603F0806322F0E062AE
:1025600001F0407122F008020B4329681343324600
:10257000636201ABFFF7E4FE6B68A7652046013B91
:102580002A7AE968C3F30B0343EAC273019AD206BD
:1025900002F0605213436A7A920702F080421343BA
:1025A000AA7AD20502F4000213432A7E120602F030
:1025B0004072134342462366236943EA08032361BA
:1025C0003346FFF71DFF3346296902222046FFF7F5
:1025D00017FF3346032269692046FFF711FF39468A
:1025E0002046FFF7A3FE02B0BDE8F081A45D2620DF
:1025F000F0B5046E456A8B689BB30F680FB94B68E2
:102600007BB3C4F30B030833272B4FEAD30407D85B
:102610008E68B6FBF4F304FB13633BB1002320E0A8
:1026200014F0030315D08B68A342F7D105F0407373
:10263000B3F1807F02D0B3F1007F03D19FB14B682B
:10264000002BEBD1A2B104F00300C31E18BF01237D
:1026500007E0D1F808C0BCFBF4F604FB16C6002E58
:10266000E4D01846F0BD436A43F080634362E9E773
:102670000123F6E7426912F080722DE9F04F04461B
:1026800087B0894640F0FD80036923F001030361B0
:10269000FFF7AEFF002800F0F78023692046CE68E0
:1026A00043F440732361794B6361D1E900B7FFF7CD
:1026B0002DFE774B185CD9F80880D9F80850C0B2C5
:1026C000D4F804E0236EC3F3C8030133019316F476
:1026D000801306D0D9F8083001998B4294BF0023AB
:1026E0000123616A0093330901F04071B1F1807FE9
:1026F00002D0B1F1007F5BD1BBFA8BFA4FEA5A1AD4
:10270000616A1B0621F0080103F0407361622169D0
:1027100041F001012161216E21F04F710B432366CD
:10272000E36D13F01F03FBD1009A002F216E4FEAD7
:10273000025C08BF4FF400234CEA425C41EA0C0102
:102740000B432366E36DDA06FCD10106C6F3805322
:1027500041EA0041014341EA0022CEF307210392FE
:1027600001228A40D2B20292019A042A28BF04228E
:102770009146029A02FB09F25FFA89F94E460492E9
:10278000B8F1000F17D1009A62B1BAF1000F09D168
:10279000E26D029902F01F028A42F9D0226E22F401
:1027A00040122266002F66D163695B05FCD564E0A8
:1027B0004FF0000AA4E7C14588BF5FFA88F9E26DCF
:1027C000029902F01F028A42F9D027B1A5EB080254
:1027D00004998A4214D2BAF1000F2BD0226E42F42F
:1027E00080222266009A32B1019A904503D1226E6E
:1027F00022F450122266019AA8EB0208002FBFD0E3
:10280000002DBDD0BAF1000F03D0E26D12F4F81F15
:10281000F8D0E26D12F4F81FB2D0AE423846616FC4
:1028200088BFEEB2059332463744FFF73BFDAD1B40
:10283000059BEEE7BBF1000F08D01A465846494603
:102840000593CB44FFF7FAFC059B0390039AA8EB92
:1028500009086266D2E7AE423846616F88BFEEB2C1
:10286000009332463744FFF71DFDAD1B009BE26D20
:1028700012F4F81FEFD1002DF9D1002007B0BDE808
:10288000F08F4FF4C870F9E70420F7E7033F000129
:1028900074102720024B03485968FFF7F3BC00BFB0
:1028A0007C10272000401140024B03489968FFF735
:1028B000E9BC00BF7C10272000801140024B034878
:1028C000D968FFF7DFBC00BF7C10272000C0114093
:1028D000024B03481969FFF7D5BC00BF7C102720C5
:1028E00000001240024B03485969FFF7CBBC00BF00
:1028F0007C10272000C0C240024B03489969FFF7B3
:10290000C1BC00BF7C1027200000C34040010A4B1F
:10291000C9B21A584A40D2070CD501F001021A5028
:10292000BFF34F8FBFF36F8F044A024413684B40CD
:10293000DB07FBD4704700BF0060CC401060CC4088
:102940000346054A002052F8041B994202D0013088
:102950000D28F8D1704700BFAC5D26202DE9F84F57
:102960000B684FF00A0E002604460D460EFB02FAD5
:102970004FEA830998464FF0040C37465FFA8CFB08
:10298000BAFBF9F105319944B1FBFEF189B2012995
:1029900038BF01210CFB01F00CF1010CB2FBF0F08F
:1029A000834234BFC01A181A40459EBF80465E4617
:1029B0000F46BCF1210FE1D16422B3FBF2F303EB2C
:1029C00043034345C0F08D802046C7F30C07FFF753
:1029D000B7FF454B0121185CFFF798FFA368321F32
:1029E000013E43F00203032A4FEA0666A360A36890
:1029F00006F0F85623F00203A360236998BF43F45E
:102A0000003323F01F2323F0FF031E433E432661C0
:102A1000236923F000532361A269EB7B22F4E26275
:102A200029791B0222F0070203F4E0630A431A43E8
:102A3000AB7B9B0003F0040313436A79012A4BD15B
:102A4000002946D023F40063A361EB7922695B037C
:102A500022F4005203F40053134323616A7A2B7A61
:102A600043EA0243E362A36A43F08803A362A36AD2
:102A700043F44043A3626B7B2A7B1B01616A5201D2
:102A800003F0100302F0200213430B436362AB7A9E
:102A90001BB1636A43F008036362EB7A1BB1636A9C
:102AA00043F001036362A979104B114A002918BF52
:102AB0001A46636913432A7C6361A3690AB143F42C
:102AC00000236A7C0AB143F480230020A361BDE89F
:102AD000F88F43F40063B7E70029B5D043F0100343
:102AE000B2E740F22150F2E7E05D262000C01FE08F
:102AF00000C01FC008B5C36A13F4E06FFBD143697F
:102B00005B02FCD5436943F0C02343F4F8134361EF
:102B100000238361FFF714FF034B6FF00101185C82
:102B2000BDE80840FFF7F2BEE05D26201422002138
:102B300010B5044610F006FA00234FF4E132C4E960
:102B40000233C4E90023238210BD0B02026903F49F
:102B50004043134301F4407221F070410361836AE2
:102B600021F4732123F4403321F47F61134321F0D6
:102B70000F01836283691943816170474269836AE7
:102B800003481B0C03F0C30313431840704700BFF6
:102B9000C3C0FFC10A44914204D143695B02FCD522
:102BA0000020704743691B02FCD511F8013BC3614B
:102BB000F1E70000044A0548516808B5044B1B685A
:102BC0009847BFF34F8F08BDA010272000C00740D3
:102BD000D4102720044A0548916808B5044B1B68A7
:102BE0009847BFF34F8F08BDA01027200000084072
:102BF000D4102720044A0548D16808B5044B1B6847
:102C00009847BFF34F8F08BDA01027200040084011
:102C1000D4102720044A0548116908B5044B1B68E5
:102C20009847BFF34F8F08BDA010272000800840B1
:102C3000D4102720044A0548516908B5044B1B6885
:102C40009847BFF34F8F08BDA010272000C0084051
:102C5000D4102720044A0548916908B5044B1B6825
:102C60009847BFF34F8F08BDA010272000000940F0
:102C7000D4102720044A0548D16908B5044B1B68C5
:102C80009847BFF34F8F08BDA01027200040094090
:102C9000D4102720044A0548116A08B5044B1B6864
:102CA0009847BFF34F8F08BDA01027200080094030
:102CB000D4102720044A0548516A08B5044B1B6804
:102CC0009847BFF34F8F08BDA010272000C00940D0
:102CD000D4102720044A0548916A08B5044B1B68A4
:102CE0009847BFF34F8F08BDA010272000000A406F
:102CF000D4102720044A0548D16A08B5044B1B6844
:102D00009847BFF34F8F08BDA01027200040C24056
:102D1000D4102720044A0548116B08B5044B1B68E2
:102D20009847BFF34F8F08BDA01027200080C240F6
:102D3000D41027200268064B9A4206D14068054B02
:102D400098428CBF0020012070470020704700BFD0
:102D50004655504B0001010010B5064C20460FF0BF
:102D6000B3FF214604480FF0B8FF08B901232372CE
:102D700010BD00BFC81527200020C84038B5124D2F
:102D80002B7AD3B12B7A012B1CD1104C4FF49E62BD
:102D90000021204610F0D6F84FF4956204F110019E
:102DA0000B480FF0CDFF60B90A4B0B4AC4E9002372
:102DB0000223C4E902002B7203E0FFF7CDFF0028D5
:102DC000E0D038BD0120FCE7C8152720D810272007
:102DD0000020C840000101004655504B2DE9FF413D
:102DE000022A4FF0000307460D461646CDE902338E
:102DF0002ED103AA02A930460EF0FAFC039BAB4287
:102E000032D8029BAB422FD3DFF8AC8098F8084051
:102E1000A31E012B10D9012C42D12248FFF78AFFB3
:102E2000A8B34FF49562204920480FF0B4FF044640
:102E300068BB032388F808307FB9022E14D13423ED
:102E40002A46394619480093194B0FF0CCFF17E07A
:102E500010220823CDE90223D0E73246294638461E
:102E60000EF0D2FC022E01D0042410E034233A46A6
:102E700000210E4801930E4B00932B460FF0EFFFFD
:102E8000044640B1382200210A4810F05BF8204681
:102E900004B0BDE8F081034B0222C3F8B824F6E782
:102EA0000124F4E7D8102720E81027200020C8408C
:102EB0009415272090152720C815272013B5044600
:102EC0000C48FFF737FF90B1002301A9204601937A
:102ED0000EF07BFC48B92346064A4FF49E610198E8
:102EE00009F014FC08B909F00DFB02B010BD012077
:102EF000FBE700BFD81027201FB5002203A90190CF
:102F000003920EF062FC019B014688B94FF49E616A
:102F10000D4A039809F072FB014648B90A48FFF7C9
:102F200009FF48B94FF49E62074810F00BF80121E1
:102F3000084605B05DF804FB044B1B7A012BF7D063
:102F4000FFF70AFF0146F3E7D8102720C81527200E
:102F500038B5044658B151B1074D2846FFF7EAFE8F
:102F600038B14FF49E63002025600B6038BD04200B
:102F7000FCE70120FAE700BFD8102720B1F59E6FCB
:102F800010B504460FD1FFF7D5FE70B10A460948C7
:102F900021460FF0C9FF084B1B7A012B07D0BDE873
:102FA0001040FFF7D9BE042010BD0120FCE700202F
:102FB000FAE700BFD8102720C81527202DE9F84FC1
:102FC0002D4F804604F026FA2C4E3B6804460D46F1
:102FD000DFF8C0905A1C3A60D6E90021B4EB020A2F
:102FE000274A65EB010BD2E90001594508BF50455E
:102FF00015D201233B60234BC3E90045224BC9E9AD
:103000000045C3F800803B68D9F80020013B1F4908
:10301000A21AC6E9004541F82320BDE8F88F062B27
:10302000F1D801A252F823F0F72F252007302520F0
:103030000730252045302520573025200730252012
:103040005F3025200F4BD3E90021A21A65EB010167
:10305000C3E90021D7E70E4BC3E90045D3E70C4B8A
:103060004046D3E90021A21A65EB0101C3E9002122
:103070000EF09EFDC7E700BF34162720F815272065
:1030800010162720D8152720E015272018162720EE
:10309000001627200816272000210E4B002210B50D
:1030A000044619600C480023C0E900230B48C0E91E
:1030B00000230B48C0E900230A4B0B48196004F0B9
:1030C000B7F90A4BC3E9000120460949BDE81040A1
:1030D0000EF052BD34162720D815272000162720C1
:1030E000F8152720E015272080380100101627202A
:1030F000BD2F25200EF05CBDF8B52A4B0C461B6891
:10310000072B4CD1284B1B68834248D1274A2849BA
:103110009768D368DFF8A4C0DB1BD2E900568B6048
:10312000751BBE1B0D604E60D2E904719269CF1B06
:10313000511A6422CCF800705343CCF80410B3FB4E
:10314000F5F53C3D0D2D28D8B3FBF6F3403B052BA0
:1031500023D802FB07F3B3FBF1F1813909291CD80D
:10316000B3FBF6F3813B092B17D80DF0C5FB114BD0
:10317000114AC0EB00101B680A21126813444FF477
:103180009662B0FBF3F34B430020B3FBF2F305333D
:10319000B3FBF1F353432360F8BDFFF77DFF01203C
:1031A000FAE700BF34162720E0152720181627203D
:1031B000E4152720D815272000162720F0152720F2
:1031C000013910B507292FD8DFE801F004162E22A7
:1031D000222E22145368013B03330BD8134B18687B
:1031E0008369002B06DD90F81A34012B02D11830C8
:1031F0000DF050FA002018E053685A1E0332F9D837
:103200000A4A1068C3610123143000F8083CEFE754
:10321000064C0021206814300DF026FA20680021A9
:1032200018300DF021FAE5E7052010BD38162720EB
:10323000012938B50C460FD1084D4FF47E7328682C
:1032400080F81A1400F1200202218068FEF774FC55
:103250002B6883F81B4438BD0020FCE73816272074
:1032600059B9074B022118684FF47E7380F81C246B
:1032700000F120028068FEF75FBC0020704700BFAD
:1032800038162720014B1860002070473816272079
:10329000024B1860002383601846704738162720B9
:1032A00005207047087A20B9034B0B604C234B6014
:1032B00070470520704700BF8C002720052070470D
:1032C000024B00200B6012234B6070474100272007
:1032D000087A20B9034B0B6029234B607047052007
:1032E000704700BF18002720887A0E4B10B520B910
:1032F0001A685B680A604B6010BD9B680C891A896C
:1033000094420CD103280AD81A6800B25B6852F8BC
:10331000202053F8203000200A604B60ECE70520A5
:10332000EAE700BFD80027200229174B17481849A1
:1033300030B516D10322F82483F82020DC7783F8F7
:10334000212083F8272083F8264083F828204FF493
:103350007E73438003814FF400734B800B81002008
:1033600030BD40220025012483F82050DA7783F80D
:10337000214083F8275083F8262083F82840428094
:1033800002814A800A81EAE7180027205C00272092
:10339000E800272080B588B000AF786039607B688E
:1033A000BB61BB695B687B61BB699B683B61BB6957
:1033B000DB68294A13600023FB61274B1B68002B45
:1033C0000CD0254B1B68184600F03AFD034683F0ED
:1033D0000103DBB2002B01D00423FB61786900F00C
:1033E00023FD034683F00103DBB2002B01D004234D
:1033F000FB61FA69BB691B781946104600F0A2F818
:10340000FB69002B23D17B69144A1360002000F074
:1034100097FD134A3B6913600F4B1B68002B0DD0BF
:103420000D4B1B68BB60BB6883F3088800BF0A4B69
:103430001B68FB60FB6883F3098800BF074B1B68B0
:10344000074A126810469847002000F079FD00BF37
:103450002037BD4680BD00BF4016272044162720D8
:103460004816272038B50446406800F0DDFC50B10E
:103470000120656800F064FDA068A8472178BDE8D8
:10348000384000F05FB80420F8E7000073B5054647
:103490000DF012F91148AB6805F10C02696804F0EF
:1034A000A5F9044688B9019001AAAB6869680B4880
:1034B000EE6804F0E1F9044638B9019B36EA0303EB
:1034C00044F6E9630CBF04461C460DF0FBF829786E
:1034D000204600F037F802B070BD00BF00C0CA40FF
:1034E0001FB504460023CDE902330DF0E5F8A368CB
:1034F00002AA6168064804F0BFF901900DF0E2F8F5
:10350000A26802A9019800F07DF804B010BD00BFC8
:1035100000C0CA4010B5044600F034F9084B002042
:1035200062681B69A168DB685A611022196183F81F
:103530002020E26883F82120BDE8104000F084B824
:10354000F00127201FB5074B0C22039101A9CDE9FB
:103550000130054BD86943699C680023A04704B03B
:1035600010BD00BFA0000002F001272010B5A72366
:1035700088B0ADF800300023019002A88DF8023029
:10358000531C01EB8202DBB28DF8033091420AD169
:10359000074A6946D0695A1C436992009C68002317
:1035A000A04708B010BD51F8044B40F8044BEDE7BC
:1035B000F00127201FB5074B0C22039101A9CDE98B
:1035C0000130054BD86943699C680023A04704B0CB
:1035D00010BD00BFB3010002F00127201FB5074B4B
:1035E0000C22039101A9CDE90130054BD86943694B
:1035F0009C680023A04704B010BD00BFA3010002D7
:10360000F001272010B50E4C88B0CDE90040A0B9DC
:103610009008029202308DF8030003A80FF084FC9A
:10362000084B69469DF80320D8690132436992002E
:103630009C680023A04708B010BD00230293EFE769
:10364000AF000002F00127201FB5074B0C220391A9
:1036500001A9CDE90130054BD86943699C68002375
:10366000A04704B010BD00BFB0010002F001272048
:1036700037B50022324D436802210446CDE90022CD
:103680002A69D26882F82110062B56D8DFE803F0A9
:10369000040A242A2E324100FFF770FB2178FFF73D
:1036A00051FF17E0C368102B45D800F06BF82B6969
:1036B00024490020DB68E268596115211A611984E8
:1036C00061685962A168C3E90A122B69DB6819694C
:1036D00000F03CF803B030BDD0E902210020FFF734
:1036E0007DFBDBE78068FFF7E9FBD7E78068FFF742
:1036F00003FCD3E700F046F82B694FF49E620020EC
:10370000DB681A61104A5A6115221A8462685A628B
:10371000DBE700F037F801A96846FFF719FC00283D
:10372000D3D12B69019ADB681A61009A5A6140F281
:1037300015121A84C9E70420C7E70420AEE700BFCA
:10374000F0012720F41A2720F41C27201FB5074B6F
:103750000C22039101A9CDE90130054BD8694369D9
:103760009C680023A04704B010BD00BFB501000253
:10377000F0012720024B00201B69DB6818607047AE
:10378000F0012720034B242200211B69D8680C304C
:103790000FF0D8BBF001272073B52C4E0025F0693F
:1037A00034468DF807504269002A4DD03369D968F4
:1037B0000B68012B35D056682B4601F10802043105
:1037C000B04720B1A0F51C53123B012B27D8266926
:1037D000F26895681DB3506801784B1E142B08D908
:1037E0000023136342F21070FFF7ACFE42F2107038
:1037F00015E001F10053B668013B06EBC30CC2F8BB
:1038000030C0BCF1000FEDD056F83330002BE9D0BA
:1038100029469847236901220020DB681A6002B01C
:1038200070BD0B6B4BB15B683BB10DF10700984766
:1038300018B13369DB681D60F1E7236900209DF84A
:103840000720DB681A60EAE71046E8E7F001272066
:1038500008B501780020FFF775FE0A4BD869436967
:103860001B699847022000F06BFBBFF34F8F06499E
:10387000064BCA6802F4E0621343CB60BFF34F8F7C
:1038800000BFFDE7F001272000ED00E00400FA058D
:103890004368B3F5887F10B5044622D00ED8B3F53F
:1038A000807F1BD040F20112934214D0092B0FD01D
:1038B00004202178BDE81040FFF744BEB3F5907FA7
:1038C00012D040F221129342F2D109F0DBFAF0E774
:1038D00008F0E4FDEDE70BF00BFDEAE70AF0BCFBB6
:1038E000E7E70AF0CDFEE4E709F0E0FCE1E70000DD
:1038F000064B1B6810B504469B69D0E9021240686C
:1039000098472178BDE81040FFF71CBEF001272042
:1039100010B50446FFF736FF074B002062681B69AD
:10392000DB681A61082283F820202178FFF70AFE5D
:10393000BDE810400CF0CAB9F0012720064B8168A1
:10394000DB6810B50446DB68007998472178BDE84C
:103950001040FFF7F7BD00BFF001272010B5044667
:10396000D0E9010108F06CFF2178BDE81040FFF7B5
:10397000E9BD000010B50446FFF704FF084B002026
:10398000E2681B69DB689A61A2681A6162685A6121
:10399000042283F820202178BDE81040FFF7D2BD33
:1039A000F001272038B5224D002204462B69DB6840
:1039B000C3E9042293F82030042B04D12B681B693F
:1039C000984784B9044674B92B69DB6893F82020C2
:1039D000152A08D15A6A012A20D11648D3E90A21AA
:1039E000FFF7FCF904462B685B6998472B69002CAC
:1039F00008BF0446DB68204693F82010FFF7A2FDBD
:103A000042F212739C4212D12B69DB6893F820308A
:103A1000082B0CD1BDE838400CF00CBA052AE2D1D5
:103A20004FF49E610448FFF7A9FA0446DBE738BD6E
:103A3000F0012720F41A2720F41C2720524B1A6982
:103A4000D2682DE9734FD2F8108081469A46B8F1BA
:103A5000000F09D1444680F800804046FFF7A2FFDE
:103A6000204602B0BDE8708F01214FF0000BD2E973
:103A70000565017092F82020CDF804B0042A11D118
:103A80002A464146304608F023FE3F4B044648B1E3
:103A9000D8694369DB6898472046FFF783FF89F8B8
:103AA00000B0DDE7DAF81C0001AA694643695C68EA
:103AB0000123A047044658B1DAF81C004369DB68CB
:103AC000984720460024FFF76DFF89F80040C7E7BC
:103AD000019931B942F21270FFF764FF89F8004092
:103AE000BEE7DAF8103041450098DA6828BF414651
:103AF00092F820300191082B17D1D060D1610CF0E1
:103B000071F942F27D730546984227D042F27473F0
:103B1000984208BF0025019BB8EB030820D1284636
:103B2000FFF740FF89F800809AE7132B08D10A4677
:103B30000146304625460FF0F7F9019B1E44EAE79F
:103B4000152BF4D0DAF8003002463046D3F808B02E
:103B50002B46D847019B05461E44DCE72546DAE79D
:103B60005DB1DAF81C004369DB6898472846FFF727
:103B700019FF002389F8003072E7DAF810302C467C
:103B8000DB68C3E904866BE7F00127202DE9734F5A
:103B9000DFF8F8A08346DAF81030D046DA68146906
:103BA0003CB904702046FFF7FDFE002002B0BDE8DE
:103BB000708F4FF001035669D2F80C900370DAF859
:103BC0001C00936992F82010426901935269009198
:103BD0009047A04228BF2046DDE900130546B9F111
:103BE000000F14D00246494627480FF09DF9009671
:103BF000D8F81C00641B2A46234943699E680123A8
:103C0000B04794BBFFF7CEFE8BF80040CDE73218EB
:103C10000329009219D1DAF8002001463046526893
:103C20009446194A6646B04706460028E0D0DAF8BE
:103C30001C004A46144943699C680123A04730464A
:103C4000FFF7B0FE8BF80090AFE7DAF81030DB68D2
:103C500093F82030152B05D12A4631460A480FF03B
:103C600063F9C5E71329C3D1F6E728B1FFF79AFE38
:103C700000238BF8003098E7D8F81030009ADB6802
:103C80001C615A6191E700BF00172720F00127202F
:103C9000044B1B69DB6893F821300BB9FFF7CEBEEC
:103CA000FFF774BFF0012720074A03461269D26864
:103CB00092F821200AB9FFF7C1BE012A01D1FFF70E
:103CC00065BF002018707047F0012720064B1B6865
:103CD00010B50446DB68D0E90212406898472178A5
:103CE000BDE81040FFF72EBCF001272073B50A4D48
:103CF00000246A468168EB6800799E6801ABCDE9D3
:103D00000044B0472B69019ADB68920800991C6156
:103D1000FFF72CFC02B070BDF001272030B5204D1C
:103D200085B00446FFF72EFD2B69DA68132382F86D
:103D30002030E36882F8213093B9A16820290DD89A
:103D400018486568016018481161056018461749F0
:103D500051612178FFF7F6FB05B030BD0420F8E78C
:103D60000023114A0F49039303AB10480093104BF3
:103D7000126809680CF000FA18B9039B013B572B35
:103D800001D9002303932B69094ADB6803995A611F
:103D90000122196183F82120FFF70CFCDCE700BF4A
:103DA000F0012720FC162720F8162720D8162720F8
:103DB0008016272010B50446FFF7E4FC084B0020CE
:103DC000E2681B69A168DB689A61626819615A61DF
:103DD000032283F82020BDE81040FFF7FFBB00BF9F
:103DE000F0012720BFF34F8F0549064BCA6802F444
:103DF000E0621343CB60BFF34F8F00BFFDE700BF0E
:103E000000ED00E00400FA0507B5022101AA08F060
:103E1000A3FB30B9019B986800F0010003B05DF886
:103E200004FB0020FAE70000421E033204D8034AD4
:103E3000904201D0FFF7E8BF00207047BD04252065
:103E40000A4B5B681A690AB9104670479A6802F013
:103E50001102112A06D11A68824203D25A6801322D
:103E6000824201D21433EDE701207047F001272090
:103E700080B5314C0CF01EFC0DF048FB00200CF01E
:103E800051FC2E4D03F0F8FA23681B689847E3684D
:103E90005B689847E3681F692B683BB94FF47A70F9
:103EA00003F0C6FA0DF098FA244D0EE097F8902032
:103EB0001A4205D06A692846EB6891695B689847A1
:103EC0001835E9E71A4206D118352B6897F8902083
:103ED000002BF7D1E8E7EB6828461B6898470028D5
:103EE000F2D0164E0AE097F890201A4205D0B5425B
:103EF00003D0F36830469B68984718363368002B28
:103F0000F1D12B69E5611BB11B680BB128469847BD
:103F1000E069436913B11B6803B1984723691B68C3
:103F20009847E56923695B689847EB68DB68002B75
:103F3000F8D028469847F5E7F0012720046A2620A4
:103F4000012838B5044611D00E4D2B689BB96CB9C9
:103F50000CF0B2FB03F04CFA0CF060FB0A4B0120B2
:103F60009C600CF0DFFB0DF046FA62B6BFF36F8F7A
:103F7000BFF34F8F38BDEB689B680BB1284698475D
:103F80001835E2E7046A262000ED00E070B50C4B1E
:103F9000044645685B5D4BB10A4B2846002153F847
:103FA00025600CF095FB3046FEF7A4FD2846FFF790
:103FB000A1F8A36860680021BDE87040184700BF01
:103FC000E4212720985E2620064B10B50446196090
:103FD00083680121406898476068FFF75DF800201A
:103FE00010BD00BFF0212720F0B5456887B0074617
:103FF00069462846FFF780F8002834D11B4B01A8FA
:1040000053F82560FEF792FD009B284601930CF0C3
:1040100075FC01A902463046FEF7A0FC00BBBB6858
:1040200002212846124C9847012128460CF050FBEB
:104030004FF400113046FEF788FDB3695A2043F46F
:104040008023B361B36943F40023B36123689847C5
:104050002368A62098470120064B585507B0F0BDAD
:104060002846FFF719F80020F8E700BF985E2620E1
:10407000F0212720E421272008B54068034B53F89E
:104080002000FEF787FD002008BD00BF985E2620B7
:1040900010B5074C2046FEF771FD830206D5E06996
:1040A000044BC0B21B68BDE81040184710BD00BFEC
:1040B00000C00740F0212720064B0021064A187B4C
:1040C00093F8213410708B42517008BF084600F0FD
:1040D00001007047F421272018262720024B0122D7
:1040E0005A701A70704700BF18262720436910B411
:1040F0009C680023A4461A4619465DF8044B6047A5
:10410000002070474FF47D707047000038B5084DAF
:10411000002105F1140420460CF0A6FA002105F157
:1041200018000CF0A1FA20460CF0B4FA002038BDBB
:10413000F42127202DE9F0411546214A0E46127838
:104140000AB9002013E0B5F57D7F34D88BB1012B7F
:1041500033D14FF004080CF0AFFA1A4B5F7B1C46CA
:1041600057B100225A730CF0ADFA42F21270BDE85A
:10417000F0814FF00308EEE70CF0A4FA84F82080F9
:1041800084F82170658436B12DB12A46314604F198
:1041900024000EF0C9FE94F81A140129D1D14FF46D
:1041A0007E73094AA068FDF7ACFC4FF0FF31074869
:1041B0000CF05CFAC5E70420D9E70120D7E700BF7F
:1041C00018262720F4212720142227200C2227201C
:1041D0002DE9F04116460F4600293CD0002A3AD07E
:1041E000002232602BB3012B37D14FF002081D4B58
:1041F0001878E0B11C4DAB7B3BB14FF47E7305F1F9
:1042000020020221A868FDF797FC01244FF0FF313E
:104210001648AC730CF02AFA95F8203043450BD0C1
:10422000A0451CD1022B42F2127018BF2046BDE8F7
:10423000F0814FF00108DAE795F8232095F8223055
:1042400043EA0223EA69043A9A4208D3084A002062
:104250003A603360EBE70420E9E70120E7E7204616
:10426000E5E700BF18262720F42127200822272071
:104270001822272010B504460220FDF7D5F90028A2
:1042800037D11C48FFF704F81B4A636832F9133032
:10429000002B0DDB5909012003F01F03203100FA28
:1042A00003F3164840F82130BFF34F8FBFF36F8FF1
:1042B000636832F91330002B09DB5A09012103F03E
:1042C0001F03603201FA03F30C4941F822300C4A13
:1042D00046F66063D158C9070BD50021D150BFF312
:1042E0004F8FBFF36F8F02F5DC4270321368DB072C
:1042F000FCD410BDF4212720105F262000E100E04F
:104300000000CC4040F224420021274870B50EF056
:1043100019FE0CF05BFA254BDB681B6958B993F862
:10432000902022F0100283F89020DA6822F0100228
:10433000DA60012037E0D3F8942001320AD0B3F8D4
:1043400094101B4A1172090A5172B3F896109172B7
:10435000090AD172D3F898300220164A124DB3F1EF
:10436000FF3F08BF1346144A144E136000232A4629
:104370003146A5F82034AB602B60FDF7DFF804462A
:104380000028D6D1336828465B68AB60FEF77AFF19
:104390000B4B402283F888234FF480721A612868FF
:1043A0000DF0BDFC204670BDF4212720F001272030
:1043B00041002720D80027203C1627200C0027206A
:1043C00000E100E00139F8B5054615296FD8DFE8AE
:1043D00001F00B6E6E6E6E6E6E6E1D2B4A50565C4B
:1043E00062686E6E6E6E3B41324E0027022006F50B
:1043F000846186F82174FDF745F9044690B996F872
:1044000020142846FEF790FF2046F8BD002A4ED023
:10441000284B012183F821141178986883F822141D
:10442000FEF706FF0024EFE7224B93F82114002942
:104430003DD01288140A3AD1D2B22146986883F846
:104440002324FEF70DFFDFE78AB31A4B93F82234DB
:104450001370E7E75AB31488240A28D1154B93F850
:1044600023341380D0E712B31146BDE8F840FEF7BD
:1044700027BFE2B11146BDE8F840FEF729BFB2B14F
:104480001146BDE8F840FEF72FBF82B11146BDE8E6
:10449000F840FEF705BF52B11146BDE8F840FEF7FF
:1044A00001BF22B11146BDE8F840FEF707BF052461
:1044B000AAE700BFF4212720014B18680EF02ABAA2
:1044C000F421272000230380704770B503880A4435
:1044D00041F221068A4201D1038070BD11F8014BDF
:1044E00083EA042308245D001B044CBF85EA06030D
:1044F0002B46013CF7D1EDE703880B80704744F66B
:104500004E730380704770B503880A4448F205066D
:104510008A4201D1038070BD11F8014B83EA042364
:1045200008245D001B044CBF85EA06032B46013CB2
:10453000F7D1EDE74FF0FF320023C0E900237047C9
:1045400030B5D0E90034084D14440A444460914227
:1045500001D1036030BD11F8014B84EA136455F8B2
:10456000244084EA0323F2E7185F2620D0E90023E1
:1045700030B513F0030308D0054D140E013355F880
:104580002440042B84EA0222F7D102600A6030BD85
:10459000185F2620036843F0010303600368DB070C
:1045A000FCD47047D0F8E030DA07FBD5D0F8E03023
:1045B0009B07FBD57047006CC0F380007047006C10
:1045C00000F001007047006CC0F3C0007047006C41
:1045D000C0F340007047006CC0F3801070470000CB
:1045E000022898BF454B2DE9F04F98BF53F8205053
:1045F00087B04FF4807388BF002506460C46CDE98E
:104600000433002D78D0002976D00B7B032B73D890
:1046100012D10846FFF7DBFF70B902AA022130462B
:104620000CF072F9364B029A9A4224D9236C1A067E
:1046300021D47923CDE904332B689B075AD42B6806
:1046400043F002032B600123226D0AB9626D12B19F
:10465000049AC5F8C020A26D0AB9E26D12B1059A9C
:10466000C5F8C4201BB12B6823F002032B60002087
:1046700007B0BDE8F08F27460DF1100804F10409DA
:104680004FF0640ADFF880B097F8792022BB97F8E2
:10469000781011FB0AF1C9B92046FFF79CFF03A966
:1046A0000246019030460CF0ABFB019A03984FF4A0
:1046B0007A71144B3AB9B3FBF0F24A434B21B2FB87
:1046C000F1F2013208E0BBFBF0F2F6E74B20B1FB60
:1046D000F0F250438842F4D33F2A07F1020728BF83
:1046E0003F22B9454FEA422242F4807248F8042B37
:1046F000CAD1A1E70023A7E70420B9E71863262061
:10470000FFE0F5050065CD1D80B2E60E10B588B15D
:1047100082B17BB1084CB4FBF2F25343B1FBF3F22C
:1047200002FB03F4A14202D80260002010BD013256
:104730001C44F7E70420F9E700CA9A3B7FB502283A
:104740004FF6FF750446CDE9005530D8194B53F8A4
:10475000206066B359B302AA02210CF0D5F803AA6F
:10476000012120460CF0D0F84FF48063029A68468D
:104770001149FFF7CBFF4FF48063039A01A80E495C
:10478000FFF7C4FF009B0020B3F5803F019B28BFCB
:104790000095B3F5803F009A24BF4FF6FF73019355
:1047A000BDF8043043EA0243736004B070BD0420D6
:1047B000FBE700BF186326200065CD1D2DE9F347F8
:1047C00002284FF0000607460C46019653D82B4BA3
:1047D00053F820A0BAF1000F4DD000294BD001F1C1
:1047E000500959F8043B0AEB860820469B0AC8F892
:1047F0006030657BE37B6D01DB0205F4787503F4C3
:10480000F0431D43A37B03F01F031D43FFF7DBFEB3
:1048100008B145F48065636F6BB16A460221384682
:104820000CF072F80123009A01A8616FFFF76EFF88
:10483000019B45EA0345C8F8705094F84730BBB176
:1048400094F89021530113F0E00F11D094F89131B6
:10485000013A1B02520303F4706392B21343013610
:10486000C8F88030042EBCD1002002B0BDE8F0872B
:104870004FF41063F3E70420F7E700BF1863262026
:10488000034610B510B309B391F84420012A09D1A9
:10489000C268084622F00102FFF78DFE98B942F087
:1048A0004002DA60DA680A4C42F02002DA60002244
:1048B00003EB82000132016A072A01EA0401016266
:1048C000F6D1002010BD42F04102EAE70420F9E7EA
:1048D00000FCF0F8022870B514461E4628D8154B87
:1048E00053F8200020B31AB372184FF0000343F1BD
:1048F0000003002B08BF112A1AD2FFF753FE022330
:104900000D4A01FA03F58261C3618B19990005F123
:10491000800300EB83038D4204D301238261C361D2
:10492000002070BD54F8046B013543F8046BF2E7C6
:104930000420F6E718632620F05AF05A022807D818
:10494000044B53F820301BB1D3F8E0209207FBD57D
:10495000704700BF18632620022805D8034B53F880
:10496000200008B1FFF716BE704700BF186326206D
:1049700002280FD8084B53F8200058B1002300EB51
:1049800083010133D1F88020042B42F00042C1F8AA
:104990008020F4D1704700BF1863262002282DE93B
:1049A000F34106460D4603D9042002B0BDE8F0816C
:1049B0007F4B53F82040002CF6D00029F4D00B7820
:1049C000032BF1D820460F7CFFF7ECFD3046FFF7B4
:1049D000CFFF62696B6842F01E026261C4F8A030CA
:1049E0002978022966D1288BAB680329EA684FEA47
:1049F000034302F1FF3203F470234FEA026243EAF9
:104A0000C77302F0E06243EA020343EA0003C4F81A
:104A1000A43054D02B78013B012B34D86B699E070E
:104A2000C2D11C21AA69C4F8BC10D4F8BC1041F052
:104A30000101C4F8BC10D4F8BC1011F00101FAD186
:104A400004F5C07604F5E0778C46002A1BDD60692A
:104A5000400615D53F2A304640F39C8003F1400EB6
:104A6000734540F08A80403A29B9D4F8B01041F03B
:104A70000101C4F8B010616941F040016161012198
:104A800060690007E1D52B78002B00F08980204673
:104A9000FFF788FD606910F0080086D0D4F8E43094
:104AA00041F6593041F65A32C3F303630E2B08BF67
:104AB00010467AE703290CBF288C002094E7EA69A6
:104AC00093077FF471AF1C212B6AC4F8B810D4F897
:104AD000B81041F00101C4F8B810D4F8B810CF07ED
:104AE000FBD4D4F8B01004F580706FF0030704F520
:104AF000A07C41F00101C4F8B010002B8AD03F2BFC
:104B0000014615D96669B60608D5164661450AD12B
:104B100061694032403B41F02001616161690907F0
:104B20003FF578AFE9E751F804EB46F804EBEDE721
:104B3000D4F8F010C9B2B3EBC10FEFD823F00306DD
:104B40004FEA930E01461644B24211D107FB0E33D1
:104B5000002BE3D050F82E10134401AE0191114602
:104B600016F801EB01F801EB9942F9D10023D5E7E2
:104B700051F8048B42F8048BE6E753F8048B40F8B5
:104B8000048B6DE7002A08DD53F804EB043AC0F803
:104B900000E00430B842F5D166E7C0F800C0F8E79D
:104BA000D4F8B03043F00103C4F8B0306FE700BF71
:104BB0001863262010B504468AB029B300204FF0B0
:104BC000010C02938DF80400032091F847308DF812
:104BD0001420CDE9030C33B191F888311BB191F861
:104BE0008921CDE90323039A2046049B01EB02129D
:104BF00001218032FFF76EFE012301A920460393B5
:104C0000FFF7CCFE0AB010BD0420FBE72DE9F04F02
:104C100080468FB017460C4600296DD0002F0693B2
:104C20004FF003034FF00102B1F87C600DF10C0A64
:104C30008DF8143014BF0823042302FA06F6B1F8E5
:104C40007E900D9391F84730CDF830A08DF8247008
:104C5000CDE9072233B191F884311BB191F8852158
:104C6000CDE9072307994046089B002504EB011274
:104C70008032FFF72FFED4F870B05C4605A940469D
:104C8000FFF78CFEA8BB6FB30DF1040C02A904233F
:104C9000524612F802EB013B0CF801EB12F801EC62
:104CA00001F801EBF5D1DDE90123B9F1000F16D0D0
:104CB000134036EA030314BF01230023CBB1BBF139
:104CC000000FDBD054EA050311D04FF47A700021B5
:104CD0000CF06CF814F1FF3445F1FF35CEE71343C7
:104CE0001E42E8E7039BB9F1000FF9D0E1E741F676
:104CF0005A300FB0BDE8F08F0420FAE702282DE902
:104D0000F04F05468FB00C4600F27481BA4B53F851
:104D10002060002E00F06E81002900F06B810B7C7A
:104D20001BB90B7F002B00F0DC80236CC3F3001B4E
:104D30002268B24B9A4240F05D8128460CF07EF822
:104D4000214628460BF03EFEBBF1000F00F0CB8061
:104D50000022012128460CF083F828460CF05CF86C
:104D60003368304623F002033360FFF713FC3368E7
:104D70002146284643F002033360326894F84530F8
:104D800022F40352082B237B22F030024FEA031354
:104D90004FEA024203F030034FEA124208BF42F4E6
:104DA000005213436FEA03436FEA13433360FFF784
:104DB000C5FCB368204623F40043B360FFF7FFFB54
:104DC00018B1B36843F40023B36021463046FFF7BF
:104DD00057FD21462846FFF7F1FC21462846FFF7FC
:104DE000FFFB3368304623F002033360FFF7D2FB4A
:104DF000237C002B7ED1237F002B6DD004F1600338
:104E000004F1500A04224FF0000801935AF8043BC1
:104E10000093002B5BD04FF00103042204F11D0925
:104E200004F130078DF814300023CDF818808DF888
:104E3000243004F13C030B92029317F80F3C002B33
:104E40003BD0D6F8001211F4407F03D099F800103F
:104E5000022932D00793002217F8103C2146284639
:104E60000A9708934346FFF7A5FE0246002840F044
:104E70008D80079A0121089B284604EB021280329C
:104E8000FFF728FD012305A928460793FFF786FDB4
:104E9000024600287AD1618A002940F0898099F879
:104EA0000030023B012B40F28380434621462846D6
:104EB000FFF7ACFE0246002868D10437029B09F1D7
:104EC00001099F42B9D1002A60D1009B9844019BFF
:104ED0009A459BD1002A59D1BBF1000F70D1002215
:104EE00054E09B4624E72046FFF775FB94F84610F4
:104EF00002462FE704F1600304F150080422002762
:104F000000934FF0010904F11803019358F804AB22
:104F1000BAF1000F45D0D6F8003213F4407F02D02A
:104F2000637C022B3BD0637D0022214628460793F9
:104F3000237D8DF8149008934FF0000306978DF8A9
:104F40002430019B0A9304230B933B46FFF732FE68
:104F5000079A089B012104EB021228468032FFF7D2
:104F6000B9FC05A92846CDF81C90FFF717FD0246AD
:104F700060B9618A71B9637C023B012B0AD93B4657
:104F800021462846FFF742FE024640B110460FB0C8
:104F9000BDE8F08F6420484300210BF007FF574421
:104FA0000022009B9845B1D1002A3FF424AFEDE7E1
:104FB00064200392484300210BF0F8FE039A7CE73B
:104FC0003368204643F002033360FFF704FB94F894
:104FD0004610024628460BF043FF21462846FFF7BD
:104FE000ADFB21462846FFF7FBFA336823F00203A6
:104FF000336074E70422C9E718632620464346421B
:10500000022808B50AD8074B53F8200030B1FFF743
:10501000C9FA036819B143F40063036008BD23F4BF
:105020000063FAE71863262030B505468BB029B334
:1050300000230324029201F1900200938DF80440B2
:1050400001248DF8143004232146CDF820D0099393
:105050002346CDE90344FFF73DFC01A9284603940C
:10506000FFF79CFC40B9009B5A0709D413F0080FC6
:1050700044F6246318BF18460BB030BD0420FBE78C
:1050800044F62560F8E770B506468AB01D460C4622
:10509000002939D00323012102928DF804300D2319
:1050A000CDE9033100238DF8143094F847302BB14B
:1050B00094F89931039394F8983104930423039A54
:1050C00001213046099304EB02120023CDF820D0D1
:1050D00080322B70049BFFF7FDFB012301A93046B2
:1050E0000393FFF75BFC50B994F8D0314BB1D4E98E
:1050F000753200990B40934201D001232B700AB006
:1051000070BD20223023F4E70420F8E770B506468E
:105110000D4661B1FFF7F2FD044630B901460123A7
:1051200005F180023046FFF7D5FB204670BD042410
:10513000FBE700002DE9F0478AB006461546994680
:10514000DDF848A00C46002900F09680002B00F006
:105150009380BAF1000F00F08F80D1F8C471012361
:1051600057430B22CDE9032391F84730029733B11F
:1051700091F894311BB191F89521CDE90323039A5D
:1051800000230121304604EB02128DF814308DF813
:1051900004308032049BFFF79DFB012301A93046B8
:1051A0000393FFF7FBFB8046002867D194F8CC31CE
:1051B0002BB3B4F8D20100210BF0F8FD3046FFF715
:1051C000CBFB94F8CD3123B394F8CE218ABB15469E
:1051D000B7F1805F3DD22B4B5246484653F826101C
:1051E00039440DF0A1FE35B1012304F18002002104
:1051F0003046FFF76FFB40460AB0BDE8F087024635
:105200003B4621463046FFF701FD0028D6D08046B8
:10521000F1E70DF103033A4621463046FFF733FF2D
:105220000028F4D19DF80330002BCDD144F6226044
:10523000EDE7D4F8C821B5FBF2F515F00105C7D0AC
:10524000012304F1C002002130460125FFF742FB93
:10525000BEE70023032201A930468DF814300393E2
:10526000012302978DF804200493CDE9089AFFF7F3
:1052700095FB0028CBD1B6E70420C8E744F62060B0
:10528000C5E700BF38632620F0B507468BB0164649
:105290000D46002953D00022D1E971348DF8032046
:1052A00063435E433346FFF785FC0446002843D141
:1052B000012305228DF804008DF81400CDE90323A5
:1052C00095F8473033B195F88C311BB195F88D21A5
:1052D000CDE90323039A0121049B384605EB021212
:1052E00002968032FFF7F6FA012301A938460393AC
:1052F000FFF754FB024620BB334629463846FFF7EA
:1053000085FC0446C0B9324629463846FFF78CFE74
:10531000044688B995F8CD3173B90DF103033246CF
:1053200029463846FFF7AFFE70B99DF8032044F6D2
:105330002263002A08BF1C4620460BB0F0BD04249F
:10534000FAE744F62564F7E70446F5E72DE9F04768
:105350008AB0064615469846DDF848A00C46002956
:1053600000F08F80002B00F08C80BAF1000F00F06D
:105370008880D1F8C4714FF0000957434A468DF830
:1053800003903B46FFF716FC0223092102978DF894
:10539000043001238DF81490CDE9031394F84730BD
:1053A000CDE9068A33B194F890211AB194F891119D
:1053B000CDE9031294F8CE217AB1D4F8C821B5FB17
:1053C000F2F5EA0709D50A22039233B194F8A43121
:1053D0001BB194F8A521CDE90323039A0121049B75
:1053E000304604EB021201258032FFF773FA01A95F
:1053F00030460395FFF7D2FA002844D10E238DF8EA
:105400000400CDE9033594F847302BB194F89D3171
:10541000039394F89C310493039A0121049B304632
:1054200004EB02128032FFF755FA012301A930463E
:105430000393FFF7B3FA024640BB3B462146304692
:10544000FFF7E4FB0546C0B93A4621463046FFF770
:10545000EBFD054688B994F8CD3173B90DF103031E
:105460003A4621463046FFF70EFE90B99DF80320DC
:1054700044F62263002A08BF1D4628460AB0BDE84C
:10548000F0870425F9E744F62365F6E744F624653A
:10549000F3E70546F1E700002DE9F04307468FB03A
:1054A00016460C46002900F0F880002A00F0F5802E
:1054B000D37803F0F003C02B40F0EF804FF400727C
:1054C000002120464FF003090DF03CFD7449754B57
:1054D0004FF00108384684F80E9084F84680C4E9FD
:1054E00000133223214663674FF44073A38140F2D7
:1054F0000243A4F844304FF080532365FFF706FEC3
:10550000054638BB0146102201A80DF01BFD664A76
:1055100042F2024341463846CDE90123434601AAFF
:10552000FFF7D8F9022305A93846009506958DF8AE
:1055300024508DF81490CDF830D00D93CDE9078824
:10554000FFF72CFA054628B99DF80030FF2B05D14E
:1055500044F62B6528460FB0BDE8F083002BF7D04A
:10556000F17811F00F0103D032790AB19342EFD1F3
:10557000012323733378C3F3030384F8463033786D
:105580001B09022B01D0042B7ED172789802DB021A
:1055900002F00F02C4F8C001C4F8C431032A73D862
:1055A000424FB0F5805F37F81270226DC4F8C871B1
:1055B000B2FBF3F3B3FBF7F3C4F8DC310CBF0D23FC
:1055C0000C23E373B37803F00F03022B5CD8384A43
:1055D000DFF800E152F82330364A5B00DFF8F8804C
:1055E0003548236540F20643C4F830010338C4F857
:1055F000B03042F20143C4F86001C830C4E924234A
:10560000C4E954232D4BC4F8D000C4E920E34FF47F
:105610000953C4E94483002384F8CE31737813F02E
:10562000F00F0FD0264B274FDFF8B0C0C4E9487306
:10563000254BC4E930C34FF41A53C4F8C8300123D2
:1056400084F8CE3140F2012220480123228442F224
:105650000102237784F8D031C4E9280200202063B6
:1056600040F20160A0841A48C4E93802192262633A
:1056700071B1B27962B1737953B1C4F8D421C4F86D
:10568000D831022384F8443020460BF0C3FB61E795
:105690003023C4F8D4312023F1E704255AE700BFB2
:1056A00046434642000401569F040004246326201A
:1056B0002C6326200F04C004130418080832802627
:1056C0000C0C4022320401180C0C08321F04A004F8
:1056D0001F04B0046B04100C3204100C6B0401188E
:1056E000F0B5064687B017460C4629B391F8CC2191
:1056F000022A0ED101F19005102202A80193294639
:105700000DF012FC102204F1A00128460DF00CFC53
:10571000019B3A4621463046FFF778FA94F8CC319F
:105720000546022B05D1102202A904F190000DF0CC
:10573000FBFB284607B0F0BD0425FAE7F7B50546A0
:1057400017460C4691B391F8C8317BB30E6CFFF746
:10575000F5F894F8C811C6F380164FBB39B1284646
:1057600032460BF07DFB21462846FEF739FF94F8C0
:10577000CE311BB101212846FFF742FC6A460221C7
:1057800028460BF0C1F816B1009B5B08009301AAF4
:10579000002128460BF0B8F8DDE90023B3FBF2F254
:1057A0000A2302FB03339B08013B12D203B0F0BD76
:1057B00049B194F84610284632460BF051FB214679
:1057C0002846FEF70DFF94F8CE31002BD6D00021ED
:1057D000D1E700BFE8E7F0B58BB004460D461746A9
:1057E0000021242201A81E460DF0ACFB032301A9D1
:1057F00020468DF8043001230295CDE90333CDE92D
:105800000876FFF7CBF80BB0F0BD2DE9F041064666
:105810008AB0174698460C46002942D091F8CD31FF
:1058200013BB94F8CC31022B0CD104F1B00510223B
:1058300001A829460DF078FB102204F1C00128468A
:105840000DF072FB43463A4621463046FFF7B2F967
:1058500094F8CC310546022B1FD1102201A904F186
:10586000B0000DF061FB18E0002301258DF8142035
:1058700001F5B8728DF804300F232946CDF8088061
:10588000CDE903352B46FFF725F801A930460395EE
:10589000FFF784F805460028C3D028460AB0BDE8C3
:1058A000F0810425F9E72DE9F0418AB004460E465F
:1058B00090461F46FFF7A9FFA0B901250E238DF8DA
:1058C000040006F5B072294620468DF81480029730
:1058D000CDE903352B46FEF7FDFF01A920460395D0
:1058E000FFF75CF80AB0BDE8F08100002DE9F04F49
:1058F000082399B00D46904600210DEB03020746A0
:10590000FFF769FF8146002851D1344B029A9A4231
:1059100060D19DF80E6004AA9DF80C30384601361F
:105920002B600A2E28BF0A26B8F1000F4FEAC603E3
:105930000CBF08214FF40061FFF74DFF814600289E
:1059400035D104AC4FF6847A05F15C0B0146642234
:1059500028460DF0F7FAE379227802EB0322B2F53C
:105960007F4F1BD1A379617941EA0321237943EA6F
:105970000121E3789B00B8F1000F1CD1B2F57F4FF5
:105980001BD1502B05F10802384628BF5023019344
:10599000FFF721FF50B9019B6B6001E05245E1D058
:1059A00009F1010908344E45D5D100208146484609
:1059B00019B0BDE8F08F0902E0E75245F0D15A4630
:1059C0003846FFF708FF0028F0D14FF0010385F8B3
:1059D0005830E5E744F68B69E9E700BF5346445089
:1059E00070B506460D46FFF789F9044650B9012304
:1059F000014605F180023046FEF76CFF6B7C012BFF
:105A000008BF2C74204670BD03232DE9F04F0C46CF
:105A1000CB73082191B00746237384F845105821B1
:105A200021640AB1592323648C4B01264FF4007B77
:105A30002146E3674FF48023384684F84760C4F872
:105A4000D03184F8C961C4E970B3FFF7C9FF0546D6
:105A5000002857D10146102203A8DFF82C920DF040
:105A600071FA7F4B03AA31463846DFF82082CDE930
:105A7000039333464FF00209FEF72CFF294610220C
:105A800003A80DF05FFA774B294603AA3846CDE903
:105A900003833346FEF71EFF4FF4184307A9384629
:105AA000009340F6AA238DF82C508DF81C90089393
:105AB000CDF830D0CDF83490CDE90966FEF76EFF11
:105AC0000546F8B920234FF0030B4FF0080A8DF874
:105AD0002C00089301AB07A98DF81CB00E93CDF8EC
